:020000040800F2
:10000000B02000201901000851210008DD0E000871
:100010004D210008BD09000865250008000000000A
:100020000000000000000000000000004D22000859
:10003000210C000800000000A1210008C9220008CE
:1000400033010008330100083301000833010008C0
:1000500033010008330100083301000833010008B0
:100060003301000833010008370D00083301000890
:100070003301000833010008330100083301000890
:100080003301000833010008330100083301000880
:100090003301000833010008330100083301000870
:1000A0003301000833010008330100083301000860
:1000B0003301000833010008330100083301000850
:1000C0003301000833010008330100083301000840
:1000D00033010008292400086524000833010008C2
:1000E0001D0D000833010008330100080000000066
:1000F0000000000000000000000000000000000000
:1001000033010008DFF80CD000F01EFB0048004768
:10011000BD310008B020002006488047064800474F
:10012000FEE7FEE7FEE7FEE7FEE7FEE7FEE7FEE7A7
:10013000FEE7FEE7D12200080501000840EA0103BE
:100140009B0703D009E008C9121F08C0042AFAD28D
:1001500003E011F8013B00F8013B521EF9D2704751
:10016000D2B201E000F8012B491EFBD270470022F9
:10017000F6E710B513460A4604461946FFF7F0FFA6
:10018000204610BD80EA010210B502F00043400095
:1001900022D04A001FD0010E01EB1261C0F35600BD
:1001A000C2F3560240F4000042F40002A0FB022019
:1001B00000047F39140400D0401C50EA124001D4DE
:1001C0004000491EC2B20C0604EBD010401C40088F
:1001D000802A02D003E0002010BD20F00100002999
:1001E00000DA0020184310BD2DE9FE4F804681EA59
:1001F0000300C00F0C46009021F0004123F00045A1
:10020000B8EB0200A94105D24046214690461C4663
:100210000B46024623F00040104347D0270DC7F39A
:100220000A00C3F30A510290401A019040286BDA89
:10023000C3F3130040F4801B0098924620B10023C2
:10024000D2EB030A63EB0B0B01985946C0F1400255
:10025000504600F0C4F906460D4650465946019AEC
:1002600000F0CCF910EB08006141002487EA11523C
:1002700084EAE7731A4340D0009A62B3019A012AD4
:100280004FEA075215DC001B61EB02014FF0004200
:1002900002EA0752CDE90042001C41F580113246C6
:1002A0002B4600F003FA03B0BDE8F08F404621462C
:1002B000F9E7001B61EB0201001C41F580130018F7
:1002C0005B412018A2F5001747EB030140EAD57007
:1002D000B6196D4111E06D084FEA360645EAC07562
:1002E0004FEA0752001B61EB0201001C41F580112F
:1002F00049084FEA30000019514132462B4603B0FD
:10030000BDE8F04F00F0C3B900980122400000237F
:10031000D0EB020263EBE073009821464FEAE074F1
:10032000B8EB000061EB0401E9E783F000435BE711
:1003300081F0004158E72DE9FE4F81EA030404F003
:10034000004421F0004100944FF0000B23F00043E3
:1003500050EA01045ED052EA03045BD0C3F30A54AE
:10036000C1F30A552C44A4F2F3340194A0FB0254C7
:10037000C1F3130141F48011C3F3130343F4801359
:1003800001FB024400FB034E840A970A44EA8154AD
:1003900047EA8357A4FB076802958D0A05FB07858A
:1003A0004FEA932C04FB0C542705029D4FEA065894
:1003B00047EA1637B5EB08056EEB070C870E920E71
:1003C00047EA811742EA8312A7FB0201B6EB0B0151
:1003D00064EB00042B0D43EA0C335E1844EB1C5015
:1003E000DA465146E7FB0201C5F313044FEA0B332B
:1003F00043EA14534FEA0432019C43EA0603A4F192
:100400000C040294009CCDE900B400F04FF903B055
:10041000BDE8F08F00200146F9E72DE9F04D81EAB3
:10042000030404F0004B21F0004514464FF0000A8D
:1004300023F0004150EA050220D054EA01021DD009
:10044000C5F30A570246C5F31303C1F31300C1F302
:100450000A5640F4801543F48013A7EB0608101BDE
:10046000D64608F2FD3873EB050002D308F1010807
:1004700001E092185B41B8F1000F03DA0020014659
:10048000BDE8F08D00204FF48011064684460EE052
:10049000171B73EB050705D3121B63EB050306431C
:1004A0004CEA010C49084FEA300092185B4150EACF
:1004B0000107EDD152EA030012D082EA040083EA78
:1004C0000501084305D0101BAB4106D201220023D1
:1004D00006E000224FF0004302E06FF001025310EB
:1004E0001AEB06004CEB085110EB0A0041EB0B0134
:1004F000BDE8F04D00F0CBB80EB540F233410291AB
:100500000021CDE900110A460B4600F0CFF803B0F8
:1005100000BD00F0004220F00040C10DC0F3160005
:1005200040F400007F2901DA00207047962903DC9F
:10053000C1F19601C84001E096398840002AF4D004
:100540004042704701F0004330B421F0004150EACE
:10055000010206D00A0DA2F56072C1F31301002A50
:1005600002DC30BC00207047440F44EAC104C100E3
:10057000E01830BC00EBC25000F052B82DE9F05F3B
:100580000546002092469B46884606468146402402
:100590001BE0284641464746224600F0E7F853460E
:1005A0005A46C01A914110D311461846224600F00F
:1005B00016F82D1A67EB01084F462246012000214C
:1005C00000F00DF817EB00094E41201EA4F10104C4
:1005D000DFDC484631462A464346BDE8F09F202AE4
:1005E00004DB203A00FA02F1002070479140C2F18A
:1005F000200320FA03F3194390407047202A06DBBA
:10060000CB17203A41FA02F043EAE07306E041FAE0
:1006100002F3D040C2F120029140084319467047CE
:100620000029A8BF7047401C490008BF20F0010006
:10063000704710B4B0FA80FC00FA0CF050EA0104E4
:1006400004BF10BC704749B1CCF1200421FA04F476
:1006500011FA0CF118BF012121430843A3EB0C014F
:10066000CB1D4FEA00614FEA102042BF002010BCB2
:10067000704700EBC35010440029A4BF10BC704762
:10068000401C490008BF20F0010010BC704710B5A5
:10069000141E73F1000408DA401C41F100019218A5
:1006A0005B411A4301D120F0010010BD2DE9F04D4E
:1006B00092469B4611B1B1FA81F202E0B0FA80F2A3
:1006C00020329046FFF78BFF04460F4640EA0A00AF
:1006D00041EA0B0153465A46084313D0114653EAE8
:1006E000010019D0C8F14002504600F03FF805461D
:1006F0000E46504659464246FFF771FF084305D063
:10070000012004E020463946BDE8F08D0020054375
:1007100046EAE0762C4337430A986305E40AA0EBE7
:1007200008000022FD0A44EA47540A3002D500209E
:100730000146E9E7010510196941DDE9084500199D
:100740006941BDE8F04DA2E7064C074D06E0E068C0
:1007500040F0010394E8070098471034AC42F6D308
:10076000FFF7D4FCEC4000080C410008202A04DB11
:10077000203A21FA02F00021704721FA02F3D0401A
:10078000C2F12002914008431946704710B540F26B
:10079000096002F0A7FF052002F0EEFE012211021F
:1007A000174802F06CF94FF4E0420221144802F0BD
:1007B000F4F80021124802F0BDF8002002F042F9DE
:1007C000012202210E4802F092F806231022002195
:1007D0000B4802F0FAF801220221094802F0BEF8A3
:1007E00002F07AF9064802F0B0F8012000F01AFA97
:1007F000034802F067F80221014802F031F910BD08
:100800000024014001460248006880B270470000A1
:100810003C2401401CB504462B4903C9CDE9000125
:1008200020788DF8010000208DF802002078323801
:10083000072829D2DFE800F0222804090E28160034
:100840006078012102F098FB2EE06078002102F030
:1008500093FB29E0607810B100F06EFA01E000F03F
:1008600023FA21E0607820B10121202002F084FBEE
:1008700003E00021202002F07FFB15E0607802F009
:1008800057FA8DF802000FE0FF208DF8020000BF3C
:100890000E4B61220EA116A001F080FE21781DA052
:1008A00001F07CFE00BF00BF00BF0321684600F0DE
:1008B00087F88DF8030023A001F070FE042269463A
:1008C000012001F02BFE1CBD14400008044000086C
:1008D0007372635C756172745F636F6E6563745F7E
:1008E0006370755F68616E646C65722E63000000F2
:1008F0003C3C46696C653A257320204C696E653A2C
:100900002564202046756E6374696F6E3A25733EC8
:100910003E2000006572726F723A20637075207518
:100920006172742073656E6420756E6B6F776E20D4
:10093000636D64212120636D64203D202523780DA3
:100940000A0000002E78000010B501F003FC01F051
:1009500073FB4FF4A06002F005FE4FF4C06002F09C
:10096000C1FE0121144802F0A3FA002002F056F95A
:10097000012002F053F901F0DDFC01F0FDFD00F073
:10098000E1FE01F03BF802F065FCFFF7FFFE4620B8
:1009900002F088FB01F0C8FB02F02EFB012002F000
:1009A000D1FA00F09BFE01F0DFFD002002F0CAFA50
:1009B000032001F0E5FB10BD0002300000BFFEE7A0
:1009C00010B502460B460021002004E0545C0444AC
:1009D000E0B24C1CE1B29942F8DB10BD10B5034AFD
:1009E0000349044800F0CCF810BD000015080008C9
:1009F0006C0000201300002010B543210148FFF7D0
:100A0000B6FB10BD6C00002010B5044803F0DEF901
:100A1000C4B22146024801F0DCFB10BD0044004096
:100A20006C00002010B50446A4F13000072805D260
:100A3000DFE800F0090F233738393E0021461EA0B9
:100A400001F0ACFD00BF2648016826A001F0A6FD1C
:100A50002FE02648007864280BDA244800780A3012
:100A600040B201F011FB2148017821A001F096FD70
:100A700002E026A001F092FD1BE01C4800780A2845
:100A80000BDB1A4909780A3948B201F0FDFA174818
:100A9000017823A001F082FD02E028A001F07EFD94
:100AA00007E006E005E029A129A001F077FD00E0BC
:100AB00000BF00BF10BD00004552524F523A2043C4
:100AC0006F6D6D616E6420556E6B6E6F7720636D18
:100AD00064203D20307825782121210D0A00000076
:100AE0000000002025730D0A0000000022000020F5
:100AF000675F6C63645F70776D203D2025642069BB
:100B00006E637265617365200D0A0000675F6C6338
:100B1000645F70776D203D203130300D0A00000099
:100B2000675F6C63645F70776D203D20256420648F
:100B300065637265617365200D0A0000675F6C6311
:100B4000645F70776D203D20300D0A006F6666008F
:100B5000576174636820446F6720537461747573C0
:100B6000203D2025730D0A0010B5044803F02EF92E
:100B7000C4B22046FFF756FF10BD00000038014008
:100B80002DE9F04704460E4617464FF0000A46E0AE
:100B9000304601F03FFB00F0FF08207A404501DDC0
:100BA000BDE8F08794F80880207AC0F1040000F0D6
:100BB000FF0A002507E0601900EB0A01304601F04A
:100BC000F0FA681CC5B24545F5DB2078A52807D1A9
:100BD0000421204601F0B3FC10B9601CB8471EE0A8
:100BE000012505E0605DA52800D103E0681CC5B2C1
:100BF000042DF7DB00BF042D0FD025724FF0000944
:100C000008E0605D04F80900681CC5B209F1010044
:100C100000F0FF09042D02DAF3E704202072B7E7A1
:100C2000704700000349086000BF024909680029B5
:100C3000FBD1704708000020F0B5034600224FF0BA
:100C4000E0277D69104F3F68DFF840C0B7FBFCF735
:100C5000FEB203FB06F44FF0E027B96910E04FF055
:100C6000E027B86988420BD0884202D20F1A3A4472
:100C700002E02F1A0F443A440146A24200D300E09A
:100C8000EDE700BFF0BD00006400002040420F000F
:100C90000448006820B103480068401E014908600C
:100CA000704700000800002010B50B4802880221A0
:100CB0000A4802F068FF6420FFF7B4FF074802F01B
:100CC000AAFF00F01FF800BF05A001F067FC08A014
:100CD00001F064FC00BF10BD20000020002C01408A
:100CE0003C3C4D595F44454255473E3E2000000084
:100CF00044697361626C655F4C63644C69676874D6
:100D00000D0A000010B501F0ABF94FF48041024824
:100D100002F01CF810BD0000000C014010B54FF4AB
:100D2000805001F05FFF28B14FF4805001F054FF74
:100D300001F0DCFE10BD704710B500F037F86420FC
:100D4000FFF770FF0E49097809B9462101E00C4907
:100D5000097848B201F098F96420FFF763FF094869
:100D600002F05EFF6420FFF75DFF00F01FF800BF98
:100D700005A001F013FC08A001F010FC00BF10BD9D
:100D800022000020002C01403C3C4D595F4445426C
:100D900055473E3E20000000456E61626C655F4C29
:100DA00063644C696768740D0A00000010B501F0B7
:100DB00061F94FF48041024801F0CAFF10BD000004
:100DC000000C01402DE9F04F89B01020FFF71AFD0B
:100DD00008900898FFF790FB80464FF06632194B59
:100DE000FFF7A9FA06460022174BFFF716FB174A32
:100DF000174BCDE90001FFF79BFA0022154BCDE917
:100E00000201FFF798FA4FF03332134BCDE904019A
:100E1000FFF703FB04460022104BFFF7E5F982467B
:100E2000FFF790FB06900E490698FFF7ABF90446D2
:100E30000690FFF76EFB00B20790079809B0BDE877
:100E4000F08F000066660A400000B040E17A14AE00
:100E500047E1F63F00408F4033331140000024400B
:100E60000000C84238B504460020009001226946BF
:100E7000204600F007F810B19DF8000038BD0020B2
:100E8000FCE70000F8B504460D4616462B46224600
:100E9000064800960178002000F0E4F908B9012026
:100EA00000E0002007463846F8BD00003A00002068
:100EB00033B581B00446012002AB224600900648BB
:100EC0000178002000F02CFA08B9012000E0002091
:100ED000054628463EBD00003A00002000BFFEE760
:100EE00010B504460021204600F0E2FA204601F049
:100EF000CDF90021204600F007FB0420FFF79CFEFF
:100F00000121204600F0D4FA0620FFF795FE0021CB
:100F1000204600F0CDFA0320FFF78EFE10BD000042
:100F200070B5054640F2036002F0DCFB012D02D1F2
:100F30004FF4406405E0022D02D14FF4407400E00C
:100F4000C024234602221021054801F04FFF012151
:100F5000284600F0ADFA0121284600F0D5FA70BD10
:100F6000000C014010B504460021204600F0A0FA14
:100F7000204601F08BF90121204600F0C5FA04203B
:100F8000FFF75AFE0121204600F092FA0620FFF7F3
:100F900053FE0021204600F08BFA0320FFF74CFEA1
:100FA00010BD2DE9F04107460D46002400213846CA
:100FB00000F07EFA384601F04BF90320FFF73CFEC3
:100FC00000261EE00021384600F072FA0520FFF7E7
:100FD00033FE0121384600F06BFA6006040E04204F
:100FE000FFF72AFE384601F019F908B1601CC4B2B7
:100FF0000420FFF721FE0021384600F059FA701C4A
:10100000C6B2082EDEDB1DB93846FFF7ABFF02E0A3
:101010003846FFF765FF2046BDE8F08170B506460B
:101020000C460021304600F043FA304601F02EF91C
:1010300000251CE00320FFF7FFFD04F0800130468F
:1010400000F062FA6006040E0420FFF7F5FD0121AE
:10105000304600F02DFA0620FFF7EEFD0021304665
:1010600000F026FA0320FFF7E7FD681CC5B2082D43
:10107000E0DB70BD10B50446204601F007F9012100
:10108000204600F041FA0121204600F011FA062026
:10109000FFF7D2FD0021204600F036FA0620FFF7C8
:1010A000CBFD0021204600F003FA10BD10B5044628
:1010B0000021204600F0FCF9204601F0E7F800216D
:1010C000204600F021FA0620FFF7B6FD0121204658
:1010D00000F0EEF90320FFF7AFFD0121204600F0FC
:1010E00013FA0620FFF7A8FD10BD70B505460024D1
:1010F0000021284600F0DCF90320FFF79DFD0121C7
:10110000284600F001FA0320FFF796FD284601F07B
:101110009FF80121284600F0CBF90320FFF78CFD52
:101120000BE0601CC4B2FA2C04DD2846FFF7BEFFBA
:10113000012070BD0120FFF77FFD284601F06EF809
:101140000028EED10021284600F0B2F90320FFF775
:1011500073FD0020EDE7000010B504460120A0401B
:1011600008490978084000B110BD2046FFF7D8FEB5
:101170000120A0400349097808430249087000BFD4
:10118000F2E700001C0000202DE9F04107468846E8
:1011900015461E463846FFF76DFF48F001013846F8
:1011A000FFF73CFF3846FFF7A0FF00280ED000BF36
:1011B000134B2E2213A117A001F0F0F939461EA0FF
:1011C00001F0ECF900BF0220BDE8F08100240FE03F
:1011D000701EA04205D100213846FFF7E2FE2855D7
:1011E00004E001213846FFF7DCFE2855601CC4B23C
:1011F000B442EDDB3846FFF759FF0020E4E700007A
:101200001C4000087372635C6969635F6170702ED3
:10121000630000003C3C46696C653A257320204C15
:10122000696E653A2564202046756E6374696F6E39
:101230003A25733E3E2000004552524F523A4949EA
:10124000435F576169745F41636B28696E646578B9
:1012500029213D203020696E646578203D20256479
:101260000D0A00002DE9F84305460F4690461E463C
:10127000DDF820900020034642463946009028467B
:1012800000F04EF80446FF2C07D14B463246394653
:101290002846FFF779FFBDE8F88300BF064B9E2282
:1012A00006A10AA001F07AF92A46214610A001F011
:1012B00075F900BF2046EEE7444000087372635C96
:1012C0006969635F6170702E630000003C3C466991
:1012D0006C653A257320204C696E653A25642020A0
:1012E00046756E6374696F6E3A25733E3E2000004A
:1012F0004552524F523A204969634170705F5772AC
:101300006974655F427974657320726574203D204D
:10131000256420696E646578203D2025640D0A00EF
:101320002DE9F04705460E4617469846DDF8209011
:101330002846FFF79FFE06F0FE012846FFF76EFEE7
:101340002846FFF7D2FE90B100BF2C4B5D222CA1A6
:101350002FA001F023F92A463146364801F01EF944
:1013600000BF2846FFF7A2FE0220BDE8F0873946FD
:101370002846FFF753FE2846FFF7B7FE002810D097
:1013800000BF1E4B67221EA121A001F007F92946CC
:1013900029A001F003F900BF2846FFF787FE0320CC
:1013A000E3E7B9F1000F01D1FF20DEE700241DE0E3
:1013B00018F804102846FFF731FE2846FFF795FE7F
:1013C000002811D000BF0D4B7A220DA110A001F012
:1013D000E5F82A46214627A001F0E0F800BF28469C
:1013E000FFF764FE0420C0E7601CC4B24C45DFDB9D
:1013F0002846FFF75BFE0020B7E7000031400008F9
:101400007372635C6969635F6170702E63000000D2
:101410003C3C46696C653A257320204C696E653A00
:101420002564202046756E6374696F6E3A25733E9D
:101430003E200000A04000084552524F523A20730F
:10144000656E6420776F72645F61646472204949DD
:10145000435F576169745F41636B28696E646578A7
:1014600029213D203020696E646578203D20256467
:101470000D0A00004552524F523A2073656E6420A7
:1014800064617461204949435F576169745F4163D6
:101490006B28696E64657829213D203020693D25DF
:1014A0006420696E646578203D2025640D0A000083
:1014B00070B505460C46012D0BD124B181021148AF
:1014C00001F046FC1DE04FF480610E4801F03EFC47
:1014D00017E0022D0BD124B1E9010A4801F038FCD4
:1014E0000FE04FF48071074801F030FC09E024B1AF
:1014F0004021044801F02CFC03E04021014801F0A8
:1015000025FC70BD000C014070B505460C46012D50
:101510000BD124B1C102114801F01AFC1DE04FF4B7
:1015200000610E4801F012FC17E0022D0BD124B12E
:1015300029020A4801F00CFC0FE04FF40071074843
:1015400001F004FC09E024B18021044801F000FC12
:1015500003E08021014801F0F9FB70BD000C01405F
:1015600010B5FFF72FFC094908800221084801F057
:1015700077FA00BF07A001F011F80448B0F9001095
:1015800008A001F00BF800BF10BD000062000020B1
:10159000002401403C3C4D595F44454255473E3E86
:1015A00020000000675F696E745F74656D70203D98
:1015B0002025640D0A00000010B58121FF20FFF7EF
:1015C00077FC0020FFF74EFC044621460BA000F0FC
:1015D000E5FF0120FFF746FC044621460DA000F080
:1015E000DDFF0220FFF73EFC0446214609A000F083
:1015F000D5FF0AA000F0D2FF10BD00000D0A4C5428
:101600003932313120436869702049443A25782CB9
:101610000000000025782C20000000000D0A0000CA
:1016200010B58621FF20FFF743FC01210020FFF7C2
:101630003FFC4FF49670FFF7F5FA00240820FFF7FF
:1016400011FC00F00F0424020920FFF70BFC0444F6
:1016500024020A20FFF706FC0444214611A000F0F2
:101660009DFF8621FF20FFF723FC0A210020FFF7C2
:101670001FFC4FF49670FFF7D5FA00240820FFF7FF
:10168000F1FB00F00F0424020920FFF7EBFB0444F8
:1016900024020A20FFF7E6FB0444214608A000F0DC
:1016A0007DFF10BD0D0A6D69706920696E707574DB
:1016B000206279746520636C6F636B3A2025750036
:1016C0000D0A646573736320706978656C20636CC0
:1016D0006F636B3A2025750A0000000010B500F01A
:1016E00001F810BD10B511A000F058FFFFF764FF1E
:1016F00000F0DEF900F02EF900F00EF900F00AFA21
:1017000000F06EF900F034F80A20FFF78BFA00F0D1
:1017100011FB00F0C1FA00F073FA01F03DFD01F099
:1017200031FDFFF77DFF00F099FB10BD0D0A204C45
:1017300054393231315F6D69706920746F205454AF
:101740004C00000010B50020FFF706FD40F20660D7
:1017500001F0C8FF02231A461021044801F046FB9D
:101760000221024801F0F2FA10BD00000018014009
:1017700070B5D021FF20FFF79BFB60210C20FFF705
:1017800097FB60211C20FFF793FB70212420FFF7BB
:101790008FFB30212D20FFF78BFB0A213120FFF733
:1017A00087FBF0212520FFF783FB30212A20FFF75C
:1017B0007FFB4F212120FFF77BFB00212220FFF739
:1017C00077FB01211E20FFF773FB80212320FFF709
:1017D0006FFB02210A20FFF76BFB02213820FFF785
:1017E00067FB04213920FFF763FB08213A20FFF74C
:1017F0005FFB10213B20FFF75BFB04213F20FFF73D
:1018000057FB08214020FFF753FB10214120FFF731
:101810004FFB20214220FFF74BFBA0212B20FFF79D
:1018200047FBD021FF20FFF743FB2620FFF71AFBE1
:10183000054605F07F0529462620FFF739FB0F21D5
:101840002720FFF735FB8121FF20FFF731FBBF2168
:101850002020FFF72DFBFF212020FFF729FB05208B
:10186000FFF7E0F96F210B20FFF722FBFF210B2090
:10187000FFF71EFB4FF44870FFF7D4F9002415E082
:10188000C820FFF7CFF9D021FF20FFF711FB8720F9
:10189000FFF7E8FA00F0080018B10DA000F07EFE96
:1018A00006E010A000F07AFE601CC4B20A2CE7DB50
:1018B00000BFD021FF20FFF7FBFA9420FFF7D2FAF8
:1018C00000F07F0631460EA000F068FE70BD0000FB
:1018D0000D0A4C54393231312070637220737461B7
:1018E000626C65000D0A4C543932313120706372DC
:1018F00020756E737461626C6521212121000000E6
:101900004C5439323131207063725F737461626C90
:10191000655F4D3D25780A0010B58621FF20FFF751
:10192000C7FA85213020FFF7C3FAD821FF20FFF73F
:10193000BFFA00211620FFF7BBFAD021FF20FFF7E6
:10194000B7FA12214320FFF7B3FA05210220FFF76F
:10195000AFFA10BD10B5D021FF20FFF7A9FA002182
:101960000846FFF7A5FA8221FF20FFF7A1FA4421DC
:101970000220FFF79DFA36210520FFF799FA26216C
:101980000D20FFF795FA0C211720FFF791FA0C2193
:101990001D20FFF78DFA81210A20FFF789FA002127
:1019A0000B20FFF785FA9F210720FFF781FAFC2122
:1019B0000820FFF77DFA01210920FFF779FA0121BC
:1019C0001120FFF775FA8621FF20FFF771FA1B211E
:1019D0003320FFF76DFA1B213420FFF769FA10BDA1
:1019E00010B58221FF20FFF763FA48212D20FFF771
:1019F0005FFA82213520FFF75BFA10BD10B5022196
:101A0000064801F0A3F96420FFF70CF9022103480E
:101A100001F09EF96420FFF705F910BD00180140A0
:101A200010B504466420FFF7FDF8D021FF20FFF732
:101A30003FFA608A01120D20FFF73AFAA17C0E20CE
:101A4000FFF736FA208A01120F20FFF731FA217CC6
:101A50001020FFF72DFA217B1520FFF729FA608966
:101A600001121720FFF724FAA17A1820FFF720FAB5
:101A7000208901121120FFF71BFA217A1220FFF7AB
:101A800017FAE08801121320FFF712FAA179142047
:101A9000FFF70EFAA1781620FFF70AFA2088011244
:101AA0001920FFF705FA21781A20FFF701FA10BD77
:101AB00010B58221FF20FFF7FBF918210120FFF765
:101AC000F7F98621FF20FFF7F3F961210620FFF7E0
:101AD000EFF9A8210720FFF7EBF98721FF20FFF797
:101AE000E7F908211420FFF7E3F900211520FFF79B
:101AF000DFF90F211820FFF7DBF908212220FFF77B
:101B0000D7F900212320FFF7D3F90F212620FFF773
:101B1000CFF910BD2DE9F04100274FF4FA70FFF71F
:101B200081F8D021FF20FFF7C3F98320FFF79AF94E
:101B300080468220FFF796F908EB002084B203204C
:101B400094FBF0F084B28420FFF78CF900F00F06CC
:101B50008620FFF787F980468520FFF783F908EB99
:101B6000002085B29C20FFF77DF9074621460EA094
:101B700000F014FD294610A000F010FD314612A01F
:101B800000F00CFD394614A000F008FD6420FFF7BA
:101B900049F80120144908701448FFF741FF14A0C8
:101BA00000F0FCFCBDE8F0810D0A68616374203D23
:101BB0002025750A0D0000000D0A76616374203D32
:101BC0002025750A0D0000000D0A666D74203D2069
:101BD00025780A0D000000000D0A70615F6C706EC0
:101BE000203D2025780D0A00380000203C00002010
:101BF00031303234783630305F3630487A0D0A0072
:101C000010B51EA000F0CAFC8521FF20FFF750F997
:101C100040215920FFF74CF9AA215A20FFF748F933
:101C2000AA215B20FFF744F900215C20FFF740F96F
:101C300050218820FFF73CF97721A120FFF738F9E0
:101C40008621FF20FFF734F940210846FFF730F9DD
:101C500034214120FFF72CF910214220FFF728F909
:101C600023214320FFF724F941214420FFF720F9E5
:101C700002214520FFF71CF910BD00000D4C54391E
:101C80003231312073657420746F204F5554505594
:101C9000545F4C564453000010B58221FF20FFF7DB
:101CA00007F900216220FFF703F908213B20FFF725
:101CB000FFF892213E20FFF7FBF848213F20FFF775
:101CC000F7F831214020FFF7F3F880214320FFF798
:101CD000EFF800214420FFF7EBF800214520FFF743
:101CE000E7F800214920FFF7E3F801214A20FFF738
:101CF000DFF800214E20FFF7DBF800214F20FFF72F
:101D0000D7F800215020FFF7D3F800215320FFF728
:101D1000CFF801215420FFF7CBF88121FF20FFF7F6
:101D2000C7F879212020FFF7C3F8FF212020FFF713
:101D3000BFF810BD10B58221FF20FFF7B9F80121CF
:101D40003620FFF7B5F829213720FFF7B1F8062133
:101D50003820FFF7ADF830213920FFF7A9F88E21A0
:101D60003A20FFF7A5F88121FF20FFF7A1F8F7211E
:101D70002020FFF79DF8FF212020FFF799F8872109
:101D8000FF20FFF795F814213720FFF791F8002185
:101D90001320FFF78DF880211320FFF789F86420C6
:101DA000FEF740FF00241FE08721FF20FFF780F8A7
:101DB0001F20FFF757F800F0800080B12020FFF7C8
:101DC00051F800F0800018B10BA000F0E7FB02E032
:101DD0000FA000F0E3FB15A000F0E0FB06E00CA074
:101DE00000F0DCFB601CC4B20A2CDDDB00BF16A0D7
:101DF00000F0D4FB10BD00000D0A4C5439323131D3
:101E000020747820706C6C206C6F636B0000000095
:101E10000D0A4C543932313120747820706C6C20AA
:101E2000756E6C6F636B6564000000000D0A4C54A6
:101E30003932313120747820706C6C2063616C20F1
:101E4000646F6E65000000000D0A2073797374657D
:101E50006D20737563636573730000001CB5862184
:101E6000FF20FFF725F87020FEF7FCFF04467120E5
:101E7000FEF7F8FF484908807220FEF7F3FF474954
:101E800008807320FEF7EEFF4449097800EB01203B
:101E9000424908807420FEF7E5FF4149088075201B
:101EA000FEF7E0FF3F4908807620FEF7DBFF3E4962
:101EB00008807720FEF7D6FF3B49097800EB012028
:101EC000394908807820FEF7CDFF3849088079200D
:101ED000FEF7C8FF3549097800EB01203349088037
:101EE0007A20FEF7BFFF324908807B20FEF7BAFF59
:101EF0002F49097800EB01202D4908807C20FEF74E
:101F0000B1FF2C4908807D20FEF7ACFF29490978F4
:101F100000EB0120274908807E20FEF7A3FF264919
:101F200008807F20FEF79EFF2349097800EB0120FF
:101F3000214908808020FEF795FF204908808120F4
:101F4000FEF790FF1D49097800EB01201B4908802E
:101F500021461BA000F022FB16480088174909887B
:101F6000CDE90010104803880C4802880F4801880A
:101F700019A000F013FB0E4800880F490988CDE92D
:101F800000100748038804480288064801881EA0FC
:101F900000F004FB1CBD00002A00002028000020E7
:101FA0002E000020360000202C00002034000020ED
:101FB00032000020300000202600002024000020F5
:101FC0000D0A73796E635F706F6C6172697479204A
:101FD0003D202578000000000D0A6866702C2068FE
:101FE000732C206862702C20686163742C206874E4
:101FF0006F74616C203D2025752025752025752086
:1020000025752025750D0A000D0A7666702C207640
:10201000732C207662702C20766163742C20767489
:102020006F74616C203D2025752025752025752055
:1020300025752025750D0A0010B540F2066001F0E7
:1020400051FB4FF4004302221021044800F0CEFE61
:102050004FF40041014800F079FE10BD0018014026
:1020600010B54FF40041024800F070FE10BD0000B2
:102070000018014010B54FF40041024800F068FE1E
:1020800010BD00000018014070B50446642C01DD4D
:10209000642402E0002C00DA00240D490C7000BF1B
:1020A0000CA000F07BFA0A4801780EA000F076FA46
:1020B00000BFC4F16400124909884843642190FBC1
:1020C000F1F52A4602210F4801F05DFD70BD0000C8
:1020D000220000203C3C4D595F44454255473E3E5E
:1020E000200000004C63645F70776D5F6F75742033
:1020F000675F6C63645F70776D203D2025640A0024
:1021000020000020002C014010B51021014800F0F3
:102110001FFE10BD000C014010B51021014800F059
:1021200015FE10BD000C014010B540F2036001F037
:10213000D9FA102302221946034800F057FE102155
:10214000014800F003FE10BD000C014000BFFEE797
:102150007047000010B540F2046001F0C3FA0F238D
:1021600002221021054800F041FE0421034800F03E
:10217000EDFD0B21014800F0EBFD10BD001001400A
:1021800010B50446002C08DD052C06DA601E01227D
:1021900002FA00F1014800F0DBFD10BD0010014023
:1021A00070470246907810B94FF0FF3070471378AF
:1021B000D01CC05C08701378581CC31700EB9363E5
:1021C0009B11A0EB831313709078401E9070002039
:1021D000ECE70246907840280BD11378581CC317BF
:1021E00000EB93639B11A0EB831313709078401E58
:1021F00090705378D01CC1545378581CC31700EB0F
:1022000093639B11A0EB831353709078401C9070E4
:1022100000207047014688787047000010B50446DA
:10222000012C04D1C102084800F036FE10BD022C7A
:1022300004D12102044800F02FFEF7E78021024874
:1022400000F02AFEF2E70000000C01407047000099
:1022500010B50446012C06D1C302022248210A48C7
:1022600000F0C4FD0EE0022C06D123020222482118
:10227000054800F0BBFD05E080230222482102480A
:1022800000F0B4FD10BD0000000C014010B5044684
:10229000012C06D1C302022210210A4800F0A6FD3B
:1022A0000EE0022C06D1230202221021054800F084
:1022B0009DFD05E0802302221021024800F096FDDA
:1022C00010BD0000000C014010B500F05BF810BD1F
:1022D00010B51448006840F0010012490860084633
:1022E0004068114908400F494860084600680F4996
:1022F00008400C4908600846006820F48020086007
:10230000084640680A49084006494860084600688F
:1023100006490840034908604FF41F00886001F037
:102320009DFA10BD001002400C00FFE8FFFFF6FE12
:10233000FFFF00F710B5124800684FF47A71B0FB48
:10234000F1F4601EB0F1807F01D301200FE0601E28
:102350004FF0E02148610F214FF0FF3000F02EF9DF
:1023600000204FF0E021886107200861002008B1BB
:1023700000BFFEE70021481E00F020F910BD00005C
:102380006400002000B51B480068401C1949086023
:10239000FEF77EFC174800681421B0FBF1F201FB48
:1023A0001200022805D11448008840F002001249AA
:1023B0000880104800684FF47A71B0FBF1F201FB1D
:1023C00012000A2805D10C48008840F400400A4950
:1023D0000880084800684FF47A71B0FBF1F201FB05
:1023E0001200E92805D10448008840F0080002499D
:1023F000088000BD0C0000200400002010B5094931
:10240000087800EBD0714910A0EB410111B1FFF742
:1024100083FE01E0FFF778FE02480078401C014986
:10242000087010BD1E00002010B50B490B4801F0CC
:102430006AFD30B1FEF798FB0749084801F056FDE8
:1024400008E00749054801F05EFD18B1044903485A
:1024500001F04CFD10BD00000503050000380140EF
:102460000403040010B51749174801F04CFD88B16A
:10247000FEF7CAFA1349144801F038FD13480078F2
:10248000F0B94FF44171104801F023FD01200F49CC
:10249000087015E00E490C4801F035FD80B1FEF7DB
:1024A0009DFA0B49084801F021FD0848007838B131
:1024B0004FF44171044801F0FFFC0020034908700B
:1024C00010BD000005030500004400401D00002071
:1024D000040304007CB504460D460E4903C9CDE94A
:1024E0000001012C00DD7CBD0120A0400A490978D3
:1024F000084060B100BF5DF82400072101F0BDFC79
:102500000028F8D05DF82400294601F064FC00BFE3
:10251000E9E70000FC3F0008120000202DE9F0412F
:1025200007460D461646002405E0295D3846FFF7AC
:10253000D1FF601CC4B2B442F7DBBDE8F081F0B556
:1025400004460D464FF0FF370CB93846F0BD681E03
:10255000265CC1B22046FEF733FAB04200D1002714
:102560003846F3E700BFFEE710B58021014800F0D0
:10257000EFFB10BD0014014010B540F2056001F002
:10258000B1F8802302221021034800F02FFC8021A3
:10259000014800F0DBFB10BD001401400FB4054BF7
:1025A00010B503A9044A029800F02CF810BC5DF89D
:1025B00014FB0000092C00086800002010B500285A
:1025C00004DB0A07130E054A135406E00A07140E2B
:1025D000034A00F00F031B1FD45410BD00E400E0B9
:1025E00018ED00E002E008C8121F08C1002AFAD165
:1025F00070477047002001E001C1121F002AFBD183
:10260000704700002DE9FF4F8DB09B460F460446F2
:10261000002606E025280BD05A460F999047641CE7
:10262000761C20780028F5D111B03046BDE8F08F37
:102630000025A8460122984900E0054314F8013F0F
:10264000203B02FA03F00842F7D120782E2817D158
:1026500014F8010F45F004052A280ED06FF02F0260
:102660002078A0F1300109290AD808EB880102EB93
:10267000410100EB0108641CF2E757F8048B641C6D
:1026800020786C280DD004DC4C2812D06A2811D197
:1026900004E074280DD07A280CD10AE045F4001526
:1026A00007E0617845F48015814202D1641C05F58C
:1026B0008015641C2278692A45D008DC002AB3D032
:1026C000582A69D0632A10D0642A08D13BE0702AC6
:1026D00067D0732A13D0752A5CD0782A5CD0104654
:1026E0005A460F999047761CD3E017F8040B8DF8E3
:1026F000000000208DF80100E946012003E057F8B2
:10270000049B4FF0FF3069074FF0000501D40AE049
:102710006D1C45450DDA8542FADB19F805100029D4
:10272000F6D106E06D1C8542FCDB19F80510002986
:10273000F8D12E4404E019F8010B5A460F9990473E
:102740006D1EF8D2A5E00A200021CDE90801C5F3ED
:10275000025002280DD001CFC117031E71F10003F2
:102760000DDA4FF0000CD0EB0C006CEB01012D23C7
:1027700008E0FF1D27F00707F7E80201EDE72B054A
:1027800004D52B238DF8283001233BE0EB0739D00B
:102790002023F7E70A2000E010200021CDE90801FE
:1027A00007E01020002145F00405CDE908014FF0B5
:1027B0000808C5F3025002280FD001CF00214FF0C6
:1027C000000A2B071FD5702A0DD0DDE908C38CF055
:1027D000100C5CEA030C0CD015E0FF1D27F0070776
:1027E000F7E80201EBE740228DF828204FF0010ABC
:1027F0000BE050EA010306D030238DF828308DF825
:10280000292002239A46582A04D024A20DF1200937
:102810000B9209E026A2F9E7DDE90823FDF7AEFEF9
:102820000B9B9B5C09F8013D50EA0102F4D1ADEB32
:10283000090020300890680701D44FF0010808997A
:10284000884502DDA8EB010000E00020804600255D
:1028500006E00AA85A46405D0F9990476D1C761C09
:102860005545F6DB04E030205A460F999047761C18
:10287000B8F10001A8F10108F5DC05E019F8010B39
:102880005A460F999047761C0899481E08900029CF
:10289000F4DC641CC5E60000092801003031323345
:1028A000343536373839616263646566000000008C
:1028B0003031323334353637383941424344454676
:1028C00000000000816841F00801816000BF81685C
:1028D00001F008010029FAD1816841F0040181600A
:1028E00000BF816801F004010029FAD1704730B5BA
:1028F000012902D002291AD10CE0C36A23F4700323
:10290000C362C36A541E4FF4700505EA045423439E
:10291000C3620DE0836B23F440138363836B541E07
:102920004FF4401505EA04542343836300E000BFDD
:1029300000BF30BD21B1826842F40062826003E0D2
:10294000826822F4006282607047816801F00101B0
:1029500019B9816841F001018160704772B101F0DD
:1029600001031BB1836843F48013836001F0020309
:1029700093B1836843F4004383600DE001F00103E9
:102980001BB1836823F48013836001F002031BB141
:10299000836823F4004383607047012902D0022931
:1029A00010D107E0836823F46023836083681343B6
:1029B000836008E0836823F4E04383608368134303
:1029C000836000E000BF00BF7047F0B50C46876B26
:1029D000C7F30156856B371B07EB8707C7F10F0C51
:1029E0001F2707FA0CF7BD43371B07EB8707C7F113
:1029F0000F0702FA07F73D4385630A2A0DDA0169DA
:102A000002EB420C072707FA0CF7B94302EB420727
:102A100003FA07F73943016112E0122A10DAC1689C
:102A2000A2F10A0707EB470C072707FA0CF7B9438F
:102A3000A2F10A0707EB470703FA07F73943C1601A
:102A4000F0BD00000549096821F47021034A1160B6
:102A500011460968014311607047000004240140D9
:102A600001F001021AB1826842F48002826001F032
:102A700002021AB1826842F4001282607047AAB161
:102A800001F480731BB1436843F48073436001F425
:102A900080631BB1436843F48063436001F0020329
:102AA000CBB1836843F00203836014E001F48073C8
:102AB0001BB1436823F48073436001F480631BB14E
:102AC000436823F48063436001F002031BB1836811
:102AD00023F00203836070470348006840F400005D
:102AE00001490860704700000824014010B501202A
:102AF00002490870000300F05FF810BD5500002087
:102B000010B52C4B1B6883432A4C2360231D1B6884
:102B10008343241D2360231D1B688343241D2360DE
:102B2000231D1B688343241D236011B101290ED18D
:102B300005E0204B1B6803431E4C236008E01D4B3F
:102B40001B1D1B6803431B4C241D236000E000BFBA
:102B500000BF22B1012A0FD0022A27D119E0154B5C
:102B600008331B680343134C08342360231D1B6880
:102B70008343241D23601AE00E4B08331B688343F4
:102B80000C4C08342360231D1B680343241D236061
:102B90000DE0084B08331B680343064C08342360E0
:102BA000231D1B680343241D236000E000BF00BFFA
:102BB00010BD000000040140024909688143014A38
:102BC0001160704700040140024909680143014A4D
:102BD000116070470004014001490860704700001F
:102BE0001404014001460748006800EA0102054854
:102BF0001438006800EA010312B10BB101207047DC
:102C00000020FCE71404014070B504460D46E1B213
:102C10000020FFF75FFC204670BD000070B5044641
:102C2000394D012C00D1394D0120A0403849097897
:102C3000084000B170BD374931F8140000F052FD72
:102C4000354931F8140000F04DFD344951F8243075
:102C5000334951F824000222182100F0C7F8314905
:102C600051F824302E4951F824000222042100F0AA
:102C7000BDF8284601F0B4F84FF4E131284601F0E0
:102C80005DF80021284601F07AF90021284601F07C
:102C900066F90021284601F052F90021284601F08A
:102CA00003F90021284601F0F7F80421284601F035
:102CB0004EF90821284601F05AF9284601F0D8F8C3
:102CC00040F20531284601F004F9012C06D14FF4F9
:102CD0004171284601F0FDF8FDF78EFE124B1B5D99
:102CE00003F00302104B1B5D9910104B13F82400E6
:102CF00000F0E2FB0120A04005490978084304499F
:102D0000087000BF96E70000003801400044004012
:102D100012000020EC3F0008D03F0008D43F00081C
:102D2000E43F0008DC3F0008F83F0008F03F0008DF
:102D300001461F2901DDFF20704703480068C84095
:102D400000F00100F8E700005C00002041617047DE
:102D50000161704710B500228B071C0F0F2303FA87
:102D600004F204290EDA204B9B6893431E4CA360A7
:102D700023469B688C07240F00FA04F423431A4C63
:102D8000A3602FE008290EDA174BDB689343164C3B
:102D9000E3602346DB688C07240F00FA04F4234326
:102DA000114CE3601EE00C290EDA0F4B1B699343B4
:102DB0000D4C236123461B698C07240F00FA04F491
:102DC0002343094C23610DE0074B5B699343064C99
:102DD000636123465B698C07240F00FA04F42343E4
:102DE000014C636110BD000000000140F0B50446D5
:102DF00016460025002201F00F0501F0100707B16B
:102E0000354300201EE0012787401F40C7B12268DC
:102E10004FEA800C0F2707FA0CF7BA43870005FA30
:102E200007F73A43282904D1012787401F406761EB
:102E300005E0482903D1012787401F402761226010
:102E4000471CB8B20828DED3082022E001278740BB
:102E50001F40E7B16268A0F108074FEA870C0F270F
:102E600007FA0CF7BA43A0F10807BF0005FA07F705
:102E70003A43282904D1012787401F40676105E0B4
:102E8000482903D1012787401F4027616260471C02
:102E9000B8B21028DAD3F0BD02469068084008B1F5
:102EA000012070470020FCE70146C86880B27047E7
:102EB000F0B50A46002300240021002500F000465A
:102EC000B6F1004F02D11D4EF16901E01B4E716851
:102ED000C0F3034583B200F44016B6F5401F08D195
:102EE00021F07061154E766826F07066134F7E6093
:102EF00012E000F48016B6F5801F06D1032606FA0C
:102F000005F4A14341F0706106E0460D360103FA75
:102F100006F6B14341F0706122B1460D360103FA65
:102F200006F6314300F00046B6F1004F02D1034EE1
:102F3000F16101E0014E7160F0BD00000000014050
:102F4000C160704710B504462146202000F014F8F7
:102F500010BD000010B504462CB14FF48071054837
:102F6000FFF7F4FE04E04FF480710248FFF7F0FE33
:102F700010BD00000018014070B504460D46212C1C
:102F800003DA204600F06AF800E070BD0120FFF788
:102F9000E1FF9DB14FF480411548FFF7D9FE202C89
:102FA00004D14FF0FF301349086019E00120A04020
:102FB0001049096808430F49086011E04FF4804147
:102FC0000B48FFF7C3FE202C03D1002009490860FD
:102FD00006E00120A04007490968814305480160D7
:102FE0000120FDF71FFE0020FFF7B4FF00BFCCE774
:102FF000001401405C00002010B540F2056000F0B4
:1030000071FB4FF49043022210211248FFF7EEFEAD
:103010004FF490410F48FFF799FE40F2066000F030
:1030200061FB7C242346022210210B48FFF7DEFEC1
:1030300021460948FFF78AFE4FF44073022210210F
:103040000548FFF7D3FE4FF440710348FFF780FEB9
:1030500010BD0000001401400018014070B5044686
:103060000E48FFF721FF054625F07C0504F03E00E1
:1030700045EA400529460948FFF762FF04F00100D0
:1030800028B14FF400610648FFF762FE04E04FF4F8
:1030900000610348FFF75AFE70BD000000180140B0
:1030A0000014014030B587B0044640F2036000F0E0
:1030B00019FB4FF40043022218212C48FFF796FE1B
:1030C00040F20B6000F00EFB642C00DD6424284805
:1030D000047003A800F026FE26480088401E0590D4
:1030E000254800682549B0FBF1F0401E80B2ADF8DC
:1030F0000C0003A9224800F099FD684600F083FD0A
:103100000420ADF802006A4602211D4800F018FCB8
:10311000702202211A4800F009FDC4F1640015492B
:1031200009884843642190FBF1F52A46022114489E
:1031300000F029FD00220221114800F037FD012195
:103140000F4800F0E3FD0E4800F0F4FB4FF480431D
:10315000022210210548FFF749FE4FF48041034841
:10316000FFF7F4FDFDF7A0FD07B030BD000C0140F6
:1031700022000020200000206400002040420F00B8
:10318000002C014010B58221FF20FDF791FE38216F
:103190003B20FDF78DFE10BD10B58121FF20FDF70E
:1031A00087FEFB210D20FDF783FE0A20FDF73AFD87
:1031B000FF210D20FDF77CFE10BD000090B04022E5
:1031C00017496846FCF7BAFFFDF7BEFB15480168D2
:1031D00015A0FFF7E3F916A0FFF7E0F91EE00024C1
:1031E00015E00120A0401A490988084068B1012073
:1031F000A040174909888143154801805DF82400E3
:1032000018B15DF82400804707E0601CC4B2102CA0
:1032100003DA0F4800880028E3D100BFDFE7000091
:10322000903F00080000002025730D0A00000000F8
:10323000426F617264496E697420646F6E6521200B
:10324000323032322D30372D30310D0A000000007F
:103250000400002008B51CA000680090022000F0C7
:10326000E3F86A460021022000F0FBF800231A462A
:103270001946022000F006F940F2036000F032FA2D
:103280004FF4C06000F02EFA4FF480530222482120
:103290000E48FFF7ABFD0C210120FFF75BFD01227B
:1032A00000211003FFF72CFC4FF48050FFF78CFC3B
:1032B0004FF48050FFF790FC02220121282000F0FB
:1032C000FBF800F005F808BD00FF0000000C01400D
:1032D00008B56B4601220021022000F0ABF860B96E
:1032E0009DF8000000F03F003F2804D09DF800004A
:1032F00000F03F0008BD3F20FCE702A0FFF74EF9B9
:10330000FF20F7E74552524F523A204B45595F5242
:103310004F575F5343414E206E6361393535355FFA
:10332000726561645F696E706F72740D0A000000EF
:1033300070B5FF250026FFF7CBFF06463F2E43DA88
:1033400000243EE02948035D00221146022000F0DF
:1033500099F820B1214626A0FFF720F92FE0FFF7CA
:10336000B7FF06463F2E00DB29E03B2E10D006DCDF
:103370001F2E19D02F2E13D0372E19D10CE03D2E31
:1033800003D03E2E14D1254614E0A01DC5B211E095
:1033900004F10C00C5B20DE004F11200C5B209E061
:1033A00004F11800C5B205E004F11E00C5B201E049
:1033B000252504E000BF242D00DD04E000BF601CD3
:1033C000C4B2062CBEDB00BF00231A4619460220F9
:1033D00000F058F8242D05DD252D01D1252070BDE4
:1033E0000020FCE70F48405DF9E700005640000868
:1033F0004552524F523A204B45595F524F575F53F7
:1034000043414E206E6361393535355F777269749B
:10341000655F6F7574706F727420693D25640D0A65
:10342000000000005C40000810B504462046FDF78F
:1034300093FE10BDF8B506460D4614461F4605F02E
:103440000E0545F040050CB1012000E000200446C7
:103450000120E2B23B46294600903046FDF702FFCC
:10346000F8BDF8B506460C46154604F00E0444F0C7
:10347000400402202B460622214600903046FDF7EC
:103480004FFFF8BD7FB582B006460C46154604F0E6
:103490000E0444F040040DB1012000E00020054678
:1034A00001200090A81CC2B205AB21463046FDF7B2
:1034B00037FF06B070BD00002DE9F04103460D4610
:1034C000164600240027A0462448006800F4E06067
:1034D000B0F5A06F15D006DCB0F5407F18D0B0F580
:1034E000806F19D110E0B0F5C06F06D0B0F5E06F75
:1034F00012D100274FF0040815E001274FF0030810
:1035000011E00227B8460EE003274FF001080AE059
:1035100004274FF0000806E04FF4A06000F022F806
:103520000227B84600BF00BFC7F1040005FA00F447
:10353000C8F104010F20C84030400443240108486A
:10354000C45403F01F01012088405911890001F182
:10355000E021C1F80001BDE8F08100000CED00E0C1
:1035600000E400E002490143024A11607047000094
:103570000000FA050CED00E00F4A51680F4A1140B7
:10358000082814D2DFE800F004050607130A130B1D
:1035900000BF00BF00BF41EA803109E000BF20F05A
:1035A00004004FF0805242EA8032114300E000BF35
:1035B00000BF014A5160704700100240FF3FFFEF1B
:1035C0002DE9F04F8BB00746002009903EA090E80F
:1035D000004CC068CDE905BECDF810A007900FF2F1
:1035E000EC0ADAE9000ACDE9020A0FF2E00ADAE9A8
:1035F000000ACDE9000A38484068C0F381000A900B
:103600000A9820B1012804D0022829D103E03349C7
:1036100028E0324926E03048406800F48038B8F5A8
:10362000803F09D12D4C2C48406800F40039B9F591
:10363000003F02D1641000E0294C27484068C0F3E5
:1036400083422548406800F0006008B142F0100253
:103650000F2A01D2921C00E0521C04FB02F101E08F
:103660001E4900BF00BF1C484068C0F3031504A8F2
:10367000465D21FA06F318484068C0F3022502A807
:10368000465D23FA06FC14484068C0F3C2251DF8C5
:10369000056023FA06F0089037B1012F06D0022FFB
:1036A00006D0032F0AD106E0099108E0099306E04D
:1036B000CDF824C003E00898099000E000BF00BFE7
:1036C00009980BB0BDE8F08F00000000000000007A
:1036D00001020304060708090010024000127A00E4
:1036E00000093D00064A02EB9011096800F01F0333
:1036F00001229A401143024B03EB90121160704774
:1037000000100240064A02EB9011096800F01F0306
:1037100001229A409143024B03EB901211607047D3
:1037200000100240064A02EB9011096800F01F03E6
:1037300001229A401143024B03EB90121160704733
:10374000001002407CB505460C461148007800F098
:10375000020018B90FA0FEF721FF7CBDA5208DF84F
:1037600000008DF801508DF802409DF800009DF892
:10377000011008449DF802100844C0B28DF80300FF
:10378000042269460120FEF7C9FE00BFE5E70000FC
:10379000120000206572726F723A20544F435055E8
:1037A0005F434F4D206E6F7420696E69740A00008C
:1037B00000200021264A126842F00102244B1A60C0
:1037C00000BF401C224A126802F0020111B9B0F594
:1037D000A06FF6D11E4A126802F002020AB900BFB9
:1037E000FEE71B4A52681A4B5A601A4652685A60E2
:1037F0001A46526842F480625A601A465268154B63
:103800001A40134B5A601A465268134B1A43104B16
:103810005A601A46126842F080721A6000BF0C4A61
:10382000126802F00072002AF9D0094A526822F0A8
:103830000302074B5A601A46526842F002025A606D
:1038400000BF034A526802F00802002AF9D070470C
:1038500000100240FFFFC3F70000280810B5FFF773
:10386000A7FF10BD10B52248007800283ED0FFF712
:103870005FFD0446ECB1252C1BDA1E4800780028B9
:1038800034D11D480078401C1B4908700846007858
:1038900001282BDD1748047001210078FFF752FF43
:1038A00000BF16A0FEF77AFE214618A0FEF776FEAE
:1038B0001CE0DCB900200E4908700E48007888B181
:1038C00000210C480078FFF73DFF002009490870EF
:1038D0000949087000BF09A0FEF760FE12A0FEF7BC
:1038E0005DFE00BF4FF48050FFF76EF910BD000081
:1038F0005500002054000020560000203C3C4D594B
:103900005F44454255473E3E200000007461736BA2
:10391000315F62746E5F7363616E20726574203D07
:103920002025640D0A00000072656C656173650DE9
:103930000A000000016841F080010160704700004A
:1039400010B531B101293FD002297DD003297CD1A6
:10395000BFE0036A23F001030362836923F00303DA
:103960008361036A148823430362036A23F002031A
:103970000362036A9488234303626A4B984202D02D
:10398000694B98421FD1036A23F004030362036A60
:10399000548823430362036A23F008030362036A23
:1039A000D48823430362436823F4807343604368ED
:1039B000148923434360436823F4007343604368DE
:1039C000548923434360ABE0036A23F0100303628E
:1039D000836923F440738361036A148843EA041300
:1039E0000362036A23F020030362036A948843EAB4
:1039F000041303624B4B984202D04B4B984226D1A2
:103A0000036A23F040030362036A548843EA041301
:103A10000362036A23F080030362036AD48843EAE3
:103A200004130362436823F480634360436814898A
:103A300043EA84034360436823F4006343604368BC
:103A4000548943EA840301E002E068E0436067E0F0
:103A5000036A23F480730362C36923F00303C36121
:103A6000036A148843EA04230362036A23F400739D
:103A70000362036A948843EA04230362294B984251
:103A800002D0294B984223D1036A23F48063036256
:103A9000036A548843EA04230362036A23F400633D
:103AA0000362036AD48843EA04230362436823F46D
:103AB000805343604368148943EA041343604368B6
:103AC00023F4005343604368548943EA041343607A
:103AD00026E0036A23F480530362C36923F440732E
:103AE000C361036A148843EA04330362036A23F45C
:103AF00000530362036A948843EA04330362094B68
:103B0000984202D0084B984208D1436823F480437E
:103B100043604368148943EA8413436000E000BFB4
:103B200000BF10BD002C01400034014031B101291B
:103B30000CD0022913D0032922D118E0836923F085
:103B4000700383618369134383611AE0836923F4FB
:103B5000E0438361836943EA0223836111E0C3691F
:103B600023F07003C361C3691343C36109E0C369F0
:103B700023F4E043C361C36943EA0223C36100E065
:103B800000BF00BF704731B1012906D0022906D01D
:103B9000032908D105E0426306E0826304E0C263C2
:103BA00002E0026400E000BF00BF704731B10129AC
:103BB0000CD0022913D0032922D118E0836923F005
:103BC000080383618369134383611AE0836923F4E3
:103BD00000638361836943EA0223836111E0C3695F
:103BE00023F00803C361C3691343C36109E0C369D8
:103BF00023F40063C361C36943EA0223C36100E0A5
:103C000000BF00BF70470021018041808180C180DA
:103C1000018141817047016821F001010160704715
:103C2000016841F001010160704700000A8882626A
:103C3000294A904220D0B0F1804F1DD0274A9042AF
:103C40001AD0274A904217D0264A904214D0264ACA
:103C5000904211D0254A90420ED0254A90420BD076
:103C6000244A904208D0244A904205D0234A9042E8
:103C700002D0234A90420FD1026822F07002026003
:103C800002688B7803F060031A43026002680B79C4
:103C900003F010031A4302608A68C262194A904214
:103CA0000CD0194A904209D0026822F44072026096
:103CB00002688B8903F440731A430260064A9042FB
:103CC00002D0094A904201D18A7B0263426942F0E4
:103CD0000102426170470000002C014000040040D6
:103CE00000080040000C004000340140004C01403E
:103CF000005001400054014000180040001C0040EA
:103D0000002000400010004000140040012904D1B0
:103D1000426C42F40042426403E0426C22F40042EE
:103D20004264704700210180418081804FF6FF711D
:103D30008160002181818173704700002DE9F04787
:103D400004460D460027B846B94600261D49601AAC
:103D50008C421CD006DC1C48204470B1B0F5806F4A
:103D60001FD10FE0B0F5806F16D0B0F56C4F18D1B1
:103D70000320FFF725FC074614E00220FFF720FC94
:103D800007460FE00220FFF71BFC07460AE002206F
:103D9000FFF716FC074605E00220FFF711FC074677
:103DA00000E000BF00BF07EB5500B0FBF5F64FF693
:103DB000F07006EA000806F00F0948EA0900A06062
:103DC000BDE8F087004C004000BCFFBF01464868DA
:103DD000C0F308007047C1F308024260704700005A
:103DE00010B504462049601A8C4228D006DC1F48D2
:103DF000204490B1B0F5806F33D117E0B0F5806FFB
:103E000026D0B0F56C4F2CD140F20E30FFF78AFC73
:103E100040F20E30FFF776FC24E040F21140FFF74D
:103E200081FC40F21140FFF76DFC1BE040F21240B4
:103E3000FFF778FC40F21240FFF764FC12E040F21A
:103E40001340FFF76FFC40F21340FFF75BFC09E003
:103E500040F21440FFF766FC40F21440FFF752FCBA
:103E600000E000BF00BF10BD004C004000BCFFBF21
:103E7000C16841F40051C160704710B5024602EBC1
:103E80009110006801F01F040123A340184008B1FD
:103E9000012010BD0020FCE70A460021416921F401
:103EA00000711143416170470A460021416921F4C4
:103EB000807111434161704710B5C1F38912825876
:103EC00001F01F040123A3409A43C1F38913C25098
:103ED00010BD10B5C1F38912825801F01F040123EF
:103EE000A3401A43C1F38913C25010BD10B500EBB3
:103EF00091521268C1F304440123A3409A4300EB9A
:103F000091531A6010BD70B5024600230024C1F31E
:103F10008910105801F01F060125B54000EA05037D
:103F200002EB91500068C1F304460125B54000EA58
:103F3000050414B10BB1012070BD0020FCE7C2687C
:103F400022F4C062C260C2680A43C26070470A4677
:103F50000021C16821F004011143C160704702696A
:103F600022F44052026102690A43026170470A4624
:103F70000021C16821F008011143C1607047C26887
:103F800022F48052C260C2680A43C26070470000D7
:103F900000000000653800080000000061150008FE
:103FA0000000000000000000000000000000000011
:103FB0000000000000000000000000000000000001
:103FC000000000000000000000000000FD230008C9
:103FD0000E061107000200000400000000040000AB
:103FE0000800000000080140000801400206020627
:103FF00025000000260000000505000000380140F3
:1040000000440040416E737765724370755F646170
:1040100074610000A50000000000000049696341D0
:1040200070705F526561645F427974655F43757259
:10403000004969634170705F57726974655F4279C6
:10404000746573004969634170705F526561645FB4
:10405000427974657300FEFDFBF7EFDF01070D1376
:10406000191F02080E141A2003090F151B21040A38
:1040700010161C22050B11171D23060C12181E24E6
:104080004275696C6474696D65203A4175672020DA
:104090003220323032322031373A31363A34300041
:1040A0004552524F523A2073656E64206465765FC4
:1040B00061646472204949435F576169745F416379
:1040C0006B28696E64657829213D2030206465760F
:1040D0005F61646472203D203078257820696E64C9
:1040E0006578203D2025640D0A0000000C41000881
:1040F000000000206C000000E42500087841000862
:104100006C00002044200000F425000880400008D6
:10411000000000000000000000000000000000009F
:10412000000000000000000400000000A00F640078
:10413000000000000000000000000000000000007F
:104140000000000000005A008000200080000004F1
:10415000200510000400100058027C02A0DC0000C2
:1041600000000000640000000000000000000000EB
:0841700000F36F0600000000DF
:0400000508000105E9
:00000001FF
