:020000040800F2
:10000000A820002019010008111A0008090800089A
:100010000D1A00088D030008991E0008000000005A
:100020000000000000000000000000000D1B0008A0
:10003000F705000800000000611A0008891B00088D
:1000400033010008330100083301000833010008C0
:1000500033010008330100083301000833010008B0
:1000600033010008330100080707000833010008C6
:100070003301000833010008330100083301000890
:100080003301000833010008330100083301000880
:100090003301000833010008330100083301000870
:1000A0003301000833010008330100083301000860
:1000B0003301000833010008330100083301000850
:1000C0003301000833010008330100083301000840
:1000D000330100085D1D0008991D00083301000868
:1000E000ED0600083301000833010008000000009D
:1000F0000000000000000000000000000000000000
:1001000033010008DFF80CD000F06EF8004800471B
:10011000B9280008A8200020064880470648004764
:10012000FEE7FEE7FEE7FEE7FEE7FEE7FEE7FEE7A7
:10013000FEE7FEE7911B00080501000840EA010305
:100140009B0703D009E008C9121F08C0042AFAD28D
:1001500003E011F8013B00F8013B521EF9D2704751
:10016000D2B201E000F8012B491EFBD270470022F9
:10017000F6E710B513460A4604461946FFF7F0FFA6
:10018000204610BD2DE9F05F0546002092469B46B3
:1001900088460646814640241BE02846414647469D
:1001A000224600F042F853465A46C01A914110D3F5
:1001B00011461846224600F029F82D1A67EB01086F
:1001C0004F4622460120002100F020F817EB0009DD
:1001D0004E41201EA4F10104DFDC484631462A4688
:1001E0004346BDE8F09F0000064C074D06E0E0687E
:1001F00040F0010394E8070098471034AC42F6D36E
:10020000FFF784FF90370008B0370008202A04DB8E
:10021000203A00FA02F1002070479140C2F1200319
:1002200020FA03F3194390407047202A04DB203A58
:1002300021FA02F00021704721FA02F3D040C2F106
:100240002002914008431946704700007CB50446DF
:100250001E4903C9CDE900018DF80240082C0BD2DC
:10026000DFE804F00A0405060A0708091CE01BE0A1
:100270001AE019E018E017E004F06000602802D1ED
:1002800004F01F057CBD00208DF802008DF80340AE
:100290008DF8044000BF0EA001F01AFE214610A008
:1002A00001F016FE00BF00BF00BF0521684600F048
:1002B0006FF88DF8050016A001F00AFE06226946C7
:1002C000012001F0C5FD00BFDCE70000B8360008E2
:1002D0003C3C4D595F44454255473E3E200000009E
:1002E0006572726F723A2063707520756172742046
:1002F00073656E6420756E6B6F776E20636D64211D
:100300002120636D64203D202523780A0000000031
:100310002E00000010B501F07DFB01F0F7FA4FF45C
:10032000A06002F09DFC4FF4C06002F035FD012199
:10033000154802F02BF9002001F0F6FF012001F032
:10034000F3FF01F057FC01F0B1FD00F065FE00F095
:10035000BFFF02F0FDFA462002F022FA01F044FB52
:1003600002F09AF9012002F059F900F021FE01F0A3
:1003700095FD01F0DFFA00F0C7F9002002F04EF918
:10038000032001F05DFB10BD0002300000BFFEE75E
:1003900010B502460B460021002004E0545C0444E2
:1003A000E0B24C1CE1B29942F8DB10BD10B5034A33
:1003B0000349044800F0CCF810BD00004D020008CD
:1003C000600000201300002010B543210148FFF712
:1003D000CEFE10BD6000002010B5044803F050F8B8
:1003E000C4B22146024801F054FB10BD0044004055
:1003F0006000002010B50446A4F13000072805D2A3
:10040000DFE800F0090F233738393E0021461EA0EF
:1004100001F05EFD00BF2648016826A001F058FDEE
:100420002FE02648007864280BDA244800780A3048
:1004300040B201F089FA2148017821A001F048FD7D
:1004400002E026A001F044FD1BE01C4800780A28C9
:100450000BDB1A4909780A3948B201F075FA1748D6
:10046000017823A001F034FD02E028A001F030FD66
:1004700007E006E005E029A129A001F029FD00E040
:1004800000BF00BF10BD00004552524F523A2043FA
:100490006F6D6D616E6420556E6B6E6F7720636D4E
:1004A00064203D20307825782121210A0D000000AC
:1004B0000000002025730A0D00000000220000202B
:1004C000675F6C63645F70776D203D2025642069F1
:1004D0006E637265617365200A0D0000675F6C636F
:1004E000645F70776D203D203130300A0D000000D0
:1004F000675F6C63645F70776D203D2025642064C6
:1005000065637265617365200A0D0000675F6C6347
:10051000645F70776D203D20300A0D006F666600C5
:10052000576174636820446F6720537461747573F6
:10053000203D2025730A0D0010B5044802F0A0FFED
:10054000C4B22046FFF756FF10BD0000003801403E
:100550002DE9F04704460E4617464FF0000A49E0E1
:10056000304601F0B7FA00F0FF08207A404501DD7F
:10057000BDE8F08794F80880207AC0F1040000F00C
:10058000FF0A002507E0601900EB0A01304601F080
:1005900068FA681CC5B24545F5DB2078A5280AD164
:1005A00060785A2807D10421204601F062FC10B976
:1005B000A078B8471EE0012505E0605DA52800D1C0
:1005C00003E0681CC5B2042DF7DB00BF042D0FD07B
:1005D00025724FF0000908E0605D04F80900681C0E
:1005E000C5B209F1010000F0FF09042D02DAF3E7BA
:1005F00004202072B4E770470349086000BF024935
:1006000009680029FBD1704708000020F0B50346B7
:1006100000224FF0E0277D69104F3F68DFF840C0AF
:10062000B7FBFCF7FEB203FB06F44FF0E027B96915
:1006300010E04FF0E027B86988420BD0884202D220
:100640000F1A3A4402E02F1A0F443A440146A242DC
:1006500000D300E0EDE700BFF0BD0000580000202F
:1006600040420F000448006820B103480068401E63
:1006700001490860704700000800002010B50B48D1
:10068000028802210A4802F0D8FD6420FFF7B4FF77
:10069000074802F01AFE00F01FF800BF05A001F0A5
:1006A00017FC08A001F014FC00BF10BD20000020C2
:1006B000002C01403C3C4D595F44454255473E3E6D
:1006C0002000000044697361626C655F4C63644C98
:1006D000696768740A00000010B54FF48041024851
:1006E00001F0A6FE10BD0000000C014010B54FF453
:1006F000805001F0FDFD28B14FF4805001F0F2FD73
:1007000001F07AFD10BD704710B500F037F8642095
:10071000FFF772FF0E49097809B9462101E00C493B
:10072000097848B201F010F96420FFF765FF094825
:1007300002F0D0FD6420FFF75FFF00F01FF800BF5C
:1007400005A001F0C5FB08A001F0C2FB00BF10BD71
:1007500022000020002C01403C3C4D595F444542A2
:1007600055473E3E20000000456E61626C655F4C5F
:1007700063644C696768740A0000000010B54FF4A8
:100780008041024801F056FE10BD0000000C0140FF
:1007900038B504460020009001226946204600F04A
:1007A00007F810B19DF8000038BD0020FCE70000FC
:1007B000F8B504460D4616462B46224606480096D6
:1007C0000178002000F0E4F908B9012000E00020E1
:1007D00007463846F8BD00003A00002033B581B026
:1007E0000446012002AB2246009006480178002012
:1007F00000F02CFA08B9012000E000200546284648
:100800003EBD00003A00002000BFFEE710B50446E0
:100810000021204600F0E2FA204601F097F900217D
:10082000204600F007FB0420FFF7F0FE01212046E0
:1008300000F0D4FA0620FFF7E9FE0021204600F080
:10084000CDFA0320FFF7E2FE10BD000070B50546AB
:1008500040F2036002F0A0FA012D02D14FF440648F
:1008600005E0022D02D14FF4407400E0C02423467D
:1008700002221021054801F02BFE0121284600F03C
:10088000ADFA0121284600F0D5FA70BD000C0140F8
:1008900010B504460021204600F0A0FA204601F0E1
:1008A00055F90121204600F0C5FA0420FFF7AEFEFD
:1008B0000121204600F092FA0620FFF7A7FE002152
:1008C000204600F08BFA0320FFF7A0FE10BD2DE9B3
:1008D000F04107460D4600240021384600F07EFA1C
:1008E000384601F015F90320FFF790FE00261EE0C0
:1008F0000021384600F072FA0520FFF787FE01213B
:10090000384600F06BFA6006040E0420FFF77EFE06
:10091000384601F0E3F808B1601CC4B20420FFF7C8
:1009200075FE0021384600F059FA701CC6B2082E38
:10093000DEDB1DB93846FFF7ABFF02E03846FFF7B4
:1009400065FF2046BDE8F08170B506460C460021E3
:10095000304600F043FA304601F0F8F800251CE07C
:100960000320FFF753FE04F08001304600F062FAE6
:100970006006040E0420FFF749FE0121304600F016
:100980002DFA0620FFF742FE0021304600F026FA3D
:100990000320FFF73BFE681CC5B2082DE0DB70BDED
:1009A00010B50446204601F0D1F80121204600F0A0
:1009B00041FA0121204600F011FA0620FFF726FE39
:1009C0000021204600F036FA0620FFF71FFE002126
:1009D000204600F003FA10BD10B504460021204661
:1009E00000F0FCF9204601F0B1F80021204600F0AB
:1009F00021FA0620FFF70AFE0121204600F0EEF959
:100A00000320FFF703FE0121204600F013FA062021
:100A1000FFF7FCFD10BD70B50546002400212846F7
:100A200000F0DCF90320FFF7F1FD0121284600F07A
:100A300001FA0320FFF7EAFD284601F069F80121D9
:100A4000284600F0CBF90320FFF7E0FD0BE0601C27
:100A5000C4B2FA2C04DD2846FFF7BEFF012070BDAA
:100A60000120FFF7D3FD284601F038F80028EED129
:100A70000021284600F0B2F90320FFF7C7FD00204F
:100A8000EDE7000010B504460120A04008490978B0
:100A9000084000B110BD2046FFF7D8FE0120A0405D
:100AA0000349097808430249087000BFF2E70000D3
:100AB0001C0000202DE9F0410746884615461E46D9
:100AC0003846FFF76DFF48F001013846FFF73CFF5D
:100AD0003846FFF7A0FF00280ED000BF134B2E2290
:100AE00013A117A001F0F4F939461EA001F0F0F9A6
:100AF00000BF0220BDE8F08100240FE0701EA0427C
:100B000005D100213846FFF7E2FE285504E0012117
:100B10003846FFF7DCFE2855601CC4B2B442EDDB5A
:100B20003846FFF759FF0020E4E70000C036000810
:100B30007372635C6969635F6170702E63000000AB
:100B40003C3C46696C653A257320204C696E653AD9
:100B50002564202046756E6374696F6E3A25733E76
:100B60003E2000004552524F523A4949435F576177
:100B700069745F41636B28696E64657829213D2043
:100B80003020696E646578203D2025640A000000ED
:100B90002DE9F84305460F4690461E46DDF82090A5
:100BA00000200346424639460090284600F04EF8A1
:100BB0000446FF2C07D14B46324639462846FFF7FC
:100BC00079FFBDE8F88300BF064B9E2206A10AA06C
:100BD00001F07EF92A46214610A001F079F900BF04
:100BE0002046EEE7E83600087372635C6969635F6C
:100BF0006170702E630000003C3C46696C653A25CC
:100C00007320204C696E653A2564202046756E631A
:100C100074696F6E3A25733E3E2000004552524F74
:100C2000523A204969634170705F57726974655F19
:100C3000427974657320726574203D2025642069B3
:100C40006E646578203D2025640A00002DE9F04798
:100C500005460E4617469846DDF820902846FFF7D1
:100C60009FFE06F0FE012846FFF76EFE2846FFF7BE
:100C7000D2FE90B100BF2C4B5D222CA12FA001F021
:100C800027F92A463146364801F022F900BF2846A6
:100C9000FFF7A2FE0220BDE8F08739462846FFF79D
:100CA00053FE2846FFF7B7FE002810D000BF1E4BAA
:100CB00067221EA121A001F00BF9294629A001F00D
:100CC00007F900BF2846FFF787FE0320E3E7B9F1E5
:100CD000000F01D1FF20DEE700241DE018F804100A
:100CE0002846FFF731FE2846FFF795FE002811D071
:100CF00000BF0D4B7A220DA110A001F0E9F82A46A1
:100D0000214627A001F0E4F800BF2846FFF764FE63
:100D10000420C0E7601CC4B24C45DFDB2846FFF767
:100D20005BFE0020B7E70000D53600087372635CF5
:100D30006969635F6170702E630000003C3C466926
:100D40006C653A257320204C696E653A2564202035
:100D500046756E6374696F6E3A25733E3E200000DF
:100D6000443700084552524F523A2073656E642052
:100D7000776F72645F61646472204949435F5761B1
:100D800069745F41636B28696E64657829213D2031
:100D90003020696E646578203D2025640A000000DB
:100DA0004552524F523A2073656E642064617461FB
:100DB000204949435F576169745F41636B28696EDD
:100DC00064657829213D203020693D256420696EC5
:100DD000646578203D2025640A00000070B5054652
:100DE0000C46012D0BD124B18102114801F022FBE8
:100DF0001DE04FF480610E4801F01AFB17E0022D50
:100E00000BD124B1E9010A4801F014FB0FE04FF4C3
:100E10008071074801F00CFB09E024B1402104482F
:100E200001F008FB03E04021014801F001FB70BD27
:100E3000000C014070B505460C46012D0BD124B1C4
:100E4000C102114801F0F6FA1DE04FF400610E48AE
:100E500001F0EEFA17E0022D0BD124B129020A4865
:100E600001F0E8FA0FE04FF40071074801F0E0FAF2
:100E700009E024B18021044801F0DCFA03E080217C
:100E8000014801F0D5FA70BD000C014010B5812178
:100E9000FF20FFF7A3FC0020FFF77AFC0446214661
:100EA0000BA001F015F80120FFF772FC0446214663
:100EB0000DA001F00DF80220FFF76AFC0446214660
:100EC00009A001F005F80AA001F002F810BD000029
:100ED0000D0A4C543932313120436869702049443D
:100EE0003A25782C0000000025782C200000000016
:100EF0000D0A000010B58621FF20FFF76FFC0121CD
:100F00000020FFF76BFC4FF49670FFF775FB002491
:100F10000820FFF73DFC00F00F0424020920FFF732
:100F200037FC044424020A20FFF732FC0444214623
:100F300011A000F0CDFF8621FF20FFF74FFC0A2112
:100F40000020FFF74BFC4FF49670FFF755FB002491
:100F50000820FFF71DFC00F00F0424020920FFF712
:100F600017FC044424020A20FFF712FC0444214623
:100F700008A000F0ADFF10BD0D0A6D697069206911
:100F80006E707574206279746520636C6F636B3A60
:100F9000202575000D0A6465737363207069786598
:100FA0006C20636C6F636B3A2025750A00000000AB
:100FB00010B500F001F810BD10B511A000F088FFC9
:100FC000FFF764FF00F0DEF900F02EF900F00EF9F3
:100FD00000F00AFA00F06EF900F034F80A20FFF78A
:100FE0000BFB00F011FB00F0C1FA00F073FA01F006
:100FF00051FC01F045FCFFF77DFF00F099FB10BDAF
:101000000D0A204C54393231315F6D69706920749A
:101010006F2054544C00000010B50020FFF732FD43
:1010200040F2066001F0B8FE02231A46102104487F
:1010300001F04EFA0221024801F0FAF910BD000059
:101040000018014070B5D021FF20FFF7C7FB6021D9
:101050000C20FFF7C3FB60211C20FFF7BFFB7021B2
:101060002420FFF7BBFB30212D20FFF7B7FB0A211F
:101070003120FFF7B3FBF0212520FFF7AFFB302134
:101080002A20FFF7ABFB4F212120FFF7A7FB002110
:101090002220FFF7A3FB01211E20FFF79FFB8021E9
:1010A0002320FFF79BFB02210A20FFF797FB022179
:1010B0003820FFF793FB04213920FFF78FFB08212D
:1010C0003A20FFF78BFB10213B20FFF787FB042121
:1010D0003F20FFF783FB08214020FFF77FFB102113
:1010E0004120FFF77BFB20214220FFF777FBA02167
:1010F0002B20FFF773FBD021FF20FFF76FFB26208B
:10110000FFF746FB054605F07F0529462620FFF739
:1011100065FB0F212720FFF761FB8121FF20FFF7EF
:101120005DFBBF212020FFF759FBFF212020FFF7A7
:1011300055FB0520FFF760FA6F210B20FFF74EFBF0
:10114000FF210B20FFF74AFB4FF44870FFF754FADA
:10115000002415E0C820FFF74FFAD021FF20FFF749
:101160003DFB8720FFF714FB00F0080018B10DA02D
:1011700000F0AEFE06E010A000F0AAFE601CC4B2B3
:101180000A2CE7DB00BFD021FF20FFF727FB9420CC
:10119000FFF7FEFA00F07F0631460EA000F098FE41
:1011A00070BD00000D0A4C54393231312070637229
:1011B00020737461626C65000D0A4C543932313110
:1011C0002070637220756E737461626C65212121D9
:1011D000210000004C5439323131207063725F734A
:1011E0007461626C655F4D3D25780A0010B58621FB
:1011F000FF20FFF7F3FA85213020FFF7EFFAD8211F
:10120000FF20FFF7EBFA00211620FFF7E7FAD021C5
:10121000FF20FFF7E3FA12214320FFF7DFFA052151
:101220000220FFF7DBFA10BD10B5D021FF20FFF739
:10123000D5FA00210846FFF7D1FA8221FF20FFF7F7
:10124000CDFA44210220FFF7C9FA36210520FFF725
:10125000C5FA26210D20FFF7C1FA0C211720FFF750
:10126000BDFA0C211D20FFF7B9FA81210A20FFF7F2
:10127000B5FA00210B20FFF7B1FA9F210720FFF7F5
:10128000ADFAFC210820FFF7A9FA01210920FFF798
:10129000A5FA01211120FFF7A1FA8621FF20FFF70F
:1012A0009DFA1B213320FFF799FA1B213420FFF709
:1012B00095FA10BD10B58221FF20FFF78FFA482163
:1012C0002D20FFF78BFA82213520FFF787FA10BD1A
:1012D00010B50221064801F0ABF86420FFF78CF945
:1012E0000221034801F0A6F86420FFF785F910BD3C
:1012F0000018014010B504466420FFF77DF9D021A5
:10130000FF20FFF76BFA608A01120D20FFF766FAE3
:10131000A17C0E20FFF762FA208A01120F20FFF74E
:101320005DFA217C1020FFF759FA217B1520FFF789
:1013300055FA608901121720FFF750FAA17A182098
:10134000FFF74CFA208901121120FFF747FA217AA2
:101350001220FFF743FAE08801121320FFF73EFA4C
:10136000A1791420FFF73AFAA1781620FFF736FA90
:10137000208801121920FFF731FA21781A20FFF78F
:101380002DFA10BD10B58221FF20FFF727FA182192
:101390000120FFF723FA8621FF20FFF71FFA6121C2
:1013A0000620FFF71BFAA8210720FFF717FA87216D
:1013B000FF20FFF713FA08211420FFF70FFA00218E
:1013C0001520FFF70BFA0F211820FFF707FA082165
:1013D0002220FFF703FA00212320FFF7FFF90F2156
:1013E0002620FFF7FBF910BD2DE9F04100274FF44F
:1013F000FA70FFF701F9D021FF20FFF7EFF9832002
:10140000FFF7C6F980468220FFF7C2F908EB0020FB
:1014100084B2032094FBF0F084B28420FFF7B8F983
:1014200000F00F068620FFF7B3F980468520FFF70E
:10143000AFF908EB002085B29C20FFF7A9F9074619
:1014400021460EA000F044FD294610A000F040FD0A
:10145000314612A000F03CFD394614A000F038FDE2
:101460006420FFF7C9F80120144908701448FFF7F9
:1014700041FF14A000F02CFDBDE8F0810D0A686169
:101480006374203D2025750A0D0000000D0A766169
:101490006374203D2025750A0D0000000D0A666D5D
:1014A00074203D2025780A0D000000000D0A7061AF
:1014B0005F6C706E203D2025780D0A0038000020FA
:1014C0003C00002031303234783630305F363048DE
:1014D0007A0D0A0010B51EA000F0FAFC8521FF204D
:1014E000FFF77CF940215920FFF778F9AA215A200B
:1014F000FFF774F9AA215B20FFF770F900215C2047
:10150000FFF76CF950218820FFF768F97721A120B7
:10151000FFF764F98621FF20FFF760F940210846B4
:10152000FFF75CF934214120FFF758F910214220E0
:10153000FFF754F923214320FFF750F941214420BC
:10154000FFF74CF902214520FFF748F910BD0000D4
:101550000D4C54393231312073657420746F204F33
:1015600055545055545F4C564453000010B58221D9
:10157000FF20FFF733F900216220FFF72FF9082140
:101580003B20FFF72BF992213E20FFF727F9482156
:101590003F20FFF723F931214020FFF71FF9802179
:1015A0004320FFF71BF900214420FFF717F9002122
:1015B0004520FFF713F900214920FFF70FF901211A
:1015C0004A20FFF70BF900214E20FFF707F9002111
:1015D0004F20FFF703F900215020FFF7FFF800210B
:1015E0005320FFF7FBF801215420FFF7F7F8812182
:1015F000FF20FFF7F3F879212020FFF7EFF8FF2114
:101600002020FFF7EBF810BD10B58221FF20FFF777
:10161000E5F801213620FFF7E1F829213720FFF70F
:10162000DDF806213820FFF7D9F830213920FFF7FF
:10163000D5F88E213A20FFF7D1F88121FF20FFF75E
:10164000CDF8F7212020FFF7C9F8FF212020FFF770
:10165000C5F88721FF20FFF7C1F814213720FFF7D5
:10166000BDF800211320FFF7B9F880211320FFF700
:10167000B5F86420FEF7C0FF00241FE08721FF209B
:10168000FFF7ACF81F20FFF783F800F0800080B16F
:101690002020FFF77DF800F0800018B10BA000F0CB
:1016A00017FC02E00FA000F013FC15A000F010FCE6
:1016B00006E00CA000F00CFC601CC4B20A2CDDDBC0
:1016C00000BF16A000F004FC10BD00000D0A4C5431
:1016D0003932313120747820706C6C206C6F636B00
:1016E000000000000D0A4C5439323131207478204A
:1016F000706C6C20756E6C6F636B6564000000002D
:101700000D0A4C543932313120747820706C6C20C1
:1017100063616C20646F6E65000000000D0A207329
:10172000797374656D20737563636573730000006E
:101730001CB58621FF20FFF751F87020FFF728F82D
:1017400004467120FFF724F8484908807220FFF70B
:101750001FF8474908807320FFF71AF844490978B1
:1017600000EB0120424908807420FFF711F841493D
:1017700008807520FFF70CF83F4908807620FFF7B6
:1017800007F83E4908807720FFF702F83B490978BF
:1017900000EB0120394908807820FEF7F9FF38492D
:1017A00008807920FEF7F4FF3549097800EB012025
:1017B000334908807A20FEF7EBFF324908807B200E
:1017C000FEF7E6FF2F49097800EB01202D4908803C
:1017D0007C20FEF7DDFF2C4908807D20FEF7D8FF36
:1017E0002949097800EB0120274908807E20FEF76F
:1017F000CFFF264908807F20FEF7CAFF23490978DA
:1018000000EB0120214908808020FEF7C1FF20491C
:1018100008808120FEF7BCFF1D49097800EB0120FC
:101820001B49088021461BA000F052FB1648008887
:1018300017490988CDE90010104803880C48028830
:101840000F48018819A000F043FB0E4800880F499B
:101850000988CDE900100748038804480288064833
:1018600001881EA000F034FB1CBD00002A000020EF
:10187000280000202E000020360000202C00002030
:10188000340000203200002030000020260000201C
:10189000240000200D0A73796E635F706F6C6172B3
:1018A000697479203D202578000000000D0A6866E3
:1018B000702C2068732C206862702C20686163741F
:1018C0002C2068746F74616C203D2025752025756F
:1018D0002025752025752025750A00000D0A7666DD
:1018E000702C2076732C207662702C2076616374C5
:1018F0002C2076746F74616C203D20257520257531
:101900002025752025752025750A000010B540F2A8
:10191000066001F041FA4FF400430222102104480E
:1019200000F0D6FD4FF40041014800F081FD10BDEC
:101930000018014010B54FF40041024800F07AFD54
:1019400010BD00000018014070B50446642C01DD94
:10195000642402E0002C00DA00240D490C7000BF62
:101960000CA000F0B5FA0A4801780EA000F0B0FA19
:1019700000BFC4F16400124909884843642190FB08
:10198000F1F52A4602210F4801F057FC70BD000016
:10199000220000203C3C4D595F44454255473E3EA5
:1019A000200000004C63645F70776D5F6F7574207A
:1019B000675F6C63645F70776D203D2025640A006B
:1019C00020000020002C014010B51021014800F03B
:1019D00031FD10BD000C014010B51021014800F090
:1019E00027FD10BD000C014010B540F2036001F06E
:1019F000D3F9102302221946034800F069FD102193
:101A0000014800F015FD10BD000C014000BFFEE7CD
:101A10007047000010B540F2046001F0BDF90F23DB
:101A200002221021054800F053FD0421034800F074
:101A3000FFFC0B21014800F0FDFC10BD001001402F
:101A400010B50446002C08DD052C06DA601E0122C4
:101A500002FA00F1014800F0EDFC10BD0010014059
:101A600070470246907810B94FF0FF3070471378F6
:101A7000D01CC05C08701378581CC31700EB93632C
:101A80009B11A0EB831313709078401E9070002080
:101A9000ECE70246907840280BD11378581CC31706
:101AA00000EB93639B11A0EB831313709078401E9F
:101AB00090705378D01CC1545378581CC31700EB56
:101AC00093639B11A0EB831353709078401C90702C
:101AD00000207047014688787047000010B5044622
:101AE000012C04D1C102084800F048FD10BD022CB1
:101AF00004D12102044800F041FDF7E780210248AB
:101B000000F03CFDF2E70000000C014070470000CF
:101B100010B50446012C06D1C302022248210A480E
:101B200000F0D6FC0EE0022C06D12302022248214E
:101B3000054800F0CDFC05E0802302224821024840
:101B400000F0C6FC10BD0000000C014010B50446BA
:101B5000012C06D1C302022210210A4800F0B8FC71
:101B60000EE0022C06D1230202221021054800F0CB
:101B7000AFFC05E0802302221021024800F0A8FCFF
:101B800010BD0000000C014010B500F05BF810BD66
:101B900010B51448006840F001001249086008467A
:101BA0004068114908400F494860084600680F49DD
:101BB00008400C4908600846006820F4802008604E
:101BC000084640680A4908400649486008460068D7
:101BD00006490840034908604FF41F00886001F07F
:101BE00097F910BD001002400C00FFE8FFFFF6FE61
:101BF000FFFF00F710B5124800684FF47A71B0FB90
:101C0000F1F4601EB0F1807F01D301200FE0601E6F
:101C10004FF0E02148610F214FF0FF3000F068F9EC
:101C200000204FF0E021886107200861002008B102
:101C300000BFFEE70021481E00F05AF910BD000069
:101C40005800002000B537480068401C354908603E
:101C5000FEF708FD334800680A21B0FBF1F201FBF2
:101C6000120028B93048008840F001002E49088051
:101C70002C4800681421B0FBF1F201FB120002288D
:101C800005D12948008840F00200274908802548EE
:101C9000006840F21521B0FBF1F201FB1200172899
:101CA00005D12148008840F480401F4908801D4824
:101CB00000684FF47A71B0FBF1F201FB12000A28C0
:101CC00005D11948008840F400401749088015489C
:101CD000006840F21511B0FBF1F201FB120028B9C7
:101CE0001148008840F008000F4908800F4800881C
:101CF000B0F5E16F05DA0D480088401C0B490880FB
:101D00000EE0084800680A21B0FBF1F201FB120066
:101D1000042805D10448008840F0040002490880E6
:101D200000BD00000C000020040000201000002076
:101D300010B50949087800EBD0714910A0EB4101BA
:101D400011B1FFF749FE01E0FFF73EFE02480078BF
:101D5000401C0149087010BD1E00002010B50B4941
:101D60000B4801F02AFC30B1FEF7E6FB07490848B2
:101D700001F016FC08E00749054801F01EFC18B107
:101D80000449034801F00CFC10BD000005030500E8
:101D9000003801400403040010B51749174801F04A
:101DA0000CFC88B1FEF718FB1349144801F0F8FB4E
:101DB00013480078F0B94FF44171104801F0E3FB8B
:101DC00001200F49087015E00E490C4801F0F5FBA1
:101DD00080B1FEF7EBFA0B49084801F0E1FB084837
:101DE000007838B14FF44171044801F0BFFB002086
:101DF0000349087010BD00000503050000440040C1
:101E00001D000020040304007CB504460D460E4965
:101E100003C9CDE90001012C00DD7CBD0120A040FB
:101E20000A490978084060B100BF5DF82400072125
:101E300001F07DFB0028F8D05DF82400294601F070
:101E400024FB00BFE9E70000B036000812000020C4
:101E50002DE9F04107460D461646002405E0295DB0
:101E60003846FFF7D1FF601CC4B2B442F7DBBDE8CF
:101E7000F081F0B504460D464FF0FF370CB93846F7
:101E8000F0BD681E265CC1B22046FEF781FAB04262
:101E900000D100273846F3E700BFFEE710B58021E8
:101EA000014800F0C7FA10BD0014014010B540F21F
:101EB000056000F071FF802302221021034800F02A
:101EC00007FB8021014800F0B3FA10BD0014014067
:101ED0000FB4054B10B503A9044A029800F02CF882
:101EE00010BC5DF814FB0000152300085C00002006
:101EF00010B5002804DB0A07130E054A135406E048
:101F00000A07140E034A00F00F031B1FD45410BD20
:101F100000E400E018ED00E002E008C8121F08C16C
:101F2000002AFAD170477047002001E001C1121F5A
:101F3000002AFBD1704700002DE9FF4F8DB09B4672
:101F40000F460446002606E025280BD05A460F9976
:101F50009047641C761C20780028F5D111B03046DB
:101F6000BDE8F08F0025A8460122984900E005430E
:101F700014F8013F203B02FA03F00842F7D1207821
:101F80002E2817D114F8010F45F004052A280ED089
:101F90006FF02F022078A0F1300109290AD808EB50
:101FA000880102EB410100EB0108641CF2E757F8DD
:101FB000048B641C20786C280DD004DC4C2812D0D3
:101FC0006A2811D104E074280DD07A280CD10AE0D7
:101FD00045F4001507E0617845F48015814202D18F
:101FE000641C05F58015641C2278692A45D008DC3C
:101FF000002AB3D0582A69D0632A10D0642A08D1A5
:102000003BE0702A67D0732A13D0752A5CD0782AF7
:102010005CD010465A460F999047761CD3E017F8CB
:10202000040B8DF8000000208DF80100E946012026
:1020300003E057F8049B4FF0FF3069074FF00005AD
:1020400001D40AE06D1C45450DDA8542FADB19F82A
:1020500005100029F6D106E06D1C8542FCDB19F85D
:1020600005100029F8D12E4404E019F8010B5A4656
:102070000F9990476D1EF8D2A5E00A200021CDE906
:102080000801C5F3025002280DD001CFC117031E6D
:1020900071F100030DDA4FF0000CD0EB0C006CEB8B
:1020A00001012D2308E0FF1D27F00707F7E80201D3
:1020B000EDE72B0504D52B238DF8283001233BE0D9
:1020C000EB0739D02023F7E70A2000E01020002199
:1020D000CDE9080107E01020002145F00405CDE915
:1020E00008014FF00808C5F3025002280FD001CFB5
:1020F00000214FF0000A2B071FD5702A0DD0DDE913
:1021000008C38CF0100C5CEA030C0CD015E0FF1D2A
:1021100027F00707F7E80201EBE740228DF82820B7
:102120004FF0010A0BE050EA010306D030238DF88E
:1021300028308DF8292002239A46582A04D024A258
:102140000DF120090B9209E026A2F9E7DDE9082349
:10215000FEF718F80B9B9B5C09F8013D50EA010261
:10216000F4D1ADEB090020300890680701D44FF09E
:1021700001080899884502DDA8EB010000E0002075
:102180008046002506E00AA85A46405D0F99904710
:102190006D1C761C5545F6DB04E030205A460F993D
:1021A0009047761CB8F10001A8F10108F5DC05E0C4
:1021B00019F8010B5A460F999047761C0899481E4A
:1021C00008900029F4DC641CC5E600000928010021
:1021D000303132333435363738396162636465669D
:1021E000000000003031323334353637383941425F
:1021F000434445460000000010B501200249087024
:10220000000300F05FF810BD5500002010B52C4B06
:102210001B6883432A4C2360231D1B688343241DB2
:102220002360231D1B688343241D2360231D1B681B
:102230008343241D236011B101290ED105E0204BF9
:102240001B6803431E4C236008E01D4B1B1D1B68CD
:1022500003431B4C241D236000E000BF00BF22B1DC
:10226000012A0FD0022A27D119E0154B08331B6829
:102270000343134C08342360231D1B688343241D30
:1022800023601AE00E4B08331B6883430C4C083460
:102290002360231D1B680343241D23600DE0084BAE
:1022A00008331B680343064C08342360231D1B6856
:1022B0000343241D236000E000BF00BF10BD0000E9
:1022C00000040140024909688143014A11607047D6
:1022D00000040140024909680143014A1160704746
:1022E00000040140014908607047000014040140E7
:1022F00001460748006800EA0102054814380068F2
:1023000000EA010312B10BB1012070470020FCE785
:102310001404014070B504460D46E1B20020FFF7F9
:1023200073FD204670BD000070B50446364D012C8B
:1023300000D1364D0120A04035490978084000B150
:1023400070BD344931F8140000F026FD324931F8EF
:10235000140000F021FD314951F82430304951F882
:1023600024000222182100F0B3F82E4951F824303D
:102370002B4951F824000222042100F0A9F8284634
:1023800001F088F84FF4E131284601F031F80021DE
:10239000284601F04EF90021284601F03AF90021C3
:1023A000284601F026F90021284601F0D7F800213F
:1023B000284601F0CBF80421284601F022F9082133
:1023C000284601F02EF9284601F0ACF840F205311C
:1023D000284601F0D8F8012C01D1FDF7F5FF124B8A
:1023E0001B5D03F00302104B1B5D99100F4B13F89C
:1023F000240000F0DFFB0120A040054909780843D4
:102400000349087000BF9BE70038014000440040CA
:1024100012000020A0360008843600088836000824
:102420009836000890360008AC360008A43600083C
:10243000416170470161704710B500228B071C0F86
:102440000F2303FA04F204290EDA204B9B6893430E
:102450001E4CA36023469B688C07240F00FA04F4EB
:1024600023431A4CA3602FE008290EDA174BDB68D0
:102470009343164CE3602346DB688C07240F00FA75
:1024800004F42343114CE3601EE00C290EDA0F4BD9
:102490001B6993430D4C236123461B698C07240F52
:1024A00000FA04F42343094C23610DE0074B5B69F8
:1024B0009343064C636123465B698C07240F00FA43
:1024C00004F42343014C636110BD0000000001408F
:1024D000F0B5044616460025002201F00F0501F074
:1024E000100707B1354300201EE0012787401F4039
:1024F000C7B122684FEA800C0F2707FA0CF7BA43DE
:10250000870005FA07F73A43282904D101278740B5
:102510001F40676105E0482903D1012787401F401C
:1025200027612260471CB8B20828DED3082022E0C9
:10253000012787401F40E7B16268A0F108074FEA12
:10254000870C0F2707FA0CF7BA43A0F10807BF0062
:1025500005FA07F73A43282904D1012787401F408D
:10256000676105E0482903D1012787401F402761A3
:102570006260471CB8B21028DAD3F0BD02469068FA
:10258000084008B1012070470020FCE7F0B50A467A
:10259000002300240021002500F00046B6F1004F82
:1025A00002D11D4EF16901E01B4E7168C0F3034575
:1025B00083B200F44016B6F5401F08D121F07061D7
:1025C000154E766826F07066134F7E6012E000F4B8
:1025D0008016B6F5801F06D1032606FA05F4A1433E
:1025E00041F0706106E0460D360103FA06F6B1438C
:1025F00041F0706122B1460D360103FA06F631430F
:1026000000F00046B6F1004F02D1034EF16101E047
:10261000014E7160F0BD00000000014010B504469D
:102620002146202000F014F810BD000010B504462B
:102630002CB14FF480710548FFF7FAFE04E04FF427
:1026400080710248FFF7F6FE10BD0000001801403F
:1026500070B505460C46212D03DA284600F04EF8E9
:1026600000E070BD0120FFF7E1FF2CB14FF4804185
:102670000848FFF7DFFE04E04FF480410548FFF70C
:10268000D7FE0120FDF7B8FF0020FFF7CFFF00BF06
:10269000E7E700000014014010B540F2056000F0CB
:1026A0007BFB4FF49043022210211248FFF710FFEA
:1026B0004FF490410F48FFF7BBFE40F2066000F078
:1026C0006BFB7C242346022210210B48FFF700FFFE
:1026D00021460948FFF7ACFE4FF440730222102157
:1026E0000548FFF7F5FE4FF440710348FFF7A2FEDF
:1026F00010BD0000001401400018014010B5044650
:1027000004F0010028B14FF400612348FFF792FE66
:1027100004E04FF400612048FFF78AFE04F0020055
:1027200020B104211D48FFF785FE03E004211B486A
:10273000FFF77EFE04F0040020B108211748FFF7E0
:1027400079FE03E008211548FFF772FE04F0080047
:1027500020B110211148FFF76DFE03E010210F4852
:10276000FFF766FE04F0100020B120210B48FFF7B0
:1027700061FE03E020210948FFF75AFE04F0200023
:1027800020B140210548FFF755FE03E040210348F2
:10279000FFF74EFE10BD000000140140001801407C
:1027A00030B587B0044640F2036000F0F5FA4FF40C
:1027B0000043022218212C48FFF78AFE40F20B60EA
:1027C00000F0EAFA642C00DD64242848047003A8B1
:1027D00000F002FE26480088401E0590254800684B
:1027E0002549B0FBF1F0401E80B2ADF80C0003A902
:1027F000224800F075FD684600F05FFD0420ADF84A
:1028000002006A4602211D4800F0F4FB70220221FA
:102810001A4800F0E5FCC4F16400154909884843F2
:10282000642190FBF1F52A460221144800F005FDD1
:1028300000220221114800F013FD01210F4800F091
:10284000BFFD0E4800F0D0FB4FF480430222102160
:102850000548FFF73DFE4FF480410348FFF7E8FDD0
:10286000FDF70CFF07B030BD000C01402200002036
:10287000200000205800002040420F00002C0140A2
:1028800010B58221FF20FDF7A9FF38213B20FDF77D
:10289000A5FF10BD10B58121FF20FDF79FFFFB2193
:1028A0000D20FDF79BFF0A20FDF7A6FEFF210D205E
:1028B000FDF794FF10BD000090B040221749684614
:1028C000FDF73CFCFDF726FD1548016815A0FFF754
:1028D000FFFA16A0FFF7FCFA1EE0002415E0012025
:1028E000A0401A490988084068B10120A040174952
:1028F00009888143154801805DF8240018B15DF80E
:102900002400804707E0601CC4B2102C03DA0F4893
:1029100000880028E3D100BFDFE70000443600084C
:102920000000002025730A0D00000000426F617254
:1029300064496E697420646F6E65212032303232D2
:102940002D30372D30310A0D00000000040000202A
:1029500008B51CA000680090022000F0E3F86A4669
:102960000021022000F0FBF800231A46194602203D
:1029700000F006F940F2036000F00EFA4FF4C06078
:1029800000F00AFA4FF48053022248210E48FFF764
:102990009FFD0C210120FFF74FFD012200211003B4
:1029A000FFF734FC4FF48050FFF794FC4FF4805055
:1029B000FFF798FC02220121282000F0FBF800F02C
:1029C00005F808BD00FF0000000C014008B56B468B
:1029D00001220021022000F0ABF860B99DF8000050
:1029E00000F03F003F2804D09DF8000000F03F00B9
:1029F00008BD3F20FCE702A0FFF76AFAFF20F7E7D7
:102A00004552524F523A204B45595F524F575F53F0
:102A100043414E206E6361393535355F72656164BF
:102A20005F696E706F72740A0D00000070B5FF254B
:102A30000026FFF7CBFF06463F2E43DA00243EE098
:102A40002948035D00221146022000F099F820B1C8
:102A5000214626A0FFF73CFA2FE0FFF7B7FF064616
:102A60003F2E00DB29E03B2E10D006DC1F2E19D0B4
:102A70002F2E13D0372E19D10CE03D2E03D03E2E31
:102A800014D1254614E0A01DC5B211E004F10C00DC
:102A9000C5B20DE004F11200C5B209E004F118005E
:102AA000C5B205E004F11E00C5B201E0252504E031
:102AB00000BF242D00DD04E000BF601CC4B2062C62
:102AC000BEDB00BF00231A461946022000F058F86A
:102AD000242D05DD252D01D1252070BD0020FCE72A
:102AE0000F48405DF9E70000FA3600084552524FA2
:102AF000523A204B45595F524F575F5343414E2046
:102B00006E6361393535355F77726974655F6F75EE
:102B100074706F727420693D25640A0D0000000016
:102B20000037000810B504462046FDF7ABFF10BD86
:102B3000F8B506460D4614461F4605F00E0545F04D
:102B400040050CB1012000E0002004460120E2B263
:102B50003B46294600903046FEF71AF8F8BDF8B516
:102B600006460C46154604F00E0444F040040220CC
:102B70002B460622214600903046FEF767F8F8BD46
:102B80007FB582B006460C46154604F00E0444F0AC
:102B900040040DB1012000E0002005460120009016
:102BA000A81CC2B205AB21463046FEF74FF806B06E
:102BB00070BD00002DE9F04103460D461646002485
:102BC0000027A0462448006800F4E060B0F5A06F3C
:102BD00015D006DCB0F5407F18D0B0F5806F19D164
:102BE00010E0B0F5C06F06D0B0F5E06F12D100274D
:102BF0004FF0040815E001274FF0030811E0022709
:102C0000B8460EE003274FF001080AE004274FF012
:102C1000000806E04FF4A06000F022F80227B84652
:102C200000BF00BFC7F1040005FA00F4C8F10401B9
:102C30000F20C8403040044324010848C45403F026
:102C40001F01012088405911890001F1E021C1F8DC
:102C50000001BDE8F08100000CED00E000E400E0C0
:102C600002490143024A1160704700000000FA0562
:102C70000CED00E02DE9F04F8BB0074600200990E5
:102C80003EA090E8004CC068CDE905BECDF810A08C
:102C900007900FF2EC0ADAE9000ACDE9020A0FF216
:102CA000E00ADAE9000ACDE9000A38484068C0F3D2
:102CB00081000A900A9820B1012804D0022829D165
:102CC00003E0334928E0324926E03048406800F408
:102CD0008038B8F5803F09D12D4C2C48406800F46D
:102CE0000039B9F5003F02D1641000E0294C2748B3
:102CF0004068C0F383422548406800F0006008B196
:102D000042F010020F2A01D2921C00E0521C04FB78
:102D100002F101E01E4900BF00BF1C484068C0F33B
:102D2000031504A8465D21FA06F318484068C0F36D
:102D3000022502A8465D23FA06FC14484068C0F349
:102D4000C2251DF8056023FA06F0089037B1012F5F
:102D500006D0022F06D0032F0AD106E0099108E021
:102D6000099306E0CDF824C003E00898099000E03C
:102D700000BF00BF09980BB0BDE8F08F0000000055
:102D800000000000010203040607080900100240C9
:102D900000127A0000093D00064A02EB9011096812
:102DA00000F01F0301229A401143024B03EB9012E3
:102DB0001160704700100240064A02EB901109684A
:102DC00000F01F0301229A409143024B03EB901243
:102DD0001160704700100240064A02EB901109682A
:102DE00000F01F0301229A401143024B03EB9012A3
:102DF00011607047001002407CB505460C46114832
:102E0000007800F0020018B90FA0FFF761F87CBD50
:102E1000A5208DF800008DF801508DF802409DF836
:102E200000009DF8011008449DF802100844C0B24B
:102E30008DF80300042269460120FFF709F800BF5E
:102E4000E5E70000120000206572726F723A2054AC
:102E50004F4350555F434F4D206E6F7420696E692C
:102E6000740A000000200021264A126842F0010284
:102E7000244B1A6000BF401C224A126802F0020173
:102E800011B9B0F5A06FF6D11E4A126802F0020225
:102E90000AB900BFFEE71B4A52681A4B5A601A462D
:102EA00052685A601A46526842F480625A601A4662
:102EB0005268154B1A40134B5A601A465268134B0E
:102EC0001A43104B5A601A46126842F080721A6018
:102ED00000BF0C4A126802F00072002AF9D0094AB9
:102EE000526822F00302074B5A601A46526842F0B9
:102EF00002025A6000BF034A526802F00802002A28
:102F0000F9D0704700100240FFFFC3F70000280807
:102F100010B5FFF7A7FF10BD10B5224800780028B4
:102F20003ED0FFF783FD0446ECB1252C1BDA1E488A
:102F30000078002834D11D480078401C1B490870D7
:102F40000846007801282BDD17480470012100781D
:102F5000FFF752FF00BF16A0FEF7BAFF214618A0E8
:102F6000FEF7B6FF1CE0DCB900200E4908700E48E1
:102F7000007888B100210C480078FFF73DFF002061
:102F8000094908700949087000BF09A0FEF7A0FFB1
:102F900012A0FEF79DFF00BF4FF48050FFF79AF993
:102FA00010BD0000550000205400002056000020F5
:102FB0003C3C4D595F44454255473E3E2000000091
:102FC0007461736B315F62746E5F7363616E2072E4
:102FD0006574203D2025640A0D00000072656C6553
:102FE0006173650A0D000000016841F08001016015
:102FF0007047000010B531B101293FD002297DD0C2
:1030000003297CD1BFE0036A23F0010303628369D3
:1030100023F003038361036A148823430362036A72
:1030200023F002030362036A9488234303626A4B1A
:10303000984202D0694B98421FD1036A23F00403DF
:103040000362036A548823430362036A23F008037C
:103050000362036AD48823430362436823F48073C2
:1030600043604368148923434360436823F4007337
:1030700043604368548923434360ABE0036A23F011
:1030800010030362836923F440738361036A148825
:1030900043EA04130362036A23F020030362036A12
:1030A000948843EA041303624B4B984202D04B4B83
:1030B000984226D1036A23F040030362036A5488CE
:1030C00043EA04130362036A23F080030362036A82
:1030D000D48843EA04130362436823F480634360A3
:1030E0004368148943EA84034360436823F400631C
:1030F00043604368548943EA840301E002E068E0E6
:10310000436067E0036A23F480730362C36923F0BA
:103110000303C361036A148843EA04230362036A56
:1031200023F400730362036A948843EA042303626E
:10313000294B984202D0294B984223D1036A23F4A9
:1031400080630362036A548843EA04230362036AC8
:1031500023F400630362036AD48843EA042303620E
:10316000436823F4805343604368148943EA04139B
:103170004360436823F4005343604368548943EA3F
:103180000413436026E0036A23F480530362C36997
:1031900023F44073C361036A148843EA043303626F
:1031A000036A23F400530362036A948843EA0433F6
:1031B0000362094B984202D0084B984208D14368F9
:1031C00023F4804343604368148943EA84134360D3
:1031D00000E000BF00BF10BD002C014000340140E2
:1031E00031B101290CD0022913D0032922D118E0D2
:1031F000836923F0700383618369134383611AE059
:10320000836923F4E0438361836943EA0223836192
:1032100011E0C36923F07003C361C3691343C36141
:1032200009E0C36923F4E043C361C36943EA0223AD
:10323000C36100E000BF00BF704731B1012906D073
:10324000022906D0032908D105E0426306E0826323
:1032500004E0C26302E0026400E000BF00BF704708
:1032600031B101290CD0022913D0032922D118E051
:10327000836923F0080383618369134383611AE040
:10328000836923F400638361836943EA02238361D2
:1032900011E0C36923F00803C361C3691343C36129
:1032A00009E0C36923F40063C361C36943EA0223ED
:1032B000C36100E000BF00BF704700210180418072
:1032C0008180C180018141817047016821F0010145
:1032D00001607047016841F0010101607047000022
:1032E0000A888262294A904220D0B0F1804F1DD0D6
:1032F000274A90421AD0274A904217D0264A904235
:1033000014D0264A904211D0254A90420ED0254A28
:1033100090420BD0244A904208D0244A904205D0D3
:10332000234A904202D0234A90420FD1026822F0F1
:103330007002026002688B7803F060031A43026037
:1033400002680B7903F010031A4302608A68C262B4
:10335000194A90420CD0194A904209D0026822F4CE
:103360004072026002688B8903F440731A43026062
:10337000064A904202D0094A904201D18A7B0263F8
:10338000426942F00102426170470000002C014096
:103390000004004000080040000C004000340140E0
:1033A000004C014000500140005401400018004012
:1033B000001C0040002000400010004000140040AD
:1033C000012904D1426C42F40042426403E0426CA1
:1033D00022F40042426470470021018041808180D4
:1033E0004FF6FF7181600021818181737047000079
:1033F0002DE9F04704460D460027B846B946002699
:103400001D49601A8C421CD006DC1C48204470B157
:10341000B0F5806F1FD10FE0B0F5806F16D0B0F51A
:103420006C4F18D10320FFF725FC074614E002205B
:10343000FFF720FC07460FE00220FFF71BFC0746C2
:103440000AE00220FFF716FC074605E00220FFF71E
:1034500011FC074600E000BF00BF07EB5500B0FBC2
:10346000F5F64FF6F07006EA000806F00F0948EA94
:103470000900A060BDE8F087004C004000BCFFBF21
:1034800001464868C0F308007047C1F30802426073
:103490007047000010B504462049601A8C4228D0BD
:1034A00006DC1F48204490B1B0F5806F33D117E09F
:1034B000B0F5806F26D0B0F56C4F2CD140F20E30B5
:1034C000FFF78AFC40F20E30FFF776FC24E040F272
:1034D0001140FFF781FC40F21140FFF76DFC1BE04B
:1034E00040F21240FFF778FC40F21240FFF764FC14
:1034F00012E040F21340FFF76FFC40F21340FFF779
:103500005BFC09E040F21440FFF766FC40F2144017
:10351000FFF752FC00E000BF00BF10BD004C0040B0
:1035200000BCFFBFC16841F40051C160704710B5D5
:10353000024602EB9110006801F01F040123A34032
:10354000184008B1012010BD0020FCE70A46002108
:10355000416921F400711143416170470A4600211D
:10356000416921F4807111434161704710B5C1F385
:103570008912825801F01F040123A3409A43C1F32A
:103580008913C25010BD10B5C1F38912825801F0E1
:103590001F040123A3401A43C1F38913C25010BD75
:1035A00010B500EB91521268C1F304440123A3400B
:1035B0009A4300EB91531A6010BD70B50246002388
:1035C0000024C1F38910105801F01F060125B540F1
:1035D00000EA050302EB91500068C1F3044601259F
:1035E000B54000EA050414B10BB1012070BD002004
:1035F000FCE7C26822F4C062C260C2680A43C260CB
:1036000070470A460021C16821F004011143C160DE
:103610007047026922F44052026102690A43026162
:1036200070470A460021C16821F008011143C160BA
:103630007047C26822F48052C260C2680A43C26006
:103640007047000000000000192F00080000000073
:10365000000000000000000000000000000000006A
:10366000000000000000000000000000000000005A
:10367000000000000000000000000000000000004A
:10368000311D00080E0611070002000004000000B2
:10369000000400000800000000080140000801408C
:1036A00002060206250000002600000005050000B5
:1036B0000038014000440040A55A0000000000000E
:1036C0004969634170705F526561645F42797465F6
:1036D0005F437572004969634170705F5772697426
:1036E000655F4279746573004969634170705F5228
:1036F0006561645F427974657300FEFDFBF7EFDF7F
:1037000001070D13191F02080E141A2003090F15C3
:103710001B21040A10161C22050B11171D23060C71
:1037200012181E244275696C6474696D65203A4AEA
:10373000756C20313420323032322031333A353515
:103740003A3237004552524F523A2073656E642028
:103750006465765F61646472204949435F576169BB
:10376000745F41636B28696E64657829213D203060
:10377000206465765F61646472203D20307825782E
:1037800020696E646578203D2025640A00000000F1
:10379000B03700080000002060000000181F00087B
:1037A000103800086000002048200000281F000892
:1037B00024370008000000000000000000000000A6
:1037C00000000000000000000000000400000000F5
:1037D000A00F6400000000000000000000000000D6
:1037E000000000000000000000005A0080002000DF
:1037F00080000004200510000400100058027C0224
:10380000A0DC00000000000000F36F0600000000D4
:0400000508000105E9
:00000001FF
