:020000040800F2
:100000004821002019010008E52300081D110008FF
:1000100055230008AD0900087D28000800000000F5
:10002000000000000000000000000000E1240008C3
:100030003D0E000800000000352400085D25000882
:1000400033010008330100083301000833010008C0
:1000500033010008330100083301000833010008B0
:100060003301000833010008530F00083301000872
:100070003301000833010008330100083301000890
:100080003301000833010008330100083301000880
:10009000330100083301000833010008690F00082C
:1000A0003301000833010008330100083301000860
:1000B0003301000833010008330100083301000850
:1000C0003301000833010008330100083301000840
:1000D00033010008412700087D270008330100088C
:1000E000390F000833010008330100080000000048
:1000F0000000000000000000000000000000000000
:1001000033010008DFF80CD000F0F2FA0048004795
:10011000D938000848210020064880470648004793
:10012000FEE7FEE7FEE7FEE7FEE7FEE7FEE7FEE7A7
:10013000FEE7FEE7652500080501000840EA010327
:100140009B0703D009E008C9121F08C0042AFAD28D
:1001500003E011F8013B00F8013B521EF9D2704751
:10016000D2B201E000F8012B491EFBD270470022F9
:10017000F6E710B513460A4604461946FFF7F0FFA6
:10018000204610BD2DE9FE4F804681EA0300C00FD6
:100190000C46009021F0004123F00045B8EB02002E
:1001A000A94105D24046214690461C460B460246D0
:1001B00023F00040104347D0270DC7F30A00C3F3D4
:1001C0000A510290401A019040286BDAC3F31300E1
:1001D00040F4801B0098924620B10023D2EB030A22
:1001E00063EB0B0B01985946C0F14002504600F0FA
:1001F000B9F906460D4650465946019A00F0D1F924
:1002000010EB08006141002487EA115284EAE77389
:100210001A4340D0009A62B3019A012A4FEA07526A
:1002200015DC001B61EB02014FF0004202EA0752AD
:10023000CDE90042001C41F5801132462B4600F00A
:1002400008FA03B0BDE8F08F40462146F9E7001BED
:1002500061EB0201001C41F5801300185B4120187E
:10026000A2F5001747EB030140EAD570B6196D41BE
:1002700011E06D084FEA360645EAC0754FEA0752AD
:10028000001B61EB0201001C41F5801149084FEA97
:1002900030000019514132462B4603B0BDE8F04F03
:1002A00000F0C8B90098012240000023D0EB020200
:1002B00063EBE073009821464FEAE074B8EB00006E
:1002C00061EB0401E9E783F000435BE781F0004163
:1002D00058E72DE9FE4F81EA030404F0004421F0C1
:1002E000004100944FF0000B23F0004350EA01045A
:1002F0005ED052EA03045BD0C3F30A54C1F30A553B
:100300002C44A4F2F3340194A0FB0254C1F3130172
:1003100041F48011C3F3130343F4801301FB02443F
:1003200000FB034E840A970A44EA815447EA835744
:10033000A4FB076802958D0A05FB07854FEA932CFD
:1003400004FB0C542705029D4FEA065847EA16376E
:10035000B5EB08056EEB070C870E920E47EA811786
:1003600042EA8312A7FB0201B6EB0B0164EB000427
:100370002B0D43EA0C335E1844EB1C50DA46514611
:10038000E7FB0201C5F313044FEA0B3343EA1453AE
:100390004FEA0432019C43EA0603A4F10C040294E0
:1003A000009CCDE900B400F054F903B0BDE8F08F33
:1003B00000200146F9E72DE9F04D81EA030404F03D
:1003C000004B21F0004514464FF0000A23F0004195
:1003D00050EA050220D054EA01021DD0C5F30A57A5
:1003E0000246C5F31303C1F31300C1F30A5640F4E8
:1003F000801543F48013A7EB0608101BD64608F2BD
:10040000FD3873EB050002D308F1010801E09218F2
:100410005B41B8F1000F03DA00200146BDE8F08D22
:1004200000204FF48011064684460EE0171B73EB44
:10043000050705D3121B63EB050306434CEA010CC9
:1004400049084FEA300092185B4150EA0107EDD1AC
:1004500052EA030012D082EA040083EA050108434D
:1004600005D0101BAB4106D20122002306E000227A
:100470004FF0004302E06FF0010253101AEB060048
:100480004CEB085110EB0A0041EB0B01BDE8F04DBD
:1004900000F0D0B896230022114600F09DB870B548
:1004A000C1F30A5201F000450024C1F3130140F2E8
:1004B000FF3341F480119A4201DA002070BD40F20E
:1004C00033439A42A2F2334203DC524200F059F81D
:1004D00000E090402C43F1D0404270BD00F000425B
:1004E00030F000400AD0C10D01F56071C0F3160074
:1004F00042EA0151C20840071143704700200146FB
:1005000070472DE9F05F0546002092469B468846DD
:100510000646814640241BE028464146474622467F
:1005200000F02FF853465A46C01A914110D3114695
:100530001846224600F016F82D1A67EB01084F46C0
:1005400022460120002100F00DF817EB00094E4172
:10055000201EA4F10104DFDC484631462A4643460A
:10056000BDE8F09F202A04DB203A00FA02F10020C7
:1005700070479140C2F1200320FA03F319439040E1
:100580007047202A04DB203A21FA02F0002170474C
:1005900021FA02F3D040C2F12002914008431946EB
:1005A0007047202A06DBCB17203A41FA02F043EAD3
:1005B000E07306E041FA02F3D040C2F1200291401C
:1005C0000843194670470029A8BF7047401C4900DE
:1005D00008BF20F00100704710B4B0FA80FC00FAA8
:1005E0000CF050EA010404BF10BC704749B1CCF1D3
:1005F000200421FA04F411FA0CF118BF012121435F
:100600000843A3EB0C01CB1D4FEA00614FEA102019
:1006100042BF002010BC704700EBC35010440029BB
:10062000A4BF10BC7047401C490008BF20F0010067
:1006300010BC704710B5141E73F1000408DA401C9A
:1006400041F1000192185B411A4301D120F00100F1
:1006500010BD2DE9F04D92469B4611B1B1FA81F2E1
:1006600002E0B0FA80F220329046FFF77BFF0446AA
:100670000F4640EA0A0041EA0B0153465A46084336
:1006800013D0114653EA010019D0C8F14002504678
:10069000FFF777FF05460E46504659464246FFF79C
:1006A00061FF084305D0012004E020463946BDE83B
:1006B000F08D0020054346EAE0762C4337430A9844
:1006C0006305E40AA0EB08000022FD0A44EA47544F
:1006D0000A3002D500200146E9E7010510196941F9
:1006E000DDE9084500196941BDE8F04DA2E70000C9
:1006F000064C074D06E0E06840F0010394E807006F
:1007000098471034AC42F6D3FFF700FD18480008B4
:100710003848000810B540F2096003F0A3FB03203D
:1007200003F0EAFA002002F0E7FA00224FF48071A9
:10073000184802F058FB00220221164802F053FB31
:1007400001221146134802F08CFA0021114802F0F0
:100750007DFA012211460F4802F055FA02F070FBB3
:100760000523102200210B4802F0D4FA4FF4602236
:100770000121084802F0A4FA064802F098FA012084
:1007800000F05EFB034802F029FA0121014802F063
:100790001BFB10BD002401401CB50446444903C99D
:1007A000CDE9000120788DF8010000208DF80200CD
:1007B0002078323811285ED2DFE800F0275D090E7C
:1007C000135D1B2D313A4245494E5158590060780E
:1007D000012102F039FF5EE06078002102F034FF71
:1007E00059E0607810B100F0D3FB01E000F06AFB43
:1007F00051E0607820B10121282002F025FF03E0BC
:100800000021282002F020FF45E0607802F094FCEF
:100810008DF802003FE0607803F08AFB3BE002F0D5
:100820005DFC642190FBF1F0C0B28DF8020032E073
:10083000607810B102F0B4FD01E002F08FFD2AE013
:1008400002F0D8FD27E0607802F0B6FE23E002F067
:100850003FFE8DF802001EE002F09EFE1BE01548F0
:10086000008840F010001349088014E013E060781D
:1008700001F084FD0FE0FF208DF8020000BF0E4B59
:100880007F220EA115A002F015F821781CA002F01D
:1008900011F800BF00BF00BF0321684600F088F8D0
:1008A0008DF8030004226946012001F0C3FF1CBD3E
:1008B0004047000804000020304700087372635C62
:1008C000756172745F636F6E6563745F6370755F8B
:1008D00068616E646C65722E630000003C3C466982
:1008E0006C653A257320204C696E653A256420209A
:1008F00046756E6374696F6E3A25733E3E20000044
:100900006572726F723A206370752075617274201F
:1009100073656E6420756E6B6F776E20636D6421F6
:100920002120636D64203D202523780D0A000000FE
:1009300010B501F059FD01F081FC4FF4A06003F007
:10094000D1F94FF4C06003F08DFA0121164802F08E
:10095000BBFC002002F032FB012002F02FFB01F073
:1009600033FE01F095FF00F0EFFF00F0B5FF02F05D
:10097000FFFFFFF7CFFE462002F0FCFE02F0D8FD9D
:1009800001F0D6FC02F0A0FE02F076FF01F0E4FCDC
:10099000012002F03FFE01F073FF002002F03AFE5A
:1009A000032001F037FD10BD0002300000BFFEE75C
:1009B00010B502460B460021002004E0545C0444BC
:1009C000E0B24C1CE1B29942F8DB10BD10B5034A0D
:1009D0000349044800F0E2F910BD0000990700083F
:1009E000740000201100002010B543210148FFF7DA
:1009F000BEFB10BD7400002010B5044803F07CFD60
:100A0000C4B22146024801F02EFD10BD0044004052
:100A10007400002070B50446A4F13000072805D208
:100A2000DFE800F00B14283C4248540021462CA07B
:100A300001F040FF00F0F4F800BF3348016833A034
:100A400001F038FF33A001F035FF47E03A48007865
:100A500064280BDA384800780A3040B201F016FCFE
:100A60003548017835A001F025FF02E03EA001F0F5
:100A700021FF33E0304800780A280BDB2E49097843
:100A80000A3948B201F002FC2B4801783BA001F082
:100A900011FF02E044A001F00DFF1FE046A001F0AD
:100AA00009FF02F079FD19E049A001F003FF00F011
:100AB00013FF13E002F00CFB08B14AA000E04AA0CB
:100AC0000546294649A001F0F5FE07E002F006FBC5
:100AD000054629464BA001F0EDFE00BF00BF70BDEA
:100AE0004552524F523A20436F6D6D616E642055EE
:100AF0006E6B6E6F7720636D64203D2030782578B3
:100B00002121210D0A0000000000002025730D0A9C
:100B100000000000417574686F723A4A43264461D0
:100B20005A6869203C76783A323835343038313377
:100B3000363E0D0A0000000020000020696E63723E
:100B400065617365203720696E6368206C6364207B
:100B500050574D2C675F6C63645F70776D203D204C
:100B60002564200D0A000000675F6C63645F707786
:100B70006D203D203130300D0A0000006465637245
:100B800065617365203720696E6368206C6364203B
:100B900050574D2C675F6C63645F70776D203D200C
:100BA0002564200D0A000000675F6C63645F707746
:100BB0006D203D20300D0A00726573657420636FEF
:100BC000726520626F61726421210D0A00000000CD
:100BD0007265736574204C434420262039323131CC
:100BE0000D0A00006F6E00006F6666005761746347
:100BF0006820446F6720537461747573203D20250D
:100C0000730D0A004D637520696E7465726E616CB8
:100C10005F74656D70203D2025640D0A00000000A2
:100C200010B50EA001F046FE10A001F043FE17A083
:100C300001F040FE23A001F03DFE30A001F03AFE9D
:100C400034A001F037FE39A001F034FE40A001F0DD
:100C500031FE47A001F02EFE10BD00000D0A4465D4
:100C600062756720636D643A0D0A0000302E2070B3
:100C700072696E742050726F6772616D206275695F
:100C80006C642074696D650D0A000000312E2037F8
:100C900020696E6368206C63642050574D20696E34
:100CA0006372656163652835696E6368206C63648F
:100CB00020686173206E6F20656666656374290D18
:100CC0000A000000322E203720696E6368206C63B2
:100CD000642050574D2064656372656163652835F3
:100CE000696E6368206C636420686173206E6F2096
:100CF000656666656374290D0A000000332E207254
:100D00006573657420636F726520626F6172642120
:100D1000210D0A00342E207265736574204C434403
:100D2000202620393231310D0A000000352E207086
:100D300072696E7420486172642057617463682020
:100D4000446F67205374617475730D0A00000000CE
:100D5000362E207072696E74204D637520696E7432
:100D600065726E616C5F74656D700D0A0000000045
:100D70006F746865722E207072696E742068656C7D
:100D8000700D0A0010B5044803F0B6FBC4B220464B
:100D9000FFF740FE10BD0000003801402DE9F0478C
:100DA00004460E4617464FF0000A46E0304601F072
:100DB0007BFB00F0FF08207A404501DDBDE8F087AD
:100DC00094F80880207AC0F1040000F0FF0A0025A2
:100DD00007E0601900EB0A01304601F02CFB681CAB
:100DE000C5B24545F5DB2078A52807D1042120466A
:100DF00001F031FD10B9601CB8471EE0012505E087
:100E0000605DA52800D103E0681CC5B2042DF7DBA6
:100E100000BF042D0FD025724FF0000908E0605D7F
:100E200004F80900681CC5B209F1010000F0FF09CF
:100E3000042D02DAF3E704202072B7E770470000C0
:100E40000349086000BF024909680029FBD17047C7
:100E500008000020F0B5034600224FF0E0277D692E
:100E6000104F3F68DFF840C0B7FBFCF7FEB203FB52
:100E700006F44FF0E027B96910E04FF0E027B869B9
:100E800088420BD0884202D20F1A3A4402E02F1A4D
:100E90000F443A440146A24200D300E0EDE700BF10
:100EA000F0BD00006C00002040420F0004480068C4
:100EB00020B103480068401E0149086070470000E7
:100EC0000800002010B50B48028802210A4803F0F0
:100ED000F0F96420FFF7B4FF074803F032FA00F09E
:100EE0001FF800BF05A001F0E5FC08A001F0E2FC3E
:100EF00000BF10BD1E000020002C01403C3C4D599D
:100F00005F44454255473E3E2000000044697361FE
:100F1000626C655F4C63644C696768740D0A00001D
:100F200010B501F09FF94FF48041024802F012F928
:100F300010BD0000000C014010B54FF4805002F0CD
:100F400021F828B14FF4805002F016F801F082FF2A
:100F500010BD10B5102002F015F820B1102002F0DD
:100F60000BF801F083FF10BD10B54FF4007002F0D4
:100F700009F820B14FF4007001F0FEFF06E02020D8
:100F800002F000F810B1202001F0F6FF10BD0000C3
:100F900010B500F037F86420FFF752FF0E490978CA
:100FA00009B9462101E00C49097848B201F06EF90F
:100FB0006420FFF745FF094803F0C8F96420FFF7F4
:100FC0003FFF00F01FF800BF05A001F073FC08A070
:100FD00001F070FC00BF10BD20000020002C01407B
:100FE0003C3C4D595F44454255473E3E2000000081
:100FF000456E61626C655F4C63644C696768740D33
:101000000A00000010B501F037F94FF480410248A2
:1010100002F0A2F810BD0000000C01402DE9F05FC5
:101020000221102001F05EFB83465846FFF732FA9A
:101030008046FFF753FA06464FF06632124BFFF731
:1010400048F904460D4622462B4610481049FFF742
:101050003AF980460F4A104BFFF7ADF906460022D9
:101060000E4BFFF78FF804460D4600220C4B20462E
:101070002946FFF72EF90646FFF711FA0FFA80FA14
:101080005046BDE8F09F000066664A3FE17A14AE24
:1010900047E1F63F22FDF675E09C713F00002440D9
:1010A0000000594038B504460020009001226946EE
:1010B000204600F007F810B19DF8000038BD002070
:1010C000FCE70000F8B504460D4616462B462246BE
:1010D000064800960178002000F0E6F908B90120E2
:1010E00000E0002007463846F8BD00003900002027
:1010F00033B581B00446012002AB22460090064879
:101100000178002000F02EFA08B9012000E000204C
:10111000054628463EBD00003900002000BFFEE71E
:1011200010B504460021204600F0E4FA204601F004
:10113000F7F90021204600F009FB0420FFF78AFEA2
:101140000121204600F0D6FA0620FFF783FE002199
:10115000204600F0CFFA0320FFF77CFE10BD000010
:1011600070B5054640F2036002F07CFE012D02D10D
:101170004FF4406405E0022D02D14FF4407400E0CA
:10118000C024234602221021054802F033F8012131
:10119000284600F0AFFA0121284600F0D7FA70BDCA
:1011A000000C014010B504460021204600F0A2FAD0
:1011B000204601F0B5F90121204600F0C7FA0420CD
:1011C000FFF748FE0121204600F094FA0620FFF7C1
:1011D00041FE0021204600F08DFA0320FFF73AFE81
:1011E00010BD2DE9F04107460D4600240021384688
:1011F00000F080FA384601F075F90320FFF72AFE67
:1012000000261EE00021384600F074FA0520FFF7A2
:1012100021FE0121384600F06DFA6006040E04201C
:10122000FFF718FE384601F043F908B1601CC4B25C
:101230000420FFF70FFE0021384600F05BFA701C17
:10124000C6B2082EDEDB1DB93846FFF7ABFF02E061
:101250003846FFF765FF2046BDE8F08170B50646C9
:101260000C460021304600F045FA304601F058F9AE
:1012700000251CE00320FFF7EDFD04F0800130465F
:1012800000F064FA6006040E0420FFF7E3FD01217C
:10129000304600F02FFA0620FFF7DCFD0021304633
:1012A00000F028FA0320FFF7D5FD681CC5B2082D11
:1012B000E0DB70BD10B50446204601F031F9012194
:1012C000204600F043FA0121204600F013FA0620E0
:1012D000FFF7C0FD0021204600F038FA0620FFF796
:1012E000B9FD0021204600F005FA10BD10B50446F6
:1012F0000021204600F0FEF9204601F011F90021FE
:10130000204600F023FA0620FFF7A4FD0121204625
:1013100000F0F0F90320FFF79DFD0121204600F0C9
:1013200015FA0620FFF796FD10BD70B5054600249E
:101330000021284600F0DEF90320FFF78BFD012194
:10134000284600F003FA0320FFF784FD284601F049
:10135000C9F80121284600F0CDF90320FFF77AFDF6
:101360000BE0601CC4B2FA2C04DD2846FFF7BEFF78
:10137000012070BD0120FFF76DFD284601F098F8AF
:101380000028EED10021284600F0B4F90320FFF731
:1013900061FD0020EDE7000010B504460120A040EB
:1013A00008490978084000B110BD2046FFF7D8FE73
:1013B0000120A0400349097808430249087000BF92
:1013C000F2E700001A0000202DE9F04107468846A8
:1013D00015461E463846FFF76DFF48F001013846B6
:1013E000FFF73CFF3846FFF7A0FF002811D000BFF1
:1013F000144B2E2214A118A001F05CFA39461FA04C
:1014000001F058FA00BF3846FFF770FF0220BDE830
:10141000F08100240FE0701EA04205D10021384663
:10142000FFF7DFFE285504E001213846FFF7D9FE1B
:101430002855601CC4B2B442EDDB3846FFF756FFB6
:101440000020E4E7484700087372635C6969635FE2
:101450006170702E630000003C3C46696C653A2563
:101460007320204C696E653A2564202046756E63B2
:1014700074696F6E3A25733E3E2000004552524F0C
:10148000523A4949435F576169745F41636B286908
:101490006E64657829213D203020696E646578206E
:1014A0003D2025640D0A00002DE9F84305460F464E
:1014B00090461E46DDF820900020034642463946FD
:1014C0000090284600F04EF80446FF2C07D14B460A
:1014D000324639462846FFF777FFBDE8F88300BF5C
:1014E000064B9F2206A10AA001F0E4F92A462146F4
:1014F00010A001F0DFF900BF2046EEE770470008BA
:101500007372635C6969635F6170702E63000000D1
:101510003C3C46696C653A257320204C696E653AFF
:101520002564202046756E6374696F6E3A25733E9C
:101530003E2000004552524F523A204969634170A3
:10154000705F57726974655F427974657320726564
:1015500074203D20256420696E646578203D202537
:10156000640D0A002DE9F04705460E4617469846D9
:10157000DDF820902846FFF79DFE06F0FE01284684
:10158000FFF76CFE2846FFF7D0FE90B100BF2C4B52
:101590005F222CA12FA001F08DF92A463146364852
:1015A00001F088F900BF2846FFF7A0FE0220BDE841
:1015B000F08739462846FFF751FE2846FFF7B5FE6B
:1015C000002810D000BF1E4B69221EA121A001F0EF
:1015D00071F9294629A001F06DF900BF2846FFF7EF
:1015E00085FE0320E3E7B9F1000F01D1FF20DEE71C
:1015F00000241DE018F804102846FFF72FFE2846A7
:10160000FFF793FE002811D000BF0D4B7C220DA1E7
:1016100010A001F04FF92A46214627A001F04AF90F
:1016200000BF2846FFF762FE0420C0E7601CC4B27A
:101630004C45DFDB2846FFF759FE0020B7E70000E6
:101640005D4700087372635C6969635F6170702E47
:10165000630000003C3C46696C653A257320204CD1
:10166000696E653A2564202046756E6374696F6EF5
:101670003A25733E3E200000CC4700084552524FA9
:10168000523A2073656E6420776F72645F616464A0
:1016900072204949435F576169745F41636B2869F0
:1016A0006E64657829213D203020696E646578205C
:1016B0003D2025640D0A00004552524F523A2073D6
:1016C000656E642064617461204949435F576169B4
:1016D000745F41636B28696E64657829213D203011
:1016E00020693D256420696E646578203D2025646D
:1016F0000D0A000070B505460C46012D0BD124B132
:101700008102114801F028FD1DE04FF480610E4870
:1017100001F020FD17E0022D0BD124B1E9010A48A8
:1017200001F01AFD0FE04FF48071074801F012FD3F
:1017300009E024B14021044801F00EFD03E04021FE
:10174000014801F007FD70BD000C014070B5054671
:101750000C46012D0BD124B1C102114801F0FCFC53
:101760001DE04FF400610E4801F0F4FC17E0022D7B
:101770000BD124B129020A4801F0EEFC0FE04FF42E
:101780000071074801F0E6FC09E024B1802104481B
:1017900001F0E2FC03E08021014801F0DBFC70BDB8
:1017A000000C014010B5FFF739FC0149088010BD5D
:1017B0006200002010B58121FF20FFF799FC002076
:1017C000FFF770FC044621460BA001F073F80120DE
:1017D000FFF768FC044621460DA001F06BF80220DB
:1017E000FFF760FC0446214609A001F063F80AA057
:1017F00001F060F810BD00000D0A4C54393231314F
:1018000020436869702049443A25782C0000000084
:1018100025782C20000000000D0A000010B586215C
:10182000FF20FFF765FC01210020FFF761FC4FF46A
:101830009670FFF705FB00240820FFF733FC00F04B
:101840000F0424020920FFF72DFC044424020A207F
:10185000FFF728FC0444214611A001F02BF8862153
:10186000FF20FFF745FC0A210020FFF741FC4FF461
:101870009670FFF7E5FA00240820FFF713FC00F04C
:101880000F0424020920FFF70DFC044424020A205F
:10189000FFF708FC0444214608A001F00BF810BD36
:1018A0000D0A6D69706920696E70757420627974B3
:1018B0006520636C6F636B3A202575000D0A6465C3
:1018C00073736320706978656C20636C6F636B3A27
:1018D0002025750A0000000010B501F0BBFF00F0E4
:1018E0008FF900F001F810BD10B511A000F0E2FF73
:1018F000FFF760FF00F0DEF900F02EF900F00EF9BE
:1019000000F00AFA00F06EF900F034F80A20FFF750
:1019100097FA00F011FB00F0C1FA00F073FA01F041
:10192000C9FF01F0BDFFFFF779FF00F099FB10BD83
:101930000D0A204C54393231315F6D697069207461
:101940006F2054544C0D0A0010B50020FFF724FD01
:1019500040F2066002F086FA02231A46102104487B
:1019600001F048FC0221024801F0F4FB10BD000028
:101970000018014070B5D021FF20FFF7B9FB6021AE
:101980000C20FFF7B5FB60211C20FFF7B1FB702195
:101990002420FFF7ADFB30212D20FFF7A9FB0A2102
:1019A0003120FFF7A5FBF0212520FFF7A1FB302117
:1019B0002A20FFF79DFB4F212120FFF799FB0021F3
:1019C0002220FFF795FB01211E20FFF791FB8021CC
:1019D0002320FFF78DFB02210A20FFF789FB02215C
:1019E0003820FFF785FB04213920FFF781FB082110
:1019F0003A20FFF77DFB10213B20FFF779FB042104
:101A00003F20FFF775FB08214020FFF771FB1021F5
:101A10004120FFF76DFB20214220FFF769FBA02149
:101A20002B20FFF765FBD021FF20FFF761FB26206D
:101A3000FFF738FB054605F07F0529462620FFF70E
:101A400057FB0F212720FFF753FB8121FF20FFF7D2
:101A50004FFBBF212020FFF74BFBFF212020FFF78A
:101A600047FB0520FFF7ECF96F210B20FFF740FB48
:101A7000FF210B20FFF73CFB4FF44870FFF7E0F924
:101A8000002415E0C820FFF7DBF9D021FF20FFF785
:101A90002FFB8720FFF706FB00F0080018B10DA010
:101AA00000F008FF06E010A000F004FF601CC4B2C4
:101AB0000A2CE7DB00BFD021FF20FFF719FB9420A1
:101AC000FFF7F0FA00F07F0631460EA000F0F2FEBC
:101AD00070BD00000D0A4C543932313120706372F0
:101AE00020737461626C65000D0A4C5439323131D7
:101AF0002070637220756E737461626C65212121A0
:101B0000210000004C5439323131207063725F7310
:101B10007461626C655F4D3D25780A0010B58621C1
:101B2000FF20FFF7E5FA85213020FFF7E1FAD82101
:101B3000FF20FFF7DDFA00211620FFF7D9FAD021A8
:101B4000FF20FFF7D5FA12214320FFF7D1FA052134
:101B50000220FFF7CDFA10BD10B5D021FF20FFF70E
:101B6000C7FA00210846FFF7C3FA8221FF20FFF7DA
:101B7000BFFA44210220FFF7BBFA36210520FFF708
:101B8000B7FA26210D20FFF7B3FA0C211720FFF733
:101B9000AFFA0C211D20FFF7ABFA81210A20FFF7D5
:101BA000A7FA00210B20FFF7A3FA9F210720FFF7D8
:101BB0009FFAFC210820FFF79BFA01210920FFF77B
:101BC00097FA01211120FFF793FA8621FF20FFF7F2
:101BD0008FFA1B213320FFF78BFA1B213420FFF7EC
:101BE00087FA10BD10B58221FF20FFF781FA482146
:101BF0002D20FFF77DFA82213520FFF779FA10BDFD
:101C000010B50221064801F0A5FA6420FFF718F983
:101C10000221034801F0A0FA6420FFF711F910BD7A
:101C20000018014010B504466420FFF709F9D021DF
:101C3000FF20FFF75DFA608A01120D20FFF758FAC6
:101C4000A17C0E20FFF754FA208A01120F20FFF723
:101C50004FFA217C1020FFF74BFA217B1520FFF76C
:101C600047FA608901121720FFF742FAA17A18207B
:101C7000FFF73EFA208901121120FFF739FA217A85
:101C80001220FFF735FAE08801121320FFF730FA2F
:101C9000A1791420FFF72CFAA1781620FFF728FA73
:101CA000208801121920FFF723FA21781A20FFF764
:101CB0001FFA10BD10B58221FF20FFF719FA182175
:101CC0000120FFF715FA8621FF20FFF711FA6121A5
:101CD0000620FFF70DFAA8210720FFF709FA872150
:101CE000FF20FFF705FA08211420FFF701FA002171
:101CF0001520FFF7FDF90F211820FFF7F9F908214A
:101D00002220FFF7F5F900212320FFF7F1F90F2139
:101D10002620FFF7EDF910BD2DE9F04100274FF423
:101D2000FA70FFF78DF8D021FF20FFF7E1F983204B
:101D3000FFF7B8F980468220FFF7B4F908EB0020DE
:101D400084B2032094FBF0F084B28420FFF7AAF958
:101D500000F00F068620FFF7A5F980468520FFF7E3
:101D6000A1F908EB002085B29C20FFF79BF90746FC
:101D700021460EA000F09EFD294610A000F09AFD1D
:101D8000314612A000F096FD394614A000F092FDF5
:101D90006420FFF755F80120144908701448FFF734
:101DA00041FF14A000F086FDBDE8F0810D0A6861D6
:101DB0006374203D2025750A0D0000000D0A766130
:101DC0006374203D2025750A0D0000000D0A666D24
:101DD00074203D2025780A0D000000000D0A706176
:101DE0005F6C706E203D2025780D0A0038000020C1
:101DF0003C00002031303234783630305F363048A5
:101E00007A0D0A0010B51EA000F054FD8521FF20B8
:101E1000FFF76EF940215920FFF76AF9AA215A20ED
:101E2000FFF766F9AA215B20FFF762F900215C2029
:101E3000FFF75EF950218820FFF75AF97721A1209A
:101E4000FFF756F98621FF20FFF752F94021084697
:101E5000FFF74EF934214120FFF74AF910214220C3
:101E6000FFF746F923214320FFF742F9412144209F
:101E7000FFF73EF902214520FFF73AF910BD0000B7
:101E80000D4C54393231312073657420746F204FFA
:101E900055545055545F4C564453000010B58221A0
:101EA000FF20FFF725F900216220FFF721F9082123
:101EB0003B20FFF71DF992213E20FFF719F9482139
:101EC0003F20FFF715F931214020FFF711F980215C
:101ED0004320FFF70DF900214420FFF709F9002105
:101EE0004520FFF705F900214920FFF701F90121FD
:101EF0004A20FFF7FDF800214E20FFF7F9F80021F6
:101F00004F20FFF7F5F800215020FFF7F1F80021EE
:101F10005320FFF7EDF801215420FFF7E9F8812164
:101F2000FF20FFF7E5F879212020FFF7E1F8FF21F6
:101F30002020FFF7DDF810BD10B58221FF20FFF74C
:101F4000D7F801213620FFF7D3F829213720FFF7F2
:101F5000CFF806213820FFF7CBF830213920FFF7E2
:101F6000C7F88E213A20FFF7C3F88121FF20FFF741
:101F7000BFF8F7212020FFF7BBF8FF212020FFF753
:101F8000B7F88721FF20FFF7B3F814213720FFF7B8
:101F9000AFF800211320FFF7ABF880211320FFF7E3
:101FA000A7F86420FEF74CFF00241FE08721FF20E4
:101FB000FFF79EF81F20FFF775F800F0800080B152
:101FC0002020FFF76FF800F0800018B10BA000F0A0
:101FD00071FC02E00FA000F06DFC15A000F06AFC9F
:101FE00006E00CA000F066FC601CC4B20A2CDDDB2D
:101FF00000BF16A000F05EFC10BD00000D0A4C549E
:102000003932313120747820706C6C206C6F636BC6
:10201000000000000D0A4C54393231312074782010
:10202000706C6C20756E6C6F636B656400000000F3
:102030000D0A4C543932313120747820706C6C2088
:1020400063616C20646F6E65000000000D0A2073F0
:10205000797374656D207375636365737300000035
:102060001CB58621FF20FFF743F87020FFF71AF810
:1020700004467120FFF716F8484908807220FFF7E0
:1020800011F8474908807320FFF70CF84449097894
:1020900000EB0120424908807420FFF703F8414912
:1020A00008807520FEF7FEFF3F4908807620FEF786
:1020B000F9FF3E4908807720FEF7F4FF3B49097895
:1020C00000EB0120394908807820FEF7EBFF384902
:1020D00008807920FEF7E6FF3549097800EB0120FA
:1020E000334908807A20FEF7DDFF324908807B20E3
:1020F000FEF7D8FF2F49097800EB01202D49088011
:102100007C20FEF7CFFF2C4908807D20FEF7CAFF18
:102110002949097800EB0120274908807E20FEF735
:10212000C1FF264908807F20FEF7BCFF23490978BC
:1021300000EB0120214908808020FEF7B3FF2049F1
:1021400008808120FEF7AEFF1D49097800EB0120D1
:102150001B49088021461BA000F0ACFB16480088F4
:1021600017490988CDE90010104803880C480288F7
:102170000F48018819A000F09DFB0E4800880F4908
:102180000988CDE9001007480388044802880648FA
:1021900001881EA000F08EFB1CBD00002A0000205C
:1021A000280000202E000020360000202C000020F7
:1021B00034000020320000203000002026000020E3
:1021C000240000200D0A73796E635F706F6C61727A
:1021D000697479203D202578000000000D0A6866AA
:1021E000702C2068732C206862702C2068616374E6
:1021F0002C2068746F74616C203D20257520257536
:102200002025752025752025750D0A000D0A766696
:10221000702C2076732C207662702C20766163748B
:102220002C2076746F74616C203D202575202575F7
:102230002025752025752025750D0A0010B540F262
:10224000066001F00FFE4FF4004302221021044803
:1022500000F0D0FF4FF40041014800F07BFF10BDBB
:102260000018014010B54FF40041024800F072FF21
:1022700010BD00000018014010B54FF400410248A5
:1022800000F06AFF10BD00000018014070B5044660
:10229000642C01DD642402E0002C00DA00240D49E6
:1022A0000C7000BF0CA000F005FB0A4801780EA0DE
:1022B00000F000FB00BFC4F16400134909884843E3
:1022C000642190FBF1F52A460221104801F0F1FF4C
:1022D00070BD0000200000203C3C4D595F44454249
:1022E00055473E3E200000004C63645F70776D5F91
:1022F0006F757420675F6C63645F70776D203D203D
:1023000025640D0A000000001E000020002C014082
:1023100010B51021014800F01FFF10BD000C014056
:1023200010B51021014800F015FF10BD000C014050
:1023300010B540F2036001F095FD1023022219460A
:10234000034800F057FF1021014800F003FF10BDC3
:10235000000C014000BFFEE710B540F2056001F03F
:1023600081FD402302221021034800F043FF402159
:10237000014800F0EFFE10BD0014014010B5044606
:1023800000BF09A000F096FA21460BA000F092FAD7
:1023900000BF24B14021124800F0DEFE03E04021DE
:1023A0000F4800F0D7FE10BD3C3C4D595F444542FC
:1023B00055473E3E200000004D696343746C5F4307
:1023C0006F6E74726F6C5F4F7574486967682073C5
:1023D0007461747573203D2025640D0A00000000AF
:1023E000001401407047000010B540F2046001F095
:1023F00039FD0F2302221021054800F0FBFE0421C5
:10240000034800F0A7FE0B21014800F0A5FE10BD17
:102410000010014010B50446002C08DD052C06DA3A
:10242000601E012202FA00F1014800F095FE10BD85
:102430000010014070470246907810B94FF0FF300D
:1024400070471378D01CC05C08701378581CC317F1
:1024500000EB93639B11A0EB831313709078401EE5
:1024600090700020ECE70246907840280BD113785A
:10247000581CC31700EB93639B11A0EB83131370DD
:102480009078401E90705378D01CC1545378581CDB
:10249000C31700EB93639B11A0EB831353709078E9
:1024A000401C9070002070470146887870470000FB
:1024B00010B50446012C04D1C102084800F0F0FE1A
:1024C00010BD022C04D12102044800F0E9FEF7E718
:1024D0008021024800F0E4FEF2E70000000C014019
:1024E0007047000010B50446012C06D1C302022239
:1024F00048210A4800F07EFE0EE0022C06D123029D
:1025000002224821054800F075FE05E080230222E2
:102510004821024800F06EFE10BD0000000C014092
:1025200010B50446012C06D1C302022210210A482C
:1025300000F060FE0EE0022C06D1230202221021E0
:10254000054800F057FE05E08023022210210248D2
:1025500000F050FE10BD0000000C014010B500F06E
:102560005BF810BD10B51448006840F00100124936
:10257000086008464068114908400F49486008460D
:1025800000680F4908400C4908600846006820F4BC
:1025900080200860084640680A49084006494860AB
:1025A0000846006806490840034908604FF41F00C8
:1025B000886001F03FFD10BD001002400C00FFE8F4
:1025C000FFFFF6FEFFFF00F710B5124800684FF45A
:1025D0007A71B0FBF1F4601EB0F1807F01D301206D
:1025E0000FE0601E4FF0E02148610F214FF0FF30F7
:1025F00000F070F900204FF0E021886107200861A9
:10260000002008B100BFFEE70021481E00F062F97B
:1026100010BD00006C00002000B523480068401C7D
:1026200021490860FEF742FC1F4800681421B0FBF6
:10263000F1F201FB1200022805D11C48008840F08D
:1026400002001A490880184800686421B0FBF1F2C2
:1026500001FB1200172805D11448008840F004003F
:1026600012490880104800684FF47A71B0FBF1F20B
:1026700001FB12000A2805D10C48008840F40040F4
:102680000A490880084800684FF47A71B0FBF1F2FB
:1026900001FB1200E92805D10448008840F0080039
:1026A0000249088000BD00000C000020040000204A
:1026B00070B5044600250221094800F019FB0848BE
:1026C00000F07EFB0546052322460021044800F069
:1026D00021FB0121024800F077FB284670BD000075
:1026E000002401402DE9F04107460C460025002654
:1026F00008E03846FFF7DCFF05440520FEF7A0FBA5
:10270000701CC6B2A642F4DBB5FBF4F080B2BDE8A3
:10271000F081000010B50949087800EBD07149102C
:10272000A0EB410111B1FFF7FBFD01E0FFF7F0FD68
:1027300002480078401C0149087010BD1C000020B0
:1027400010B50B490B4801F074FF30B1FEF71AFBCE
:102750000749084801F060FF08E00749054801F013
:1027600068FF18B10449034801F056FF10BD00008E
:1027700005030500003801400403040010B51749A3
:10278000174801F056FF88B1FEF736F9134914488F
:1027900001F042FF13480078F0B94FF4417110483E
:1027A00001F02DFF01200F49087015E00E490C487B
:1027B00001F03FFF80B1FEF709F90B49084801F02D
:1027C0002BFF0848007838B14FF44171044801F0FC
:1027D00009FF00200349087010BD00000503050033
:1027E000004400401B000020040304007CB50446A4
:1027F0000D460E4903C9CDE90001012C00DD7CBD69
:102800000120A0400A490978084060B100BF5DF886
:102810002400072101F0C7FE0028F8D05DF824004D
:10282000294601F06EFE00BFE9E7000028470008D6
:10283000100000202DE9F04107460D461646002401
:1028400005E0295D3846FFF7D1FF601CC4B2B442F1
:10285000F7DBBDE8F081F0B504460D464FF0FF37D9
:102860000CB93846F0BD681E265CC1B22046FEF7A2
:102870009FF8B04200D100273846F3E700BFFEE7DB
:1028800010B58021014800F067FC10BD0014014024
:1028900010B540F2056001F0E5FA80230222102114
:1028A000034800F0A7FC8021014800F053FC10BD54
:1028B000001401400FB4054B10B503A9044A029857
:1028C00000F02CF810BC5DF814FB0000A92F0008E4
:1028D0007000002010B5002804DB0A07130E054A1B
:1028E000135406E00A07140E034A00F00F031B1FDF
:1028F000D45410BD00E400E018ED00E002E008C888
:10290000121F08C1002AFAD170477047002001E069
:1029100001C1121F002AFBD1704700002DE9FF4FB3
:102920008DB09B460F460446002606E025280BD0B6
:102930005A460F999047641C761C20780028F5D1E0
:1029400011B03046BDE8F08F0025A8460122984915
:1029500000E0054314F8013F203B02FA03F008426F
:10296000F7D120782E2817D114F8010F45F004056F
:102970002A280ED06FF02F022078A0F1300109290B
:102980000AD808EB880102EB410100EB0108641C46
:10299000F2E757F8048B641C20786C280DD004DC17
:1029A0004C2812D06A2811D104E074280DD07A285E
:1029B0000CD10AE045F4001507E0617845F4801574
:1029C000814202D1641C05F58015641C2278692AB5
:1029D00045D008DC002AB3D0582A69D0632A10D029
:1029E000642A08D13BE0702A67D0732A13D0752A75
:1029F0005CD0782A5CD010465A460F999047761CD6
:102A0000D3E017F8040B8DF8000000208DF80100CA
:102A1000E946012003E057F8049B4FF0FF306907B7
:102A20004FF0000501D40AE06D1C45450DDA8542E2
:102A3000FADB19F805100029F6D106E06D1C854275
:102A4000FCDB19F805100029F8D12E4404E019F830
:102A5000010B5A460F9990476D1EF8D2A5E00A2047
:102A60000021CDE90801C5F3025002280DD001CFA5
:102A7000C117031E71F100030DDA4FF0000CD0EB0B
:102A80000C006CEB01012D2308E0FF1D27F0070768
:102A9000F7E80201EDE72B0504D52B238DF828304C
:102AA00001233BE0EB0739D02023F7E70A2000E0C1
:102AB00010200021CDE9080107E01020002145F099
:102AC0000405CDE908014FF00808C5F302500228BB
:102AD0000FD001CF00214FF0000A2B071FD5702A1D
:102AE0000DD0DDE908C38CF0100C5CEA030C0CD0AF
:102AF00015E0FF1D27F00707F7E80201EBE740228A
:102B00008DF828204FF0010A0BE050EA010306D0AF
:102B100030238DF828308DF8292002239A46582A30
:102B200004D024A20DF120090B9209E026A2F9E7B6
:102B3000DDE90823FDF7E5FC0B9B9B5C09F8013DF3
:102B400050EA0102F4D1ADEB09002030089068078B
:102B500001D44FF001080899884502DDA8EB010077
:102B600000E000208046002506E00AA85A46405DA5
:102B70000F9990476D1C761C5545F6DB04E030201C
:102B80005A460F999047761CB8F10001A8F1010848
:102B9000F5DC05E019F8010B5A460F999047761CB1
:102BA0000899481E08900029F4DC641CC5E6000062
:102BB0000928010030313233343536373839616213
:102BC00063646566000000003031323334353637D7
:102BD000383941424344454600000000816841F0D5
:102BE0000801816000BF816801F008010029FAD165
:102BF000816841F00401816000BF816801F0040137
:102C00000029FAD1704730B5012902D002291AD122
:102C10000CE0C36A23F47003C362C36A541E4FF40A
:102C2000700505EA04542343C3620DE0836B23F46B
:102C300040138363836B541E4FF4401505EA04541C
:102C40002343836300E000BF00BF30BD21B1826831
:102C500042F40062826003E0826822F400628260D3
:102C6000704730B5436823F4C0534360012904D052
:102C7000022913D0042916D116E0436823F46043D7
:102C800043604368541E4FF4604505EA44342343CF
:102C90004360436843F40063436006E0436843F4E1
:102CA0008053436001E000BF00BF00BF30BD8168BA
:102CB00001F0010119B9816841F00101816070479B
:102CC000012902D0022910D107E0836823F4602390
:102CD000836083681343836008E0836823F4E043E0
:102CE000836083681343836000E000BF00BF7047C8
:102CF00002688A43026070470549096821F470211F
:102D0000034A1160114609680143116070470000D1
:102D100004240140F0B51D4606290CDA436B01EB93
:102D200081071F26BE40B34301EB810602FA06F677
:102D30003343436322E00C290EDA036B8E1F06EB4C
:102D400086071F26BE40B3438E1F06EB860602FA97
:102D500006F63343036311E010290FDAC36AA1F1C9
:102D60000C0606EB86071F26BE40B343A1F10C06F6
:102D700006EB860602FA06F63343C3620A2A0CDA29
:102D8000046902EB42070726BE40B44302EB420649
:102D900005FA06F63443046111E0122A0FDAC4681A
:102DA000A2F10A0606EB46070726BE40B443A2F18D
:102DB0000A0606EB460605FA06F63443C460F0BD83
:102DC0000146C86C80B2704701F001021AB18268F6
:102DD00042F48002826001F002021AB1826842F479
:102DE000001282607047AAB101F480731BB143687E
:102DF00043F48073436001F480631BB1436843F480
:102E00008063436001F00203CBB1836843F00203A7
:102E1000836014E001F480731BB1436823F4807372
:102E2000436001F480631BB1436823F48063436013
:102E300001F002031BB1836823F002038360704733
:102E40000348006840F40000014908607047000032
:102E50000824014010B50520034908704FF4805044
:102E600000F07AF810BD00005400002010B504A056
:102E7000FFF720FD0948007808B100F08DFB10BD78
:102E80006578696E74345F68616E646C6520726524
:102E900073657420636F72650D0A00006400002082
:102EA00010B52C4B1B6883432A4C2360231D1B68E1
:102EB0008343241D2360231D1B688343241D23603B
:102EC000231D1B688343241D236011B101290ED1EA
:102ED00005E0204B1B6803431E4C236008E01D4B9C
:102EE0001B1D1B6803431B4C241D236000E000BF17
:102EF00000BF22B1012A0FD0022A27D119E0154BB9
:102F000008331B680343134C08342360231D1B68DC
:102F10008343241D23601AE00E4B08331B68834350
:102F20000C4C08342360231D1B680343241D2360BD
:102F30000DE0084B08331B680343064C083423603C
:102F4000231D1B680343241D236000E000BF00BF56
:102F500010BD000000040140024909688143014A94
:102F60001160704700040140024909680143014AA9
:102F7000116070470004014001490860704700007B
:102F80001404014001460748006800EA01020548B0
:102F90001438006800EA010312B10BB10120704738
:102FA0000020FCE71404014070B504460D46E1B270
:102FB0000020FFF71BFC204670BD000070B50446E2
:102FC000394D012C00D1394D0120A04038490978F4
:102FD000084000B170BD374931F8140000F042FFDD
:102FE000354931F8140000F03DFF344951F82430E0
:102FF000334951F824000222182100F0FBF831492E
:1030000051F824302E4951F824000222042100F006
:10301000F1F8284601F07AFA4FF4E131284601F040
:1030200023FA0021284601F040FB0021284601F048
:103030002CFB0021284601F018FB0021284601F056
:10304000C9FA0021284601F0BDFA0421284601F002
:1030500014FB0821284601F020FB284601F09EFAC7
:1030600040F20531284601F0CAFA012C06D14FF48E
:103070004171284601F0C3FAFDF7B6FC124B1B5D07
:1030800003F00302104B1B5D9910104B13F8240042
:1030900000F0D2FD0120A040054909780843044909
:1030A000087000BF96E7000000380140004400406F
:1030B0001000002018470008FC46000800470008E0
:1030C0001047000808470008244700081C4700086C
:1030D00001480078704700006400002010B500BF70
:1030E00006A0FFF7E7FB0948B0F9001008A0FFF7BA
:1030F000E1FB00BF0548B0F9000010BD3C3C4D5954
:103100005F44454255473E3E2000000062000020DB
:103110006765745F696E7465726E616C5F74656D0E
:10312000702020675F696E745F74656D70203D204C
:1031300025640D0A000000000146282901DDFF205A
:10314000704703480068C84000F00100F8E700003D
:103150005C000020416170470161704710B500229A
:103160008B071C0F0F2303FA04F204290EDA204BFD
:103170009B6893431E4CA36023469B688C07240FD7
:1031800000FA04F423431A4CA3602FE008290EDA56
:10319000174BDB689343164CE3602346DB688C07D0
:1031A000240F00FA04F42343114CE3601EE00C29C1
:1031B0000EDA0F4B1B6993430D4C236123461B69A9
:1031C0008C07240F00FA04F42343094C23610DE01B
:1031D000074B5B699343064C636123465B698C072D
:1031E000240F00FA04F42343014C636110BD000076
:1031F00000000140F0B5044616460025002201F00B
:103200000F0501F0100707B1354300201EE001272C
:1032100087401F40C7B122684FEA800C0F2707FA8A
:103220000CF7BA43870005FA07F73A43282904D177
:10323000012787401F40676105E0482903D1012726
:1032400087401F4027612260471CB8B20828DED3A0
:10325000082022E0012787401F40E7B16268A0F103
:1032600008074FEA870C0F2707FA0CF7BA43A0F1BB
:103270000807BF0005FA07F73A43282904D10127B8
:1032800087401F40676105E0482903D10127874037
:103290001F4027616260471CB8B21028DAD3F0BD26
:1032A00002469068084008B1012070470020FCE702
:1032B0000246D068084008B1012070470020FCE7B2
:1032C0000146C86880B27047F0B50A460023002462
:1032D0000021002500F00046B6F1004F02D11D4E3E
:1032E000F16901E01B4E7168C0F3034583B200F43D
:1032F0004016B6F5401F08D121F07061154E766872
:1033000026F07066134F7E6012E000F48016B6F56A
:10331000801F06D1032606FA05F4A14341F070612F
:1033200006E0460D360103FA06F6B14341F070613E
:1033300022B1460D360103FA06F6314300F000468D
:10334000B6F1004F02D1034EF16101E0014E716010
:10335000F0BD000000000140C160704710B50020C2
:103360000549087000BF05A0FFF7A4FA07A0FFF702
:10337000A1FA00BF10BD0000640000203C3C4D5984
:103380005F44454255473E3E20000000686172643C
:103390005F7774645F64697361626C650D0A000035
:1033A00010B50120074908700748008807490880C0
:1033B00000BF07A0FFF77EFA09A0FFF77BFA00BF66
:1033C00010BD00006400002066000020680000209E
:1033D0003C3C4D595F44454255473E3E200000006D
:1033E000686172645F7774645F656E61626C650DBD
:1033F0000A00000010B5064800880649088000BF92
:1034000005A0FFF757FA08A0FFF754FA00BF10BD58
:1034100066000020680000203C3C4D595F44454256
:1034200055473E3E20000000686172645F77746417
:103430005F666565640D0A0010B520210648FFF738
:1034400037FF20B120210448FFF784FE03E020214C
:103450000148FFF781FE10BD0008014010B511487A
:103460000088401C0F490880084600880A2803DDB0
:1034700000200880FFF7E0FF0B48007888B10B4878
:10348000008870B109480088401E08490880084635
:10349000008830B906A0FFF70DFA00F07DF8FFF7BD
:1034A0005DFF10BD6A00002064000020680000205D
:1034B000686172645F7774645F666565645F746198
:1034C000736B2074696D656F75740D0A00000000E0
:1034D00010B500BF06A0FFF7EDF90948018809A063
:1034E000FFF7E8F900BF06480088C0B210BD000031
:1034F0003C3C4D595F44454255473E3E200000004C
:1035000066000020686172645F7774645F67657449
:103510005F74696D656F75742074696D656F75741E
:10352000203D202564282A3130306D73290D0A0092
:1035300010B540F2026000F095FC80211548FFF7BD
:1035400009FE40211348FFF707FEE0230222102165
:103550001048FFF74FFE1023022248210D48FFF7C5
:1035600049FE4FF4C06000F07DFC04210020FFF70D
:10357000F5FD012200211020FFF792FC1020FFF73B
:10358000F3FC1020FFF7F8FC022201210A2000F0D2
:1035900053FB10BD0008014010B540210548FFF75E
:1035A000D9FDC820FDF74CFC40210248FFF7D4FDAF
:1035B00010BD00000008014010B5044600BF05A082
:1035C000FFF778F9214607A0FFF774F900BF10480C
:1035D000048010BD3C3C4D595F44454255473E3E3A
:1035E00020000000686172645F7774645F736574C3
:1035F0005F74696D656F75742074696D656F75743E
:10360000203D202564282A3130306D73290D0A00B1
:103610006600002010B504462146282000F014F86A
:1036200010BD000010B504462CB14FF48071054860
:10363000FFF790FD04E04FF480710248FFF78CFD26
:1036400010BD00000018014070B504460D46292C3D
:1036500003DA204600F06AF800E070BD0120FFF7B1
:10366000E1FF9DB14FF480411548FFF775FD282C0F
:1036700004D14FF0FF301349086019E00120A04049
:103680001049096808430F49086011E04FF4804170
:103690000B48FFF75FFD282C03D100200949086083
:1036A00006E00120A0400749096881430548016000
:1036B0000120FDF7C5FB0020FFF7B4FF00BFCCE7FA
:1036C000001401405C00002010B540F2056000F0DD
:1036D000C9FB4FF49043022210211248FFF78AFDE4
:1036E0004FF490410F48FFF735FD40F2066000F0BF
:1036F000B9FB7C242346022210210B48FFF77AFDF8
:1037000021460948FFF726FD4FF44073022210219D
:103710000548FFF76FFD4FF440710348FFF71CFDAC
:1037200010BD0000001401400018014070B50446AF
:103730000E48FFF7C5FD054625F07C0504F03E0068
:1037400045EA400529460948FFF706FE04F0010056
:1037500028B14FF400610648FFF7FEFC04E04FF487
:1037600000610348FFF7F6FC70BD0000001801403F
:103770000014014030B587B0044640F2036000F009
:1037800071FB4FF40043022218212C48FFF732FD51
:1037900040F20B6000F066FB642C00DD64242848D6
:1037A000047003A800F054FE26480088401E0590CF
:1037B000254800682549B0FBF1F0401E80B2ADF805
:1037C0000C0003A9224800F0C7FD684600F0B1FDD7
:1037D0000420ADF802006A4602211D4800F046FCB4
:1037E000702202211A4800F037FDC4F16400154927
:1037F00009884843642190FBF1F52A4602211448C8
:1038000000F057FD00220221114800F065FD012162
:103810000F4800F011FE0E4800F022FC4FF48043E8
:10382000022210210548FFF7E5FC4FF480410348D0
:10383000FFF790FCFDF746FB07B030BD000C0140E0
:10384000200000201E0000206C00002040420F00DD
:10385000002C014010B54FF480710648FFF77AFC48
:103860006420FDF7EDFA4FF480710248FFF774FC15
:1038700010BD00000014014010B540F2056000F0DA
:10388000F1FA4FF48073022210210448FFF7B2FCD2
:103890004FF480710148FFF75FFC10BD0014014038
:1038A00010B58221FF20FDF723FC38213B20FDF7D6
:1038B0001FFC10BD10B58121FF20FDF719FCFB2175
:1038C0000D20FDF715FC0A20FDF7BAFAFF210D20A7
:1038D000FDF70EFC10BD000090B04022174968466D
:1038E000FCF72CFCFDF724F81548016815A0FEF73D
:1038F000E1FF16A0FEF7DEFF1EE0002415E0012028
:10390000A0401A490988084068B10120A040174921
:1039100009888143154801805DF8240018B15DF8DD
:103920002400804707E0601CC4B2102C03DA0F4863
:1039300000880028E3D100BFDFE70000BC46000894
:103940000000002025730D0A00000000426F617224
:1039500064496E697420646F6E65212032303232A2
:103960002D30372D30310D0A0000000004000020FA
:1039700008B51EA000680090022000F015F96A4604
:103980000021022000F02DF900231A4619460220DA
:1039900000F038F940F2036000F064FA4FF4C060C0
:1039A00000F060FA4FF48053022248211048FFF7DC
:1039B00021FC0C210120FFF7D1FB01220021100383
:1039C000FFF76EFA4FF48050FFF7CEFA4FF48050B5
:1039D000FFF7D2FA02220121282000F02DF900F091
:1039E0000BF890210348FCF7C2FB08BD00FF000064
:1039F000000C0140B800002008B56B4601220021F0
:103A0000022000F0D7F860B99DF8000000F03F00F8
:103A10003F2804D09DF8000000F03F0008BD3F2083
:103A2000FCE702A0FEF746FFFF20F7E74552524FA2
:103A3000523A204B45595F524F575F5343414E20F6
:103A40006E6361393535355F726561645F696E70CB
:103A50006F72740D0A0000002DE9F0410027FFF796
:103A6000CBFF07463F2F55DA002550E03D48435D28
:103A700000221146022000F0C5F820B129463AA0E4
:103A8000FEF718FF41E0FFF7B7FF0746002639E0D1
:103A9000062000FB0560C4B247FA06F000F0010002
:103AA000E8B93E4830F81400022829DA3B4830F8DB
:103AB0001400401C81B2394820F8141030F814006A
:103AC00002281DD10120354948390855611CC8B26A
:103AD000012100F0F7F901203149087010E02F486A
:103AE0004838005D60B100202C4948390855611CF8
:103AF000C8B2002100F0E6F90021284820F814108F
:103B0000701CC6B2062EC3DB00BF681CC5B2062DF2
:103B1000ACDB1EE022480078D8B1002412E01F4838
:103B20004838005D60B100201C4948390855611CC7
:103B3000C8B2002100F0C6F90021184820F814107E
:103B4000601CC4B2242CEADB00201649087014491A
:103B5000087000231A461946022000F053F800208E
:103B6000BDE8F081824700084552524F523A204B3F
:103B700045595F524F575F5343414E206E63613941
:103B80003535355F77726974655F6F7574706F7204
:103B90007420693D25640D0A00000000000100202A
:103BA000550000205400002010B504462046FDF7C3
:103BB000F3FB10BDF8B506460D4614461F4605F04A
:103BC0000E0545F040050CB1012000E00020044640
:103BD0000120E2B23B46294600903046FDF764FCE6
:103BE000F8BDF8B506460C46154604F00E0444F040
:103BF000400402202B460622214600903046FDF765
:103C0000B1FCF8BD7FB582B006460C46154604F0FF
:103C10000E0444F040040DB1012000E000200546F0
:103C200001200090A81CC2B205AB21463046FDF72A
:103C300099FC06B070BD00002DE9F04103460D4629
:103C4000164600240027A0462448006800F4E060DF
:103C5000B0F5A06F15D006DCB0F5407F18D0B0F5F8
:103C6000806F19D110E0B0F5C06F06D0B0F5E06FED
:103C700012D100274FF0040815E001274FF0030888
:103C800011E00227B8460EE003274FF001080AE0D2
:103C900004274FF0000806E04FF4A06000F022F87F
:103CA0000227B84600BF00BFC7F1040005FA00F4C0
:103CB000C8F104010F20C8403040044324010848E3
:103CC000C45403F01F01012088405911890001F1FB
:103CD000E021C1F80001BDE8F08100000CED00E03A
:103CE00000E400E002490143024A1160704700000D
:103CF0000000FA050CED00E00F4A51680F4A114030
:103D0000082814D2DFE800F004050607130A130B95
:103D100000BF00BF00BF41EA803109E000BF20F0D2
:103D200004004FF0805242EA8032114300E000BFAD
:103D300000BF014A5160704700100240FF3FFFEF93
:103D40002DE9F04F8BB00746002009903EA090E887
:103D5000004CC068CDE905BECDF810A007900FF269
:103D6000EC0ADAE9000ACDE9020A0FF2E00ADAE920
:103D7000000ACDE9000A38484068C0F381000A9083
:103D80000A9820B1012804D0022829D103E0334940
:103D900028E0324926E03048406800F48038B8F521
:103DA000803F09D12D4C2C48406800F40039B9F50A
:103DB000003F02D1641000E0294C27484068C0F35E
:103DC00083422548406800F0006008B142F01002CC
:103DD0000F2A01D2921C00E0521C04FB02F101E008
:103DE0001E4900BF00BF1C484068C0F3031504A86B
:103DF000465D21FA06F318484068C0F3022502A880
:103E0000465D23FA06FC14484068C0F3C2251DF83D
:103E1000056023FA06F0089037B1012F06D0022F73
:103E200006D0032F0AD106E0099108E0099306E0C5
:103E3000CDF824C003E00898099000E000BF00BF5F
:103E400009980BB0BDE8F08F0000000000000000F2
:103E500001020304060708090010024000127A005C
:103E600000093D00064A02EB9011096800F01F03AB
:103E700001229A401143024B03EB901211607047EC
:103E800000100240064A02EB9011096800F01F037F
:103E900001229A409143024B03EB9012116070474C
:103EA00000100240064A02EB9011096800F01F035F
:103EB00001229A401143024B03EB901211607047AC
:103EC000001002407CB505460C461148007800F011
:103ED000020018B90FA0FEF7EDFC7CBDA5208DF8FF
:103EE00000008DF801508DF802409DF800009DF80B
:103EF000011008449DF802100844C0B28DF8030078
:103F0000042269460120FEF795FC00BFE5E70000AA
:103F1000100000206572726F723A20544F43505562
:103F20005F434F4D206E6F7420696E69740A000004
:103F300010B50446642C00DD64240648047000BFFC
:103F400005A0FEF7B7FC0348017807A0FEF7B2FC16
:103F500000BF10BD580000203C3C4D595F44454215
:103F600055473E3E200000007365745F4C65645FFA
:103F700050776D2020675F6C65645F70776D203DC2
:103F80002025640D0A00000000200021264A126846
:103F900042F00102244B1A6000BF401C224A126802
:103FA00002F0020111B9B0F5A06FF6D11E4A1268F5
:103FB00002F002020AB900BFFEE71B4A52681A4B20
:103FC0005A601A4652685A601A46526842F4806231
:103FD0005A601A465268154B1A40134B5A601A46DB
:103FE0005268134B1A43104B5A601A46126842F03B
:103FF00080721A6000BF0C4A126802F00072002A38
:10400000F9D0094A526822F00302074B5A601A4657
:10401000526842F002025A6000BF034A526802F03E
:104020000802002AF9D0704700100240FFFFC3F7D2
:104030000000280810B5FFF7A7FF10BD10B507480E
:1040400001780078401E054A107029B1FFF704FD81
:104050004FF48050FEF788FF10BD00005400002090
:10406000016841F0800101607047000010B531B176
:1040700001293FD002297DD003297CD1BFE0036A0A
:1040800023F001030362836923F003038361036A5E
:10409000148823430362036A23F002030362036A62
:1040A0009488234303626A4B984202D0694B98423A
:1040B0001FD1036A23F004030362036A5488234375
:1040C0000362036A23F008030362036AD48823436C
:1040D0000362436823F48073436043681489234375
:1040E0004360436823F40073436043685489234367
:1040F0004360ABE0036A23F010030362836923F497
:1041000040738361036A148843EA04130362036AF9
:1041100023F020030362036A948843EA04130362D2
:104120004B4B984202D04B4B984226D1036A23F066
:1041300040030362036A548843EA04130362036A78
:1041400023F080030362036AD48843EA0413036202
:10415000436823F4806343604368148943EA84031B
:104160004360436823F4006343604368548943EA2F
:10417000840301E002E068E0436067E0036A23F43F
:1041800080730362C36923F00303C361036A148865
:1041900043EA04230362036A23F400730362036A9D
:1041A000948843EA04230362294B984202D0294BA6
:1041B000984223D1036A23F480630362036A54881C
:1041C00043EA04230362036A23F400630362036A7D
:1041D000D48843EA04230362436823F48053436092
:1041E0004368148943EA04134360436823F400538B
:1041F00043604368548943EA0413436026E0036A3A
:1042000023F480530362C36923F44073C361036AD8
:10421000148843EA04330362036A23F400530362FD
:10422000036A948843EA04330362094B984202D03C
:10423000084B984208D1436823F4804343604368A5
:10424000148943EA8413436000E000BF00BF10BD3F
:10425000002C01400034014031B101290CD0022969
:1042600013D0032922D118E0836923F070038361FE
:104270008369134383611AE0836923F4E043836114
:10428000836943EA0223836111E0C36923F0700369
:10429000C361C3691343C36109E0C36923F4E04305
:1042A000C361C36943EA0223C36100E000BF00BFEA
:1042B000704731B1012906D0022906D0032908D15F
:1042C00005E0426306E0826304E0C26302E0026448
:1042D00000E000BF00BF704731B101290CD00229B6
:1042E00013D0032922D118E0836923F008038361E6
:1042F0008369134383611AE0836923F40063836154
:10430000836943EA0223836111E0C36923F0080350
:10431000C361C3691343C36109E0C36923F4006344
:10432000C361C36943EA0223C36100E000BF00BF69
:1043300070470021018041808180C18001814181DD
:104340007047016821F0010101607047016841F088
:1043500001010160704700000A888262294A904288
:1043600020D0B0F1804F1DD0274A90421AD0274A62
:10437000904217D0264A904214D0264A904211D03B
:10438000254A90420ED0254A90420BD0244A9042B2
:1043900008D0244A904205D0234A904202D0234AB2
:1043A00090420FD1026822F07002026002688B789E
:1043B00003F060031A43026002680B7903F01003F4
:1043C0001A4302608A68C262194A90420CD0194AA4
:1043D000904209D0026822F44072026002688B8920
:1043E00003F440731A430260064A904202D0094A1D
:1043F000904201D18A7B0263426942F0010242612C
:1044000070470000002C01400004004000080040FC
:10441000000C004000340140004C014000500140BD
:104420000054014000180040001C004000200040E3
:104430000010004000140040012904D1426C42F4F5
:104440000042426403E0426C22F40042426470473E
:1044500000210180418081804FF6FF718160002141
:1044600081818173704700002DE9F04704460D46B5
:104470000027B846B94600261D49601A8C421CD058
:1044800006DC1C48204470B1B0F5806F1FD10FE0EE
:10449000B0F5806F16D0B0F56C4F18D10320FFF740
:1044A0004FFC074614E00220FFF74AFC07460FE0E6
:1044B0000220FFF745FC07460AE00220FFF740FC18
:1044C000074605E00220FFF73BFC074600E000BF7F
:1044D00000BF07EB5500B0FBF5F64FF6F07006EAAB
:1044E000000806F00F0948EA0900A060BDE8F0875F
:1044F000004C004000BCFFBF01464868C0F3080004
:104500007047C1F3080242607047000010B50446CE
:104510002049601A8C4228D006DC1F48204490B104
:10452000B0F5806F33D117E0B0F5806F26D0B0F5CD
:104530006C4F2CD140F20E30FFF7B4FC40F20E303D
:10454000FFF7A0FC24E040F21140FFF7ABFC40F283
:104550001140FFF797FC1BE040F21240FFF7A2FC6E
:1045600040F21240FFF78EFC12E040F21340FFF7DA
:1045700099FC40F21340FFF785FC09E040F214403B
:10458000FFF790FC40F21440FFF77CFC00E000BF16
:1045900000BF10BD004C004000BCFFBFC16841F42B
:1045A0000051C160704710B5024602EB91100068DF
:1045B00001F01F040123A340184008B1012010BDE1
:1045C0000020FCE70A460021416921F400711143F3
:1045D000416170470A460021416921F4807111430D
:1045E0004161704710B5C1F38912825801F01F0470
:1045F0000123A3409A43C1F38913C25010BD10B5E3
:10460000C1F38912825801F01F040123A3401A4309
:10461000C1F38913C25010BD10B500EB915212685E
:10462000C1F304440123A3409A4300EB91531A6061
:1046300010BD70B5024600230024C1F38910105844
:1046400001F01F060125B54000EA050302EB915079
:104650000068C1F304460125B54000EA050414B121
:104660000BB1012070BD0020FCE7C26822F4C062DB
:10467000C260C2680A43C26070470A460021C1682E
:1046800021F004011143C1607047026922F44052D5
:10469000026102690A43026170470A460021C1684B
:1046A00021F008011143C1607047C26822F48052B2
:1046B000C260C2680A43C260704700000000000088
:1046C0003D4000085D340008A5170008D91800080F
:1046D00000000000000000000000000000000000DA
:1046E00000000000000000000000000000000000CA
:1046F0000000000000000000152700080E0611074A
:104700000002000004000000000400000800000097
:1047100000080140000801400206020625000000D2
:10472000260000000505000000380140004400405C
:10473000416E737765724370755F646174610000E8
:10474000A5000000000000004969634170705F52DD
:104750006561645F427974655F437572004969639E
:104760004170705F57726974655F42797465730058
:104770004969634170705F526561645F4279746535
:104780007300FEFDFBF7EFDF01070D13191F020891
:104790000E141A2003090F151B21040A10161C22DF
:1047A000050B11171D23060C12181E244275696C87
:1047B0006474696D65203A5365702031352032305C
:1047C00032322031343A30393A3330004552524F88
:1047D000523A2073656E64206465765F616464722A
:1047E000204949435F576169745F41636B28696E73
:1047F00064657829213D2030206465765F616464BA
:1048000072203D203078257820696E646578203DDF
:104810002025640D0A000000384800080000002030
:1048200074000000FC280008AC4800087400002058
:10483000D42000000C290008AC470008000000004C
:104840000000000000000000000000000000000068
:10485000000400000000A00F640000000000000041
:104860000000000000000000000000000000000048
:10487000005A000080002000800000042005100085
:104880000400100058027C02A0DC000000000000C0
:104890006400000000000000000000000000DC00D8
:0C48A0000000000000F36F0600000000A4
:0400000508000105E9
:00000001FF
