:020000040800F2
:100000004821002019010008D5230008111100081B
:1000100045230008A10900086D2800080000000021
:10002000000000000000000000000000D1240008D3
:10003000310E000800000000252400084D250008AE
:1000400033010008330100083301000833010008C0
:1000500033010008330100083301000833010008B0
:100060003301000833010008470F0008330100087E
:100070003301000833010008330100083301000890
:100080003301000833010008330100083301000880
:100090003301000833010008330100085D0F000838
:1000A0003301000833010008330100083301000860
:1000B0003301000833010008330100083301000850
:1000C0003301000833010008330100083301000840
:1000D00033010008312700086D27000833010008AC
:1000E0002D0F000833010008330100080000000054
:1000F0000000000000000000000000000000000000
:1001000033010008DFF80CD000F0F2FA0048004795
:10011000C5380008482100200648804706480047A7
:10012000FEE7FEE7FEE7FEE7FEE7FEE7FEE7FEE7A7
:10013000FEE7FEE7552500080501000840EA010337
:100140009B0703D009E008C9121F08C0042AFAD28D
:1001500003E011F8013B00F8013B521EF9D2704751
:10016000D2B201E000F8012B491EFBD270470022F9
:10017000F6E710B513460A4604461946FFF7F0FFA6
:10018000204610BD2DE9FE4F804681EA0300C00FD6
:100190000C46009021F0004123F00045B8EB02002E
:1001A000A94105D24046214690461C460B460246D0
:1001B00023F00040104347D0270DC7F30A00C3F3D4
:1001C0000A510290401A019040286BDAC3F31300E1
:1001D00040F4801B0098924620B10023D2EB030A22
:1001E00063EB0B0B01985946C0F14002504600F0FA
:1001F000B9F906460D4650465946019A00F0D1F924
:1002000010EB08006141002487EA115284EAE77389
:100210001A4340D0009A62B3019A012A4FEA07526A
:1002200015DC001B61EB02014FF0004202EA0752AD
:10023000CDE90042001C41F5801132462B4600F00A
:1002400008FA03B0BDE8F08F40462146F9E7001BED
:1002500061EB0201001C41F5801300185B4120187E
:10026000A2F5001747EB030140EAD570B6196D41BE
:1002700011E06D084FEA360645EAC0754FEA0752AD
:10028000001B61EB0201001C41F5801149084FEA97
:1002900030000019514132462B4603B0BDE8F04F03
:1002A00000F0C8B90098012240000023D0EB020200
:1002B00063EBE073009821464FEAE074B8EB00006E
:1002C00061EB0401E9E783F000435BE781F0004163
:1002D00058E72DE9FE4F81EA030404F0004421F0C1
:1002E000004100944FF0000B23F0004350EA01045A
:1002F0005ED052EA03045BD0C3F30A54C1F30A553B
:100300002C44A4F2F3340194A0FB0254C1F3130172
:1003100041F48011C3F3130343F4801301FB02443F
:1003200000FB034E840A970A44EA815447EA835744
:10033000A4FB076802958D0A05FB07854FEA932CFD
:1003400004FB0C542705029D4FEA065847EA16376E
:10035000B5EB08056EEB070C870E920E47EA811786
:1003600042EA8312A7FB0201B6EB0B0164EB000427
:100370002B0D43EA0C335E1844EB1C50DA46514611
:10038000E7FB0201C5F313044FEA0B3343EA1453AE
:100390004FEA0432019C43EA0603A4F10C040294E0
:1003A000009CCDE900B400F054F903B0BDE8F08F33
:1003B00000200146F9E72DE9F04D81EA030404F03D
:1003C000004B21F0004514464FF0000A23F0004195
:1003D00050EA050220D054EA01021DD0C5F30A57A5
:1003E0000246C5F31303C1F31300C1F30A5640F4E8
:1003F000801543F48013A7EB0608101BD64608F2BD
:10040000FD3873EB050002D308F1010801E09218F2
:100410005B41B8F1000F03DA00200146BDE8F08D22
:1004200000204FF48011064684460EE0171B73EB44
:10043000050705D3121B63EB050306434CEA010CC9
:1004400049084FEA300092185B4150EA0107EDD1AC
:1004500052EA030012D082EA040083EA050108434D
:1004600005D0101BAB4106D20122002306E000227A
:100470004FF0004302E06FF0010253101AEB060048
:100480004CEB085110EB0A0041EB0B01BDE8F04DBD
:1004900000F0D0B896230022114600F09DB870B548
:1004A000C1F30A5201F000450024C1F3130140F2E8
:1004B000FF3341F480119A4201DA002070BD40F20E
:1004C00033439A42A2F2334203DC524200F059F81D
:1004D00000E090402C43F1D0404270BD00F000425B
:1004E00030F000400AD0C10D01F56071C0F3160074
:1004F00042EA0151C20840071143704700200146FB
:1005000070472DE9F05F0546002092469B468846DD
:100510000646814640241BE028464146474622467F
:1005200000F02FF853465A46C01A914110D3114695
:100530001846224600F016F82D1A67EB01084F46C0
:1005400022460120002100F00DF817EB00094E4172
:10055000201EA4F10104DFDC484631462A4643460A
:10056000BDE8F09F202A04DB203A00FA02F10020C7
:1005700070479140C2F1200320FA03F319439040E1
:100580007047202A04DB203A21FA02F0002170474C
:1005900021FA02F3D040C2F12002914008431946EB
:1005A0007047202A06DBCB17203A41FA02F043EAD3
:1005B000E07306E041FA02F3D040C2F1200291401C
:1005C0000843194670470029A8BF7047401C4900DE
:1005D00008BF20F00100704710B4B0FA80FC00FAA8
:1005E0000CF050EA010404BF10BC704749B1CCF1D3
:1005F000200421FA04F411FA0CF118BF012121435F
:100600000843A3EB0C01CB1D4FEA00614FEA102019
:1006100042BF002010BC704700EBC35010440029BB
:10062000A4BF10BC7047401C490008BF20F0010067
:1006300010BC704710B5141E73F1000408DA401C9A
:1006400041F1000192185B411A4301D120F00100F1
:1006500010BD2DE9F04D92469B4611B1B1FA81F2E1
:1006600002E0B0FA80F220329046FFF77BFF0446AA
:100670000F4640EA0A0041EA0B0153465A46084336
:1006800013D0114653EA010019D0C8F14002504678
:10069000FFF777FF05460E46504659464246FFF79C
:1006A00061FF084305D0012004E020463946BDE83B
:1006B000F08D0020054346EAE0762C4337430A9844
:1006C0006305E40AA0EB08000022FD0A44EA47544F
:1006D0000A3002D500200146E9E7010510196941F9
:1006E000DDE9084500196941BDE8F04DA2E70000C9
:1006F000064C074D06E0E06840F0010394E807006F
:1007000098471034AC42F6D3FFF700FDEC470008E1
:100710000C48000810B540F2096003F097FB032075
:1007200003F0DEFA002002F0DFFA00224FF48071BD
:10073000184802F050FB00220221164802F04BFB41
:1007400001221146134802F084FA0021114802F0F8
:1007500075FA012211460F4802F04DFA02F068FBCB
:100760000523102200210B4802F0CCFA4FF460223E
:100770000121084802F09CFA064802F090FA012094
:1007800000F058FB034802F021FA0121014802F071
:1007900013FB10BD002401401CB50446424903C9A7
:1007A000CDE9000120788DF8010000208DF80200CD
:1007B0002078323811285AD2DFE800F02759090E84
:1007C00013591B2D313A4245494E5154550060781A
:1007D000012102F02FFF5AE06078002102F02AFF89
:1007E00055E0607810B100F0CDFB01E000F064FB53
:1007F0004DE0607820B10121202002F01BFF03E0D2
:100800000021202002F016FF41E0607802F08AFC0F
:100810008DF802003BE0607803F07EFB37E002F0E9
:1008200053FC642190FBF1F0C0B28DF802002EE081
:10083000607810B102F0AAFD01E002F085FD26E02B
:1008400002F0CEFD23E0607802F0ACFE1FE002F083
:1008500035FE8DF802001AE002F094FE17E001F078
:1008600033F814E013E0607801F080FD0FE0FF2022
:100870008DF8020000BF0D4B7D220DA114A002F0E7
:1008800011F821781BA002F00DF800BF00BF00BFD7
:100890000321684600F086F88DF8030004226946BB
:1008A000012001F0BFFF1CBD1447000804470008E9
:1008B0007372635C756172745F636F6E6563745F9E
:1008C0006370755F68616E646C65722E6300000012
:1008D0003C3C46696C653A257320204C696E653A4C
:1008E0002564202046756E6374696F6E3A25733EE9
:1008F0003E2000006572726F723A20637075207539
:100900006172742073656E6420756E6B6F776E20F4
:10091000636D64212120636D64203D202523780DC3
:100920000A00000010B501F057FD01F07FFC4FF404
:10093000A06003F0CBF94FF4C06003F087FA012107
:10094000164802F0B7FC002002F02EFB012002F056
:100950002BFB01F031FE01F093FF00F0EDFF00F002
:10096000B3FF02F0FBFFFFF7D5FE462002F0F8FED2
:1009700002F0D4FD01F0D4FC02F09CFE02F072FF04
:1009800001F0E2FC012002F03BFE01F071FF0020CB
:1009900002F036FE032001F035FD10BD00023000EC
:1009A00000BFFEE710B502460B460021002004E020
:1009B000545C0444E0B24C1CE1B29942F8DB10BD37
:1009C00010B5034A0349044800F0E2F910BD0000E5
:1009D00099070008740000201100002010B5432181
:1009E0000148FFF7C4FB10BD7400002010B5044897
:1009F00003F06CFDC4B22146024801F02CFD10BD8D
:100A0000004400407400002070B50446A4F130009A
:100A1000072805D2DFE800F00B14283C42485400B8
:100A200021462CA001F03EFF00F0F4F800BF33484F
:100A3000016833A001F036FF33A001F033FF47E037
:100A40003A48007864280BDA384800780A3040B217
:100A500001F014FC3548017835A001F023FF02E0D5
:100A60003EA001F01FFF33E0304800780A280BDB7E
:100A70002E4909780A3948B201F000FC2B48017868
:100A80003BA001F00FFF02E044A001F00BFF1FE0CC
:100A900046A001F007FF02F075FD19E049A001F042
:100AA00001FF00F011FF13E002F008FB08B14AA0BB
:100AB00000E04AA00546294649A001F0F3FE07E000
:100AC00002F002FB054629464BA001F0EBFE00BFF9
:100AD00000BF70BD4552524F523A20436F6D6D6159
:100AE0006E6420556E6B6E6F7720636D64203D20C1
:100AF000307825782121210D0A0000000000002017
:100B000025730D0A00000000417574686F723A4A3F
:100B1000432644615A6869203C76783A3238353445
:100B200030383133363E0D0A00000000200000202E
:100B3000696E637265617365203720696E63682032
:100B40006C63642050574D2C675F6C63645F7077F3
:100B50006D203D202564200D0A000000675F6C6356
:100B6000645F70776D203D203130300D0A00000049
:100B70006465637265617365203720696E63682000
:100B80006C63642050574D2C675F6C63645F7077B3
:100B90006D203D202564200D0A000000675F6C6316
:100BA000645F70776D203D20300D0A0072657365BB
:100BB0007420636F726520626F61726421210D0A77
:100BC000000000007265736574204C4344202620A9
:100BD000393231310D0A00006F6E00006F66660019
:100BE000576174636820446F672053746174757330
:100BF000203D2025730D0A004D637520696E7465D4
:100C0000726E616C5F74656D70203D2025640D0A05
:100C10000000000010B50EA001F044FE10A001F08D
:100C200041FE17A001F03EFE23A001F03BFE30A0E4
:100C300001F038FE34A001F035FE39A001F032FE9B
:100C400040A001F02FFE47A001F02CFE10BD0000D7
:100C50000D0A446562756720636D643A0D0A0000F1
:100C6000302E207072696E742050726F6772616DE1
:100C7000206275696C642074696D650D0A0000005E
:100C8000312E203720696E6368206C6364205057D2
:100C90004D20696E6372656163652835696E6368AE
:100CA000206C636420686173206E6F2065666665E2
:100CB0006374290D0A000000322E203720696E630C
:100CC00068206C63642050574D20646563726561D1
:100CD00063652835696E6368206C6364206861739E
:100CE000206E6F20656666656374290D0A0000003A
:100CF000332E20726573657420636F726520626F96
:100D000061726421210D0A00342E207265736574AE
:100D1000204C4344202620393231310D0A00000096
:100D2000352E207072696E7420486172642057619C
:100D300074636820446F67205374617475730D0A7F
:100D400000000000362E207072696E74204D6375AD
:100D500020696E7465726E616C5F74656D700D0AEA
:100D6000000000006F746865722E207072696E74E6
:100D70002068656C700D0A0010B5044803F0A6FBEE
:100D8000C4B22046FFF740FE10BD0000003801400D
:100D90002DE9F04704460E4617464FF0000A46E09C
:100DA000304601F079FB00F0FF08207A404501DD74
:100DB000BDE8F08794F80880207AC0F1040000F0C4
:100DC000FF0A002507E0601900EB0A01304601F038
:100DD0002AFB681CC5B24545F5DB2078A52807D15C
:100DE0000421204601F02FFD10B9601CB8471EE019
:100DF000012505E0605DA52800D103E0681CC5B2AF
:100E0000042DF7DB00BF042D0FD025724FF0000931
:100E100008E0605D04F80900681CC5B209F1010032
:100E200000F0FF09042D02DAF3E704202072B7E78F
:100E3000704700000349086000BF024909680029A3
:100E4000FBD1704708000020F0B5034600224FF0A8
:100E5000E0277D69104F3F68DFF840C0B7FBFCF723
:100E6000FEB203FB06F44FF0E027B96910E04FF043
:100E7000E027B86988420BD0884202D20F1A3A4460
:100E800002E02F1A0F443A440146A24200D300E088
:100E9000EDE700BFF0BD00006C00002040420F00F5
:100EA0000448006820B103480068401E01490860FA
:100EB000704700000800002010B50B48028802218E
:100EC0000A4803F0E0F96420FFF7B4FF074803F095
:100ED00022FA00F01FF800BF05A001F0E3FC08A013
:100EE00001F0E0FC00BF10BD1E000020002C0140FE
:100EF0003C3C4D595F44454255473E3E2000000072
:100F000044697361626C655F4C63644C69676874C3
:100F10000D0A000010B501F09DF94FF48041024820
:100F200002F00EF910BD0000000C014010B54FF4A6
:100F3000805002F01DF828B14FF4805002F012F8F2
:100F400001F080FF10BD10B5102002F011F820B1A3
:100F5000102002F007F801F07FFF10BD10B54FF42C
:100F6000007002F005F820B14FF4007001F0FAFFB4
:100F700006E0202001F0FCFF10B1202001F0F2FF7C
:100F800010BD000010B500F037F86420FFF752FFE5
:100F90000E49097809B9462101E00C49097848B29F
:100FA00001F06CF96420FFF745FF094803F0B8F938
:100FB0006420FFF73FFF00F01FF800BF05A001F01D
:100FC00071FC08A001F06EFC00BF10BD20000020E5
:100FD000002C01403C3C4D595F44454255473E3E44
:100FE00020000000456E61626C655F4C63644C6973
:100FF0006768740D0A00000010B501F035F94FF470
:101000008041024802F09EF810BD0000000C014033
:101010002DE9F05F0221102001F05CFB8346584669
:10102000FFF738FA8046FFF759FA06464FF0663266
:10103000124BFFF74EF904460D4622462B46104848
:101040001049FFF740F980460F4A104BFFF7B3F9FC
:10105000064600220E4BFFF795F804460D46002287
:101060000C4B20462946FFF734F90646FFF717FADE
:101070000FFA80FA5046BDE8F09F000066664A3FCE
:10108000E17A14AE47E1F63F22FDF675E09C713F30
:10109000000024400000594038B50446002000906C
:1010A00001226946204600F007F810B19DF80000C3
:1010B00038BD0020FCE70000F8B504460D46164692
:1010C0002B462246064800960178002000F0E4F9FD
:1010D00008B9012000E0002007463846F8BD0000AE
:1010E0003A00002033B581B00446012002AB22460D
:1010F000009006480178002000F02CFA08B9012081
:1011000000E00020054628463EBD00003A000020D1
:1011100000BFFEE710B504460021204600F0E2FAC9
:10112000204601F0F5F90021204600F007FB0420DD
:10113000FFF78AFE0121204600F0D4FA0620FFF7CF
:1011400083FE0021204600F0CDFA0320FFF77CFE4D
:1011500010BD000070B5054640F2036002F076FE57
:10116000012D02D14FF4406405E0022D02D14FF46D
:10117000407400E0C024234602221021054802F0FA
:101180002FF80121284600F0ADFA0121284600F091
:10119000D5FA70BD000C014010B504460021204670
:1011A00000F0A0FA204601F0B3F90121204600F03A
:1011B000C5FA0420FFF748FE0121204600F092FA0C
:1011C0000620FFF741FE0021204600F08BFA0320A5
:1011D000FFF73AFE10BD2DE9F04107460D46002409
:1011E0000021384600F07EFA384601F073F90320FA
:1011F000FFF72AFE00261EE00021384600F072FAB2
:101200000520FFF721FE0121384600F06BFA600649
:10121000040E0420FFF718FE384601F041F908B12A
:10122000601CC4B20420FFF70FFE0021384600F016
:1012300059FA701CC6B2082EDEDB1DB93846FFF71E
:10124000ABFF02E03846FFF765FF2046BDE8F081BE
:1012500070B506460C460021304600F043FA304691
:1012600001F056F900251CE00320FFF7EDFD04F026
:101270008001304600F062FA6006040E0420FFF799
:10128000E3FD0121304600F02DFA0620FFF7DCFDDA
:101290000021304600F026FA0320FFF7D5FD681C38
:1012A000C5B2082DE0DB70BD10B50446204601F044
:1012B0002FF90121204600F041FA0121204600F0DB
:1012C00011FA0620FFF7C0FD0021204600F036FA93
:1012D0000620FFF7B9FD0021204600F003FA10BDFB
:1012E00010B504460021204600F0FCF9204601F02C
:1012F0000FF90021204600F021FA0620FFF7A4FD97
:101300000121204600F0EEF90320FFF79DFD0121A9
:10131000204600F013FA0620FFF796FD10BD70B5C9
:10132000054600240021284600F0DCF90320FFF7E1
:101330008BFD0121284600F001FA0320FFF784FD10
:10134000284601F0C7F80121284600F0CBF9032018
:10135000FFF77AFD0BE0601CC4B2FA2C04DD2846CE
:10136000FFF7BEFF012070BD0120FFF76DFD28468D
:1013700001F096F80028EED10021284600F0B2F9DD
:101380000320FFF761FD0020EDE7000010B50446E3
:101390000120A04008490978084000B110BD20464E
:1013A000FFF7D8FE0120A04003490978084302490D
:1013B000087000BFF2E700001A0000202DE9F0419C
:1013C0000746884615461E463846FFF76DFF48F02B
:1013D00001013846FFF73CFF3846FFF7A0FF002821
:1013E0000ED000BF134B2E2213A117A001F05AFA02
:1013F00039461EA001F056FA00BF0220BDE8F08178
:1014000000240FE0701EA04205D100213846FFF7EE
:10141000E2FE285504E001213846FFF7DCFE28559E
:10142000601CC4B2B442EDDB3846FFF759FF002020
:10143000E4E700001C4700087372635C6969635F3E
:101440006170702E630000003C3C46696C653A2573
:101450007320204C696E653A2564202046756E63C2
:1014600074696F6E3A25733E3E2000004552524F1C
:10147000523A4949435F576169745F41636B286918
:101480006E64657829213D203020696E646578207E
:101490003D2025640D0A00002DE9F84305460F465E
:1014A00090461E46DDF8209000200346424639460D
:1014B0000090284600F04EF80446FF2C07D14B461A
:1014C000324639462846FFF779FFBDE8F88300BF6A
:1014D000064B9E2206A10AA001F0E4F92A46214605
:1014E00010A001F0DFF900BF2046EEE744470008F6
:1014F0007372635C6969635F6170702E63000000E2
:101500003C3C46696C653A257320204C696E653A0F
:101510002564202046756E6374696F6E3A25733EAC
:101520003E2000004552524F523A204969634170B3
:10153000705F57726974655F427974657320726574
:1015400074203D20256420696E646578203D202547
:10155000640D0A002DE9F04705460E4617469846E9
:10156000DDF820902846FFF79FFE06F0FE01284692
:10157000FFF76EFE2846FFF7D2FE90B100BF2C4B5E
:101580005D222CA12FA001F08DF92A463146364864
:1015900001F088F900BF2846FFF7A2FE0220BDE84F
:1015A000F08739462846FFF753FE2846FFF7B7FE77
:1015B000002810D000BF1E4B67221EA121A001F001
:1015C00071F9294629A001F06DF900BF2846FFF7FF
:1015D00087FE0320E3E7B9F1000F01D1FF20DEE72A
:1015E00000241DE018F804102846FFF731FE2846B5
:1015F000FFF795FE002811D000BF0D4B7A220DA1F8
:1016000010A001F04FF92A46214627A001F04AF91F
:1016100000BF2846FFF764FE0420C0E7601CC4B288
:101620004C45DFDB2846FFF75BFE0020B7E70000F4
:10163000314700087372635C6969635F6170702E83
:10164000630000003C3C46696C653A257320204CE1
:10165000696E653A2564202046756E6374696F6E05
:101660003A25733E3E200000A04700084552524FE5
:10167000523A2073656E6420776F72645F616464B0
:1016800072204949435F576169745F41636B286900
:101690006E64657829213D203020696E646578206C
:1016A0003D2025640D0A00004552524F523A2073E6
:1016B000656E642064617461204949435F576169C4
:1016C000745F41636B28696E64657829213D203021
:1016D00020693D256420696E646578203D2025647D
:1016E0000D0A000070B505460C46012D0BD124B142
:1016F0008102114801F026FD1DE04FF480610E4883
:1017000001F01EFD17E0022D0BD124B1E9010A48BA
:1017100001F018FD0FE04FF48071074801F010FD53
:1017200009E024B14021044801F00CFD03E0402110
:10173000014801F005FD70BD000C014070B5054683
:101740000C46012D0BD124B1C102114801F0FAFC65
:101750001DE04FF400610E4801F0F2FC17E0022D8D
:101760000BD124B129020A4801F0ECFC0FE04FF440
:101770000071074801F0E4FC09E024B1802104482D
:1017800001F0E0FC03E08021014801F0D9FC70BDCC
:10179000000C014010B5FFF73BFC0149088010BD6B
:1017A0006200002010B58121FF20FFF79BFC002084
:1017B000FFF772FC044621460BA001F073F80120EC
:1017C000FFF76AFC044621460DA001F06BF80220E9
:1017D000FFF762FC0446214609A001F063F80AA065
:1017E00001F060F810BD00000D0A4C54393231315F
:1017F00020436869702049443A25782C0000000095
:1018000025782C20000000000D0A000010B586216C
:10181000FF20FFF767FC01210020FFF763FC4FF476
:101820009670FFF707FB00240820FFF735FC00F057
:101830000F0424020920FFF72FFC044424020A208D
:10184000FFF72AFC0444214611A001F02BF8862161
:10185000FF20FFF747FC0A210020FFF743FC4FF46D
:101860009670FFF7E7FA00240820FFF715FC00F058
:101870000F0424020920FFF70FFC044424020A206D
:10188000FFF70AFC0444214608A001F00BF810BD44
:101890000D0A6D69706920696E70757420627974C3
:1018A0006520636C6F636B3A202575000D0A6465D3
:1018B00073736320706978656C20636C6F636B3A37
:1018C0002025750A0000000010B501F0B9FF00F0F6
:1018D0008FF900F001F810BD10B511A000F0E2FF83
:1018E000FFF760FF00F0DEF900F02EF900F00EF9CE
:1018F00000F00AFA00F06EF900F034F80A20FFF761
:1019000099FA00F011FB00F0C1FA00F073FA01F04F
:10191000C7FF01F0BBFFFFF779FF00F099FB10BD97
:101920000D0A204C54393231315F6D697069207471
:101930006F2054544C0D0A0010B50020FFF726FD0F
:1019400040F2066002F082FA02231A46102104488F
:1019500001F046FC0221024801F0F2FB10BD00003C
:101960000018014070B5D021FF20FFF7BBFB6021BC
:101970000C20FFF7B7FB60211C20FFF7B3FB7021A1
:101980002420FFF7AFFB30212D20FFF7ABFB0A210E
:101990003120FFF7A7FBF0212520FFF7A3FB302123
:1019A0002A20FFF79FFB4F212120FFF79BFB0021FF
:1019B0002220FFF797FB01211E20FFF793FB8021D8
:1019C0002320FFF78FFB02210A20FFF78BFB022168
:1019D0003820FFF787FB04213920FFF783FB08211C
:1019E0003A20FFF77FFB10213B20FFF77BFB042110
:1019F0003F20FFF777FB08214020FFF773FB102102
:101A00004120FFF76FFB20214220FFF76BFBA02155
:101A10002B20FFF767FBD021FF20FFF763FB262079
:101A2000FFF73AFB054605F07F0529462620FFF71C
:101A300059FB0F212720FFF755FB8121FF20FFF7DE
:101A400051FBBF212020FFF74DFBFF212020FFF796
:101A500049FB0520FFF7EEF96F210B20FFF742FB52
:101A6000FF210B20FFF73EFB4FF44870FFF7E2F930
:101A7000002415E0C820FFF7DDF9D021FF20FFF793
:101A800031FB8720FFF708FB00F0080018B10DA01C
:101A900000F008FF06E010A000F004FF601CC4B2D4
:101AA0000A2CE7DB00BFD021FF20FFF71BFB9420AF
:101AB000FFF7F2FA00F07F0631460EA000F0F2FECA
:101AC00070BD00000D0A4C54393231312070637200
:101AD00020737461626C65000D0A4C5439323131E7
:101AE0002070637220756E737461626C65212121B0
:101AF000210000004C5439323131207063725F7321
:101B00007461626C655F4D3D25780A0010B58621D1
:101B1000FF20FFF7E7FA85213020FFF7E3FAD8210D
:101B2000FF20FFF7DFFA00211620FFF7DBFAD021B4
:101B3000FF20FFF7D7FA12214320FFF7D3FA052140
:101B40000220FFF7CFFA10BD10B5D021FF20FFF71C
:101B5000C9FA00210846FFF7C5FA8221FF20FFF7E6
:101B6000C1FA44210220FFF7BDFA36210520FFF714
:101B7000B9FA26210D20FFF7B5FA0C211720FFF73F
:101B8000B1FA0C211D20FFF7ADFA81210A20FFF7E1
:101B9000A9FA00210B20FFF7A5FA9F210720FFF7E4
:101BA000A1FAFC210820FFF79DFA01210920FFF787
:101BB00099FA01211120FFF795FA8621FF20FFF7FE
:101BC00091FA1B213320FFF78DFA1B213420FFF7F8
:101BD00089FA10BD10B58221FF20FFF783FA482152
:101BE0002D20FFF77FFA82213520FFF77BFA10BD09
:101BF00010B50221064801F0A3FA6420FFF71AF994
:101C00000221034801F09EFA6420FFF713F910BD8A
:101C10000018014010B504466420FFF70BF9D021ED
:101C2000FF20FFF75FFA608A01120D20FFF75AFAD2
:101C3000A17C0E20FFF756FA208A01120F20FFF731
:101C400051FA217C1020FFF74DFA217B1520FFF778
:101C500049FA608901121720FFF744FAA17A182087
:101C6000FFF740FA208901121120FFF73BFA217A91
:101C70001220FFF737FAE08801121320FFF732FA3B
:101C8000A1791420FFF72EFAA1781620FFF72AFA7F
:101C9000208801121920FFF725FA21781A20FFF772
:101CA00021FA10BD10B58221FF20FFF71BFA182181
:101CB0000120FFF717FA8621FF20FFF713FA6121B1
:101CC0000620FFF70FFAA8210720FFF70BFA87215C
:101CD000FF20FFF707FA08211420FFF703FA00217D
:101CE0001520FFF7FFF90F211820FFF7FBF9082156
:101CF0002220FFF7F7F900212320FFF7F3F90F2146
:101D00002620FFF7EFF910BD2DE9F04100274FF431
:101D1000FA70FFF78FF8D021FF20FFF7E3F9832057
:101D2000FFF7BAF980468220FFF7B6F908EB0020EA
:101D300084B2032094FBF0F084B28420FFF7ACF966
:101D400000F00F068620FFF7A7F980468520FFF7F1
:101D5000A3F908EB002085B29C20FFF79DF9074608
:101D600021460EA000F09EFD294610A000F09AFD2D
:101D7000314612A000F096FD394614A000F092FD05
:101D80006420FFF757F80120144908701448FFF742
:101D900041FF14A000F086FDBDE8F0810D0A6861E6
:101DA0006374203D2025750A0D0000000D0A766140
:101DB0006374203D2025750A0D0000000D0A666D34
:101DC00074203D2025780A0D000000000D0A706186
:101DD0005F6C706E203D2025780D0A0038000020D1
:101DE0003C00002031303234783630305F363048B5
:101DF0007A0D0A0010B51EA000F054FD8521FF20C9
:101E0000FFF770F940215920FFF76CF9AA215A20F9
:101E1000FFF768F9AA215B20FFF764F900215C2035
:101E2000FFF760F950218820FFF75CF97721A120A6
:101E3000FFF758F98621FF20FFF754F940210846A3
:101E4000FFF750F934214120FFF74CF910214220CF
:101E5000FFF748F923214320FFF744F941214420AB
:101E6000FFF740F902214520FFF73CF910BD0000C3
:101E70000D4C54393231312073657420746F204F0A
:101E800055545055545F4C564453000010B58221B0
:101E9000FF20FFF727F900216220FFF723F908212F
:101EA0003B20FFF71FF992213E20FFF71BF9482145
:101EB0003F20FFF717F931214020FFF713F9802168
:101EC0004320FFF70FF900214420FFF70BF9002111
:101ED0004520FFF707F900214920FFF703F9012109
:101EE0004A20FFF7FFF800214E20FFF7FBF8002102
:101EF0004F20FFF7F7F800215020FFF7F3F80021FB
:101F00005320FFF7EFF801215420FFF7EBF8812170
:101F1000FF20FFF7E7F879212020FFF7E3F8FF2102
:101F20002020FFF7DFF810BD10B58221FF20FFF75A
:101F3000D9F801213620FFF7D5F829213720FFF7FE
:101F4000D1F806213820FFF7CDF830213920FFF7EE
:101F5000C9F88E213A20FFF7C5F88121FF20FFF74D
:101F6000C1F8F7212020FFF7BDF8FF212020FFF75F
:101F7000B9F88721FF20FFF7B5F814213720FFF7C4
:101F8000B1F800211320FFF7ADF880211320FFF7EF
:101F9000A9F86420FEF74EFF00241FE08721FF20F0
:101FA000FFF7A0F81F20FFF777F800F0800080B15E
:101FB0002020FFF771F800F0800018B10BA000F0AE
:101FC00071FC02E00FA000F06DFC15A000F06AFCAF
:101FD00006E00CA000F066FC601CC4B20A2CDDDB3D
:101FE00000BF16A000F05EFC10BD00000D0A4C54AE
:101FF0003932313120747820706C6C206C6F636BD7
:10200000000000000D0A4C54393231312074782020
:10201000706C6C20756E6C6F636B65640000000003
:102020000D0A4C543932313120747820706C6C2098
:1020300063616C20646F6E65000000000D0A207300
:10204000797374656D207375636365737300000045
:102050001CB58621FF20FFF745F87020FFF71CF81C
:1020600004467120FFF718F8484908807220FFF7EE
:1020700013F8474908807320FFF70EF844490978A0
:1020800000EB0120424908807420FFF705F8414920
:1020900008807520FFF700F83F4908807620FEF79A
:1020A000FBFF3E4908807720FEF7F6FF3B490978A1
:1020B00000EB0120394908807820FEF7EDFF384910
:1020C00008807920FEF7E8FF3549097800EB012008
:1020D000334908807A20FEF7DFFF324908807B20F1
:1020E000FEF7DAFF2F49097800EB01202D4908801F
:1020F0007C20FEF7D1FF2C4908807D20FEF7CCFF25
:102100002949097800EB0120274908807E20FEF745
:10211000C3FF264908807F20FEF7BEFF23490978C8
:1021200000EB0120214908808020FEF7B5FF2049FF
:1021300008808120FEF7B0FF1D49097800EB0120DF
:102140001B49088021461BA000F0ACFB1648008804
:1021500017490988CDE90010104803880C48028807
:102160000F48018819A000F09DFB0E4800880F4918
:102170000988CDE90010074803880448028806480A
:1021800001881EA000F08EFB1CBD00002A0000206C
:10219000280000202E000020360000202C00002007
:1021A00034000020320000203000002026000020F3
:1021B000240000200D0A73796E635F706F6C61728A
:1021C000697479203D202578000000000D0A6866BA
:1021D000702C2068732C206862702C2068616374F6
:1021E0002C2068746F74616C203D20257520257546
:1021F0002025752025752025750D0A000D0A7666A7
:10220000702C2076732C207662702C20766163749B
:102210002C2076746F74616C203D20257520257507
:102220002025752025752025750D0A0010B540F272
:10223000066001F00BFE4FF4004302221021044817
:1022400000F0CEFF4FF40041014800F079FF10BDCF
:102250000018014010B54FF40041024800F070FF33
:1022600010BD00000018014010B54FF400410248B5
:1022700000F068FF10BD00000018014070B5044672
:10228000642C01DD642402E0002C00DA00240D49F6
:102290000C7000BF0CA000F005FB0A4801780EA0EE
:1022A00000F000FB00BFC4F16400134909884843F3
:1022B000642190FBF1F52A460221104801F0E3FF6A
:1022C00070BD0000200000203C3C4D595F44454259
:1022D00055473E3E200000004C63645F70776D5FA1
:1022E0006F757420675F6C63645F70776D203D204D
:1022F00025640D0A000000001E000020002C014093
:1023000010B51021014800F01DFF10BD000C014068
:1023100010B51021014800F013FF10BD000C014062
:1023200010B540F2036001F091FD1023022219461E
:10233000034800F055FF1021014800F001FF10BDD7
:10234000000C014000BFFEE710B540F2056001F04F
:102350007DFD402302221021034800F041FF40216F
:10236000014800F0EDFE10BD0014014010B5044618
:1023700000BF09A000F096FA21460BA000F092FAE7
:1023800000BF24B14021124800F0DCFE03E04021F0
:102390000F4800F0D5FE10BD3C3C4D595F4445420E
:1023A00055473E3E200000004D696343746C5F4317
:1023B0006F6E74726F6C5F4F7574486967682073D5
:1023C0007461747573203D2025640D0A00000000BF
:1023D000001401407047000010B540F2046001F0A5
:1023E00035FD0F2302221021054800F0F9FE0421DB
:1023F000034800F0A5FE0B21014800F0A3FE10BD2C
:102400000010014010B50446002C08DD052C06DA4A
:10241000601E012202FA00F1014800F093FE10BD97
:102420000010014070470246907810B94FF0FF301D
:1024300070471378D01CC05C08701378581CC31701
:1024400000EB93639B11A0EB831313709078401EF5
:1024500090700020ECE70246907840280BD113786A
:10246000581CC31700EB93639B11A0EB83131370ED
:102470009078401E90705378D01CC1545378581CEB
:10248000C31700EB93639B11A0EB831353709078F9
:10249000401C90700020704701468878704700000B
:1024A00010B50446012C04D1C102084800F0EEFE2C
:1024B00010BD022C04D12102044800F0E7FEF7E72A
:1024C0008021024800F0E2FEF2E70000000C01402B
:1024D0007047000010B50446012C06D1C302022249
:1024E00048210A4800F07CFE0EE0022C06D12302AF
:1024F00002224821054800F073FE05E080230222F5
:102500004821024800F06CFE10BD0000000C0140A4
:1025100010B50446012C06D1C302022210210A483C
:1025200000F05EFE0EE0022C06D1230202221021F2
:10253000054800F055FE05E08023022210210248E4
:1025400000F04EFE10BD0000000C014010B500F080
:102550005BF810BD10B51448006840F00100124946
:10256000086008464068114908400F49486008461D
:1025700000680F4908400C4908600846006820F4CC
:1025800080200860084640680A49084006494860BB
:102590000846006806490840034908604FF41F00D8
:1025A000886001F03BFD10BD001002400C00FFE808
:1025B000FFFFF6FEFFFF00F710B5124800684FF46A
:1025C0007A71B0FBF1F4601EB0F1807F01D301207D
:1025D0000FE0601E4FF0E02148610F214FF0FF3007
:1025E00000F070F900204FF0E021886107200861B9
:1025F000002008B100BFFEE70021481E00F062F98C
:1026000010BD00006C00002000B523480068401C8D
:1026100021490860FEF744FC1F4800681421B0FB04
:10262000F1F201FB1200022805D11C48008840F09D
:1026300002001A490880184800686421B0FBF1F2D2
:1026400001FB1200172805D11448008840F004004F
:1026500012490880104800684FF47A71B0FBF1F21B
:1026600001FB12000A2805D10C48008840F4004004
:102670000A490880084800684FF47A71B0FBF1F20B
:1026800001FB1200E92805D10448008840F0080049
:102690000249088000BD00000C000020040000205A
:1026A00070B5044600250221094800F019FB0848CE
:1026B00000F07EFB0546052322460021044800F079
:1026C00021FB0121024800F077FB284670BD000085
:1026D000002401402DE9F04107460C460025002664
:1026E00008E03846FFF7DCFF05440520FEF7A2FBB3
:1026F000701CC6B2A642F4DBB5FBF4F080B2BDE8B4
:10270000F081000010B50949087800EBD07149103C
:10271000A0EB410111B1FFF7FBFD01E0FFF7F0FD78
:1027200002480078401C0149087010BD1C000020C0
:1027300010B50B490B4801F066FF30B1FEF71CFBEA
:102740000749084801F052FF08E00749054801F031
:102750005AFF18B10449034801F048FF10BD0000BA
:1027600005030500003801400403040010B51749B3
:10277000174801F048FF88B1FEF738F913491448AB
:1027800001F034FF13480078F0B94FF4417110485C
:1027900001F01FFF01200F49087015E00E490C4899
:1027A00001F031FF80B1FEF70BF90B49084801F049
:1027B0001DFF0848007838B14FF44171044801F01A
:1027C000FBFE00200349087010BD00000503050052
:1027D000004400401B000020040304007CB50446B4
:1027E0000D460E4903C9CDE90001012C00DD7CBD79
:1027F0000120A0400A490978084060B100BF5DF897
:102800002400072101F0B9FE0028F8D05DF824006B
:10281000294601F060FE00BFE9E70000FC46000821
:10282000100000202DE9F04107460D461646002411
:1028300005E0295D3846FFF7D1FF601CC4B2B44201
:10284000F7DBBDE8F081F0B504460D464FF0FF37E9
:102850000CB93846F0BD681E265CC1B22046FEF7B2
:10286000A1F8B04200D100273846F3E700BFFEE7E9
:1028700010B58021014800F065FC10BD0014014036
:1028800010B540F2056001F0E1FA80230222102128
:10289000034800F0A5FC8021014800F051FC10BD68
:1028A000001401400FB4054B10B503A9044A029867
:1028B00000F02CF810BC5DF814FB0000952F000808
:1028C0007000002010B5002804DB0A07130E054A2B
:1028D000135406E00A07140E034A00F00F031B1FEF
:1028E000D45410BD00E400E018ED00E002E008C898
:1028F000121F08C1002AFAD170477047002001E07A
:1029000001C1121F002AFBD1704700002DE9FF4FC3
:102910008DB09B460F460446002606E025280BD0C6
:102920005A460F999047641C761C20780028F5D1F0
:1029300011B03046BDE8F08F0025A8460122984925
:1029400000E0054314F8013F203B02FA03F008427F
:10295000F7D120782E2817D114F8010F45F004057F
:102960002A280ED06FF02F022078A0F1300109291B
:102970000AD808EB880102EB410100EB0108641C56
:10298000F2E757F8048B641C20786C280DD004DC27
:102990004C2812D06A2811D104E074280DD07A286E
:1029A0000CD10AE045F4001507E0617845F4801584
:1029B000814202D1641C05F58015641C2278692AC5
:1029C00045D008DC002AB3D0582A69D0632A10D039
:1029D000642A08D13BE0702A67D0732A13D0752A85
:1029E0005CD0782A5CD010465A460F999047761CE6
:1029F000D3E017F8040B8DF8000000208DF80100DB
:102A0000E946012003E057F8049B4FF0FF306907C7
:102A10004FF0000501D40AE06D1C45450DDA8542F2
:102A2000FADB19F805100029F6D106E06D1C854285
:102A3000FCDB19F805100029F8D12E4404E019F840
:102A4000010B5A460F9990476D1EF8D2A5E00A2057
:102A50000021CDE90801C5F3025002280DD001CFB5
:102A6000C117031E71F100030DDA4FF0000CD0EB1B
:102A70000C006CEB01012D2308E0FF1D27F0070778
:102A8000F7E80201EDE72B0504D52B238DF828305C
:102A900001233BE0EB0739D02023F7E70A2000E0D1
:102AA00010200021CDE9080107E01020002145F0A9
:102AB0000405CDE908014FF00808C5F302500228CB
:102AC0000FD001CF00214FF0000A2B071FD5702A2D
:102AD0000DD0DDE908C38CF0100C5CEA030C0CD0BF
:102AE00015E0FF1D27F00707F7E80201EBE740229A
:102AF0008DF828204FF0010A0BE050EA010306D0C0
:102B000030238DF828308DF8292002239A46582A40
:102B100004D024A20DF120090B9209E026A2F9E7C6
:102B2000DDE90823FDF7EDFC0B9B9B5C09F8013DFB
:102B300050EA0102F4D1ADEB09002030089068079B
:102B400001D44FF001080899884502DDA8EB010087
:102B500000E000208046002506E00AA85A46405DB5
:102B60000F9990476D1C761C5545F6DB04E030202C
:102B70005A460F999047761CB8F10001A8F1010858
:102B8000F5DC05E019F8010B5A460F999047761CC1
:102B90000899481E08900029F4DC641CC5E6000072
:102BA0000928010030313233343536373839616223
:102BB00063646566000000003031323334353637E7
:102BC000383941424344454600000000816841F0E5
:102BD0000801816000BF816801F008010029FAD175
:102BE000816841F00401816000BF816801F0040147
:102BF0000029FAD1704730B5012902D002291AD133
:102C00000CE0C36A23F47003C362C36A541E4FF41A
:102C1000700505EA04542343C3620DE0836B23F47B
:102C200040138363836B541E4FF4401505EA04542C
:102C30002343836300E000BF00BF30BD21B1826841
:102C400042F40062826003E0826822F400628260E3
:102C5000704730B5436823F4C0534360012904D062
:102C6000022913D0042916D116E0436823F46043E7
:102C700043604368541E4FF4604505EA44342343DF
:102C80004360436843F40063436006E0436843F4F1
:102C90008053436001E000BF00BF00BF30BD8168CA
:102CA00001F0010119B9816841F0010181607047AB
:102CB000012902D0022910D107E0836823F46023A0
:102CC000836083681343836008E0836823F4E043F0
:102CD000836083681343836000E000BF00BF7047D8
:102CE00002688A43026070470549096821F470212F
:102CF000034A1160114609680143116070470000E2
:102D000004240140F0B51D4606290CDA436B01EBA3
:102D100081071F26BE40B34301EB810602FA06F687
:102D20003343436322E00C290EDA036B8E1F06EB5C
:102D300086071F26BE40B3438E1F06EB860602FAA7
:102D400006F63343036311E010290FDAC36AA1F1D9
:102D50000C0606EB86071F26BE40B343A1F10C0606
:102D600006EB860602FA06F63343C3620A2A0CDA39
:102D7000046902EB42070726BE40B44302EB420659
:102D800005FA06F63443046111E0122A0FDAC4682A
:102D9000A2F10A0606EB46070726BE40B443A2F19D
:102DA0000A0606EB460605FA06F63443C460F0BD93
:102DB0000146C86C80B2704701F001021AB1826806
:102DC00042F48002826001F002021AB1826842F489
:102DD000001282607047AAB101F480731BB143688E
:102DE00043F48073436001F480631BB1436843F490
:102DF0008063436001F00203CBB1836843F00203B8
:102E0000836014E001F480731BB1436823F4807382
:102E1000436001F480631BB1436823F48063436023
:102E200001F002031BB1836823F002038360704743
:102E30000348006840F40000014908607047000042
:102E40000824014010B5012002490870000300F079
:102E500079F810BD5500002010B504A0FFF722FD41
:102E60000948007808B100F08DFB10BD6578696EE7
:102E700074345F68616E646C65207265736574207C
:102E8000636F72650D0A00006400002010B52C4BC2
:102E90001B6883432A4C2360231D1B688343241D26
:102EA0002360231D1B688343241D2360231D1B688F
:102EB0008343241D236011B101290ED105E0204B6D
:102EC0001B6803431E4C236008E01D4B1B1D1B6841
:102ED00003431B4C241D236000E000BF00BF22B150
:102EE000012A0FD0022A27D119E0154B08331B689D
:102EF0000343134C08342360231D1B688343241DA4
:102F000023601AE00E4B08331B6883430C4C0834D3
:102F10002360231D1B680343241D23600DE0084B21
:102F200008331B680343064C08342360231D1B68C9
:102F30000343241D236000E000BF00BF10BD00005C
:102F400000040140024909688143014A1160704749
:102F500000040140024909680143014A11607047B9
:102F6000000401400149086070470000140401405A
:102F700001460748006800EA010205481438006865
:102F800000EA010312B10BB1012070470020FCE7F9
:102F90001404014070B504460D46E1B20020FFF76D
:102FA0001DFC204670BD000070B50446394D012C53
:102FB00000D1394D0120A04038490978084000B1BE
:102FC00070BD374931F8140000F040FF354931F841
:102FD000140000F03BFF344951F82430334951F8D4
:102FE00024000222182100F0FBF8314951F8243066
:102FF0002E4951F824000222042100F0F1F828465D
:1030000001F06EFA4FF4E131284601F017FA002181
:10301000284601F034FB0021284601F020FB002166
:10302000284601F00CFB0021284601F0BDFA0021E2
:10303000284601F0B1FA0421284601F008FB0821D6
:10304000284601F014FB284601F092FA40F20531BF
:10305000284601F0BEFA012C06D14FF441712846F2
:1030600001F0B7FAFDF7BAFC124B1B5D03F0030247
:10307000104B1B5D9910104B13F8240000F0D0FD8D
:103080000120A0400549097808430449087000BFA1
:1030900096E7000000380140004400401000002086
:1030A000EC460008D0460008D4460008E446000874
:1030B000DC460008F8460008F046000801480078A1
:1030C000704700006400002010B500BF06A0FFF7A5
:1030D000E9FB0948B0F9001008A0FFF7E3FB00BFC7
:1030E0000548B0F9000010BD3C3C4D595F444542D5
:1030F00055473E3E20000000620000206765745F77
:10310000696E7465726E616C5F74656D70202067A6
:103110005F696E745F74656D70203D2025640D0AD3
:103120000000000001461F2901DDFF207047034811
:103130000068C84000F00100F8E700005C000020D3
:10314000416170470161704710B500228B071C0F69
:103150000F2303FA04F204290EDA204B9B689343F1
:103160001E4CA36023469B688C07240F00FA04F4CE
:1031700023431A4CA3602FE008290EDA174BDB68B3
:103180009343164CE3602346DB688C07240F00FA58
:1031900004F42343114CE3601EE00C290EDA0F4BBC
:1031A0001B6993430D4C236123461B698C07240F35
:1031B00000FA04F42343094C23610DE0074B5B69DB
:1031C0009343064C636123465B698C07240F00FA26
:1031D00004F42343014C636110BD00000000014072
:1031E000F0B5044616460025002201F00F0501F057
:1031F000100707B1354300201EE0012787401F401C
:10320000C7B122684FEA800C0F2707FA0CF7BA43C0
:10321000870005FA07F73A43282904D10127874098
:103220001F40676105E0482903D1012787401F40FF
:1032300027612260471CB8B20828DED3082022E0AC
:10324000012787401F40E7B16268A0F108074FEAF5
:10325000870C0F2707FA0CF7BA43A0F10807BF0045
:1032600005FA07F73A43282904D1012787401F4070
:10327000676105E0482903D1012787401F40276186
:103280006260471CB8B21028DAD3F0BD02469068DD
:10329000084008B1012070470020FCE70246D068D2
:1032A000084008B1012070470020FCE70146C868CB
:1032B00080B27047F0B50A460023002400210025A3
:1032C00000F00046B6F1004F02D11D4EF16901E059
:1032D0001B4E7168C0F3034583B200F44016B6F587
:1032E000401F08D121F07061154E766826F0706697
:1032F000134F7E6012E000F48016B6F5801F06D1F1
:10330000032606FA05F4A14341F0706106E0460D7C
:10331000360103FA06F6B14341F0706122B1460D61
:10332000360103FA06F6314300F00046B6F1004FCD
:1033300002D1034EF16101E0014E7160F0BD000069
:1033400000000140C160704710B5002005490870B9
:1033500000BF05A0FFF7A6FA07A0FFF7A3FA00BF7A
:1033600010BD0000640000203C3C4D595F444542C4
:1033700055473E3E20000000686172645F777464C8
:103380005F64697361626C650D0A000010B501200D
:1033900007490870074800880749088000BF07A050
:1033A000FFF780FA09A0FFF77DFA00BF10BD00000B
:1033B0006400002066000020680000203C3C4D595D
:1033C0005F44454255473E3E2000000068617264FC
:1033D0005F7774645F656E61626C650D0A00000062
:1033E00010B5064800880649088000BF05A0FFF711
:1033F00059FA08A0FFF756FA00BF10BD660000207A
:10340000680000203C3C4D595F44454255473E3ED4
:1034100020000000686172645F7774645F666565B0
:10342000640D0A0010B520210648FFF737FF20B1D0
:1034300020210448FFF784FE03E020210148FFF724
:1034400081FE10BD0008014010B511480088401CE5
:103450000F490880084600880A2803DD00200880FC
:10346000FFF7E0FF0B48007888B10B48008870B187
:1034700009480088401E084908800846008830B97D
:1034800006A0FFF70FFA00F07DF8FFF75DFF10BD13
:103490006A000020640000206800002068617264F7
:1034A0005F7774645F666565645F7461736B2074D5
:1034B000696D656F75740D0A0000000010B500BFDE
:1034C00006A0FFF7EFF90948018809A0FFF7EAF91C
:1034D00000BF06480088C0B210BD00003C3C4D59FA
:1034E0005F44454255473E3E2000000066000020F4
:1034F000686172645F7774645F6765745F74696D37
:10350000656F75742074696D656F7574203D202535
:1035100064282A3130306D73290D0A0010B540F24D
:10352000026000F093FC80211548FFF709FE40215E
:103530001348FFF707FEE023022210211048FFF78F
:103540004FFE1023022248210D48FFF749FE4FF499
:10355000C06000F07BFC04210020FFF7F5FD012294
:1035600000211020FFF792FC1020FFF7F3FC102041
:10357000FFF7F8FC022201210A2000F051FB10BDE8
:103580000008014010B540210548FFF7D9FDC820CB
:10359000FDF750FC40210248FFF7D4FD10BD0000AC
:1035A0000008014010B5044600BF05A0FFF77AF9F6
:1035B000214607A0FFF776F900BF1048048010BD30
:1035C0003C3C4D595F44454255473E3E200000007B
:1035D000686172645F7774645F7365745F74696D4A
:1035E000656F75742074696D656F7574203D202555
:1035F00064282A3130306D73290D0A0066000020DE
:1036000010B504462146202000F014F810BD00003B
:1036100010B504462CB14FF480710548FFF790FDBA
:1036200004E04FF480710248FFF78CFD10BD0000EC
:103630000018014070B504460D46212C03DA2046DF
:1036400000F06AF800E070BD0120FFF7E1FF9DB1D6
:103650004FF480411548FFF775FD202C04D14FF041
:10366000FF301349086019E00120A04010490968A3
:1036700008430F49086011E04FF480410B48FFF701
:103680005FFD202C03D100200949086006E00120DD
:10369000A040074909688143054801600120FDF702
:1036A000C9FB0020FFF7B4FF00BFCCE700140140C6
:1036B0005C00002010B540F2056000F0C7FB4FF43D
:1036C0009043022210211248FFF78AFD4FF49041E7
:1036D0000F48FFF735FD40F2066000F0B7FB7C2491
:1036E0002346022210210B48FFF77AFD21460948A4
:1036F000FFF726FD4FF44073022210210548FFF723
:103700006FFD4FF440710348FFF71CFD10BD000032
:10371000001401400018014070B504460E48FFF740
:10372000C5FD054625F07C0504F03E0045EA400550
:1037300029460948FFF706FE04F0010028B14FF4BE
:1037400000610648FFF7FEFC04E04FF40061034807
:10375000FFF7F6FC70BD00000018014000140140A6
:1037600030B587B0044640F2036000F06FFB4FF4C1
:103770000043022218212C48FFF732FD40F20B6073
:1037800000F064FB642C00DD64242848047003A866
:1037900000F048FE26480088401E05902548006835
:1037A0002549B0FBF1F0401E80B2ADF80C0003A932
:1037B000224800F0BBFD684600F0A5FD0420ADF8EE
:1037C00002006A4602211D4800F03AFC70220221E4
:1037D0001A4800F02BFDC4F16400154909884843DC
:1037E000642190FBF1F52A460221144800F04BFDBC
:1037F00000220221114800F059FD01210F4800F07C
:1038000005FE0E4800F017FC4FF480430222102101
:103810000548FFF7E5FC4FF480410348FFF790FCB3
:10382000FDF74AFB07B030BD000C0140200000202E
:103830001E0000206C00002040420F00002C0140C0
:1038400010B54FF480710648FFF77AFC6420FDF74D
:10385000F1FA4FF480710248FFF774FC10BD0000CC
:103860000014014010B540F2056000F0EFFA4FF48B
:103870008073022210210448FFF7B2FC4FF48071DC
:103880000148FFF75FFC10BD0014014010B5822114
:10389000FF20FDF727FC38213B20FDF723FC10BD5E
:1038A00010B58121FF20FDF71DFCFB210D20FDF748
:1038B00019FC0A20FDF7BEFAFF210D20FDF712FCCE
:1038C00010BD000090B0402217496846FCF736FC56
:1038D000FDF728F81548016815A0FEF7E3FF16A0CC
:1038E000FEF7E0FF1EE0002415E00120A0401A4989
:1038F0000988084068B10120A04017490988814320
:10390000154801805DF8240018B15DF82400804757
:1039100007E0601CC4B2102C03DA0F4800880028AE
:10392000E3D100BFDFE70000904600080000002060
:1039300025730D0A00000000426F617264496E69D0
:103940007420646F6E652120323032322D30372D75
:1039500030310D0A000000000400002008B51EA050
:1039600000680090022000F013F96A46002102204E
:1039700000F02BF900231A461946022000F036F910
:1039800040F2036000F062FA4FF4C06000F05EFAAB
:103990004FF48053022248211048FFF721FC0C21EC
:1039A0000120FFF7D1FB012200211003FFF76EFA7F
:1039B0004FF48050FFF7CEFA4FF48050FFF7D2FA61
:1039C00002220121282000F02BF900F00BF89021B1
:1039D0000348FCF7CCFB08BD00FF0000000C0140D1
:1039E000B800002008B56B4601220021022000F03B
:1039F000D5F860B99DF8000000F03F003F2804D0E2
:103A00009DF8000000F03F0008BD3F20FCE702A049
:103A1000FEF748FFFF20F7E74552524F523A204B3E
:103A200045595F524F575F5343414E206E63613992
:103A30003535355F726561645F696E706F72740DE4
:103A40000A0000002DE9F0414FF0FF080027FFF7C2
:103A5000C9FF07463F2F55DA002550E03C48435D3B
:103A600000221146022000F0C1F820B1294639A0F9
:103A7000FEF718FF41E0FFF7B5FF0746002639E0E3
:103A8000062000FB0560C4B247FA06F000F0010012
:103A9000E8B93D4830F81400022829DA3A4830F8ED
:103AA0001400401C81B2384820F8141030F814007B
:103AB00002281DD10120344948390855611CC8B27B
:103AC000012100F0F3F901203049087010E02E4880
:103AD0004838005D60B100202B4948390855611C09
:103AE000C8B2002100F0E2F90021274820F81410A4
:103AF000701CC6B2062EC3DB00BF681CC5B2062D03
:103B0000ACDB1CE021480078C8B1002412E01E485C
:103B10004838005D60B100201B4948390855611CD8
:103B2000C8B2002100F0C2F90021174820F8141093
:103B3000601CC4B2242CEADB002014490870002366
:103B40001A461946022000F051F80020BDE8F08125
:103B5000564700084552524F523A204B45595F5242
:103B60004F575F5343414E206E6361393535355FA2
:103B700077726974655F6F7574706F727420693DD8
:103B800025640D0A000000000001002056000020FE
:103B900010B504462046FDF7F9FB10BDF8B5064602
:103BA0000D4614461F4605F00E0545F040050CB1C4
:103BB000012000E0002004460120E2B23B462946F5
:103BC00000903046FDF768FCF8BDF8B506460C4697
:103BD000154604F00E0444F0400402202B46062251
:103BE000214600903046FDF7B5FCF8BD7FB582B0A8
:103BF00006460C46154604F00E0444F040040DB190
:103C0000012000E00020054601200090A81CC2B25F
:103C100005AB21463046FDF79DFC06B070BD0000A7
:103C20002DE9F04103460D46164600240027A04624
:103C30002448006800F4E060B0F5A06F15D006DC01
:103C4000B0F5407F18D0B0F5806F19D110E0B0F515
:103C5000C06F06D0B0F5E06F12D100274FF0040816
:103C600015E001274FF0030811E00227B8460EE0E7
:103C700003274FF001080AE004274FF0000806E090
:103C80004FF4A06000F022F80227B84600BF00BF42
:103C9000C7F1040005FA00F4C8F104010F20C84080
:103CA0003040044324010848C45403F01F0101209C
:103CB00088405911890001F1E021C1F80001BDE8F7
:103CC000F08100000CED00E000E400E00249014357
:103CD000024A1160704700000000FA050CED00E098
:103CE0000F4A51680F4A1140082814D2DFE800F04B
:103CF00004050607130A130B00BF00BF00BF41EA0B
:103D0000803109E000BF20F004004FF0805242EA09
:103D10008032114300E000BF00BF014A516070478C
:103D200000100240FF3FFFEF2DE9F04F8BB0074638
:103D3000002009903EA090E8004CC068CDE905BE87
:103D4000CDF810A007900FF2EC0ADAE9000ACDE9ED
:103D5000020A0FF2E00ADAE9000ACDE9000A38485F
:103D60004068C0F381000A900A9820B1012804D06D
:103D7000022829D103E0334928E0324926E03048BF
:103D8000406800F48038B8F5803F09D12D4C2C48AC
:103D9000406800F40039B9F5003F02D1641000E03A
:103DA000294C27484068C0F383422548406800F00A
:103DB000006008B142F010020F2A01D2921C00E00C
:103DC000521C04FB02F101E01E4900BF00BF1C4869
:103DD0004068C0F3031504A8465D21FA06F31848AD
:103DE0004068C0F3022502A8465D23FA06FC144889
:103DF0004068C0F3C2251DF8056023FA06F008905C
:103E000037B1012F06D0022F06D0032F0AD106E0CA
:103E1000099108E0099306E0CDF824C003E0089872
:103E2000099000E000BF00BF09980BB0BDE8F08F1B
:103E3000000000000000000001020304060708095A
:103E40000010024000127A0000093D00064A02EB11
:103E50009011096800F01F0301229A401143024BA0
:103E600003EB90121160704700100240064A02EB0B
:103E70009011096800F01F0301229A409143024B00
:103E800003EB90121160704700100240064A02EBEB
:103E90009011096800F01F0301229A401143024B60
:103EA00003EB901211607047001002407CB505468C
:103EB0000C461148007800F0020018B90FA0FEF778
:103EC000F1FC7CBDA5208DF800008DF801508DF827
:103ED00002409DF800009DF8011008449DF8021072
:103EE0000844C0B28DF80300042269460120FEF7A1
:103EF00099FC00BFE5E70000100000206572726FBA
:103F0000723A20544F4350555F434F4D206E6F74AB
:103F100020696E69740A000010B50446642C00DD47
:103F200064240648047000BF05A0FEF7BBFC0348EC
:103F3000017807A0FEF7B6FC00BF10BD58000020B6
:103F40003C3C4D595F44454255473E3E20000000F1
:103F50007365745F4C65645F50776D2020675F6C9C
:103F600065645F70776D203D2025640D0A000000B8
:103F700000200021264A126842F00102244B1A60F8
:103F800000BF401C224A126802F0020111B9B0F5CC
:103F9000A06FF6D11E4A126802F002020AB900BFF1
:103FA000FEE71B4A52681A4B5A601A4652685A601A
:103FB0001A46526842F480625A601A465268154B9B
:103FC0001A40134B5A601A465268134B1A43104B4F
:103FD0005A601A46126842F080721A6000BF0C4A9A
:103FE000126802F00072002AF9D0094A526822F0E1
:103FF0000302074B5A601A46526842F002025A60A6
:1040000000BF034A526802F00802002AF9D0704744
:1040100000100240FFFFC3F70000280810B5FFF7AB
:10402000A7FF10BD10B50024FFF70CFD4FF4805022
:10403000FEF790FF10BD016841F0800101607047FC
:1040400010B531B101293FD002297DD003297CD19F
:10405000BFE0036A23F001030362836923F00303D3
:104060008361036A148823430362036A23F0020313
:104070000362036A9488234303626A4B984202D026
:10408000694B98421FD1036A23F004030362036A59
:10409000548823430362036A23F008030362036A1C
:1040A000D48823430362436823F4807343604368E6
:1040B000148923434360436823F4007343604368D7
:1040C000548923434360ABE0036A23F01003036287
:1040D000836923F440738361036A148843EA0413F9
:1040E0000362036A23F020030362036A948843EAAD
:1040F000041303624B4B984202D04B4B984226D19B
:10410000036A23F040030362036A548843EA0413FA
:104110000362036A23F080030362036AD48843EADC
:1041200004130362436823F4806343604368148983
:1041300043EA84034360436823F4006343604368B5
:10414000548943EA840301E002E068E0436067E0E9
:10415000036A23F480730362C36923F00303C3611A
:10416000036A148843EA04230362036A23F4007396
:104170000362036A948843EA04230362294B98424A
:1041800002D0294B984223D1036A23F4806303624F
:10419000036A548843EA04230362036A23F4006336
:1041A0000362036AD48843EA04230362436823F466
:1041B000805343604368148943EA041343604368AF
:1041C00023F4005343604368548943EA0413436073
:1041D00026E0036A23F480530362C36923F4407327
:1041E000C361036A148843EA04330362036A23F455
:1041F00000530362036A948843EA04330362094B61
:10420000984202D0084B984208D1436823F4804377
:1042100043604368148943EA8413436000E000BFAD
:1042200000BF10BD002C01400034014031B1012914
:104230000CD0022913D0032922D118E0836923F07E
:10424000700383618369134383611AE0836923F4F4
:10425000E0438361836943EA0223836111E0C36918
:1042600023F07003C361C3691343C36109E0C369E9
:1042700023F4E043C361C36943EA0223C36100E05E
:1042800000BF00BF704731B1012906D0022906D016
:10429000032908D105E0426306E0826304E0C263BB
:1042A00002E0026400E000BF00BF704731B10129A5
:1042B0000CD0022913D0032922D118E0836923F0FE
:1042C000080383618369134383611AE0836923F4DC
:1042D00000638361836943EA0223836111E0C36958
:1042E00023F00803C361C3691343C36109E0C369D1
:1042F00023F40063C361C36943EA0223C36100E09E
:1043000000BF00BF70470021018041808180C180D3
:10431000018141817047016821F00101016070470E
:10432000016841F001010160704700000A88826263
:10433000294A904220D0B0F1804F1DD0274A9042A8
:104340001AD0274A904217D0264A904214D0264AC3
:10435000904211D0254A90420ED0254A90420BD06F
:10436000244A904208D0244A904205D0234A9042E1
:1043700002D0234A90420FD1026822F070020260FC
:1043800002688B7803F060031A43026002680B79BD
:1043900003F010031A4302608A68C262194A90420D
:1043A0000CD0194A904209D0026822F4407202608F
:1043B00002688B8903F440731A430260064A9042F4
:1043C00002D0094A904201D18A7B0263426942F0DD
:1043D0000102426170470000002C014000040040CF
:1043E00000080040000C004000340140004C014037
:1043F000005001400054014000180040001C0040E3
:10440000002000400010004000140040012904D1A9
:10441000426C42F40042426403E0426C22F40042E7
:104420004264704700210180418081804FF6FF7116
:104430008160002181818173704700002DE9F04780
:1044400004460D460027B846B94600261D49601AA5
:104450008C421CD006DC1C48204470B1B0F5806F43
:104460001FD10FE0B0F5806F16D0B0F56C4F18D1AA
:104470000320FFF759FC074614E00220FFF754FC25
:1044800007460FE00220FFF74FFC07460AE0022034
:10449000FFF74AFC074605E00220FFF745FC074608
:1044A00000E000BF00BF07EB5500B0FBF5F64FF68C
:1044B000F07006EA000806F00F0948EA0900A0605B
:1044C000BDE8F087004C004000BCFFBF01464868D3
:1044D000C0F308007047C1F3080242607047000053
:1044E00010B504462049601A8C4228D006DC1F48CB
:1044F000204490B1B0F5806F33D117E0B0F5806FF4
:1045000026D0B0F56C4F2CD140F20E30FFF7BEFC38
:1045100040F20E30FFF7AAFC24E040F21140FFF712
:10452000B5FC40F21140FFF7A1FC1BE040F2124045
:10453000FFF7ACFC40F21240FFF798FC12E040F2AB
:104540001340FFF7A3FC40F21340FFF78FFC09E094
:1045500040F21440FFF79AFC40F21440FFF786FC4B
:1045600000E000BF00BF10BD004C004000BCFFBF1A
:10457000C16841F40051C160704710B5024602EBBA
:104580009110006801F01F040123A340184008B1F6
:10459000012010BD0020FCE70A460021416921F4FA
:1045A00000711143416170470A460021416921F4BD
:1045B000807111434161704710B5C1F3891282586F
:1045C00001F01F040123A3409A43C1F38913C25091
:1045D00010BD10B5C1F38912825801F01F040123E8
:1045E000A3401A43C1F38913C25010BD10B500EBAC
:1045F00091521268C1F304440123A3409A4300EB93
:1046000091531A6010BD70B5024600230024C1F317
:104610008910105801F01F060125B54000EA050376
:1046200002EB91500068C1F304460125B54000EA51
:10463000050414B10BB1012070BD0020FCE7C26875
:1046400022F4C062C260C2680A43C26070470A4670
:104650000021C16821F004011143C1607047026963
:1046600022F44052026102690A43026170470A461D
:104670000021C16821F008011143C1607047C26880
:1046800022F48052C260C2680A43C26070470000D0
:104690000000000025400008493400089517000874
:1046A000000000000000000000000000000000000A
:1046B00000000000000000000000000000000000FA
:1046C00000000000000000000000000005270008B6
:1046D0000E061107000200000400000000040000A4
:1046E0000800000000080140000801400206020620
:1046F00025000000260000000505000000380140EC
:1047000000440040416E737765724370755F646169
:1047100074610000A50000000000000049696341C9
:1047200070705F526561645F427974655F43757252
:10473000004969634170705F57726974655F4279BF
:10474000746573004969634170705F526561645FAD
:10475000427974657300FEFDFBF7EFDF01070D136F
:10476000191F02080E141A2003090F151B21040A31
:1047700010161C22050B11171D23060C12181E24DF
:104780004275696C6474696D65203A5365702020C8
:104790003520323032322031343A34303A3231003E
:1047A0004552524F523A2073656E64206465765FBD
:1047B00061646472204949435F576169745F416372
:1047C0006B28696E64657829213D20302064657608
:1047D0005F61646472203D203078257820696E64C2
:1047E0006578203D2025640D0A0000000C48000873
:1047F0000000002074000000EC2800088048000839
:1048000074000020D4200000FC2800088047000825
:104810000000000000000000000000000000000098
:1048200000000000000400000000A00F6400000071
:104830000000000000000000000000000000000078
:104840000000000000005A008000200080000004EA
:10485000200510000400100058027C02A0DC0000BB
:1048600000000000640000000000000000000000E4
:104870000000DC000000000000F36F0600000000F4
:0400000508000105E9
:00000001FF
