:020000040800F2
:100000005821002019010008AD200008391100080E
:100010001D200008B10900080926000800000000A2
:10002000000000000000000000000000C1210008E6
:10003000550E000800000000FD2000083D220008C9
:1000400033010008330100083301000833010008C0
:1000500033010008330100083301000833010008B0
:1000600033010008330100086B0F0008330100085A
:100070003301000833010008330100083301000890
:100080003301000833010008330100083301000880
:10009000330100083301000833010008810F000814
:1000A0003301000833010008330100083301000860
:1000B000E52300083301000833010008330100087C
:1000C0003301000833010008330100083301000840
:1000D00033010008CD240008092500083301000879
:1000E000510F000833010008330100080000000030
:1000F0000000000000000000000000000000000000
:1001000033010008DFF80CD000F0F2FA0048004795
:10011000A1390008582100200648804706480047BA
:10012000FEE7FEE7FEE7FEE7FEE7FEE7FEE7FEE7A7
:10013000FEE7FEE74522000805010008202A04DB4F
:10014000203A21FA02F00021704721FA02F3D04050
:10015000C2F12002914008431946704740EA01036A
:100160009B0703D009E008C9121F08C0042AFAD26D
:1001700003E011F8013B00F8013B521EF9D2704731
:10018000D2B201E000F8012B491EFBD270470022D9
:10019000F6E710B513460A4604461946FFF7F0FF86
:1001A000204610BD2DE9FE4F804681EA0300C00FB6
:1001B0000C46009021F0004123F00045B8EB02000E
:1001C000A94105D24046214690461C460B460246B0
:1001D00023F00040104347D0270DC7F30A00C3F3B4
:1001E0000A510290401A019040286BDAC3F31300C1
:1001F00040F4801B0098924620B10023D2EB030A02
:1002000063EB0B0B01985946C0F14002504600F0D9
:10021000B9F906460D4650465946019A00F0C1F913
:1002200010EB08006141002487EA115284EAE77369
:100230001A4340D0009A62B3019A012A4FEA07524A
:1002400015DC001B61EB02014FF0004202EA07528D
:10025000CDE90042001C41F5801132462B4600F0EA
:10026000F8F903B0BDE8F08F40462146F9E7001BDE
:1002700061EB0201001C41F5801300185B4120185E
:10028000A2F5001747EB030140EAD570B6196D419E
:1002900011E06D084FEA360645EAC0754FEA07528D
:1002A000001B61EB0201001C41F5801149084FEA77
:1002B00030000019514132462B4603B0BDE8F04FE3
:1002C00000F0B8B90098012240000023D0EB0202F0
:1002D00063EBE073009821464FEAE074B8EB00004E
:1002E00061EB0401E9E783F000435BE781F0004143
:1002F00058E72DE9FE4F81EA030404F0004421F0A1
:10030000004100944FF0000B23F0004350EA010439
:100310005ED052EA03045BD0C3F30A54C1F30A551A
:100320002C44A4F2F3340194A0FB0254C1F3130152
:1003300041F48011C3F3130343F4801301FB02441F
:1003400000FB034E840A970A44EA815447EA835724
:10035000A4FB076802958D0A05FB07854FEA932CDD
:1003600004FB0C542705029D4FEA065847EA16374E
:10037000B5EB08056EEB070C870E920E47EA811766
:1003800042EA8312A7FB0201B6EB0B0164EB000407
:100390002B0D43EA0C335E1844EB1C50DA465146F1
:1003A000E7FB0201C5F313044FEA0B3343EA14538E
:1003B0004FEA0432019C43EA0603A4F10C040294C0
:1003C000009CCDE900B400F044F903B0BDE8F08F23
:1003D00000200146F9E72DE9F04D81EA030404F01D
:1003E000004B21F0004514464FF0000A23F0004175
:1003F00050EA050220D054EA01021DD0C5F30A5785
:100400000246C5F31303C1F31300C1F30A5640F4C7
:10041000801543F48013A7EB0608101BD64608F29C
:10042000FD3873EB050002D308F1010801E09218D2
:100430005B41B8F1000F03DA00200146BDE8F08D02
:1004400000204FF48011064684460EE0171B73EB24
:10045000050705D3121B63EB050306434CEA010CA9
:1004600049084FEA300092185B4150EA0107EDD18C
:1004700052EA030012D082EA040083EA050108432D
:1004800005D0101BAB4106D20122002306E000225A
:100490004FF0004302E06FF0010253101AEB060028
:1004A0004CEB085110EB0A0041EB0B01BDE8F04D9D
:1004B00000F0C0B896230022114600F08DB870B548
:1004C000C1F30A5201F000450024C1F3130140F2C8
:1004D000FF3341F480119A4201DA002070BD40F2EE
:1004E00033439A42A2F2334203DC5242FFF726FE24
:1004F00000E090402C43F1D0404270BD00F000423B
:1005000030F000400AD0C10D01F56071C0F3160053
:1005100042EA0151C20840071143704700200146DA
:1005200070472DE9F05F0546002092469B468846BD
:100530000646814640241BE028464146474622465F
:10054000FFF7FCFD53465A46C01A914110D311469D
:100550001846224600F016F82D1A67EB01084F46A0
:1005600022460120002100F00DF817EB00094E4152
:10057000201EA4F10104DFDC484631462A464346EA
:10058000BDE8F09F202A04DB203A00FA02F10020A7
:1005900070479140C2F1200320FA03F319439040C1
:1005A0007047202A06DBCB17203A41FA02F043EAD3
:1005B000E07306E041FA02F3D040C2F1200291401C
:1005C0000843194670470029A8BF7047401C4900DE
:1005D00008BF20F00100704710B4B0FA80FC00FAA8
:1005E0000CF050EA010404BF10BC704749B1CCF1D3
:1005F000200421FA04F411FA0CF118BF012121435F
:100600000843A3EB0C01CB1D4FEA00614FEA102019
:1006100042BF002010BC704700EBC35010440029BB
:10062000A4BF10BC7047401C490008BF20F0010067
:1006300010BC704710B5141E73F1000408DA401C9A
:1006400041F1000192185B411A4301D120F00100F1
:1006500010BD2DE9F04D92469B4611B1B1FA81F2E1
:1006600002E0B0FA80F220329046FFF78BFF04469A
:100670000F4640EA0A0041EA0B0153465A46084336
:1006800013D0114653EA010019D0C8F14002504678
:10069000FFF754FD05460E46504659464246FFF7C1
:1006A00071FF084305D0012004E020463946BDE82B
:1006B000F08D0020054346EAE0762C4337430A9844
:1006C0006305E40AA0EB08000022FD0A44EA47544F
:1006D0000A3002D500200146E9E7010510196941F9
:1006E000DDE9084500196941BDE8F04DA2E70000C9
:1006F000064C074D06E0E06840F0010394E807006F
:1007000098471034AC42F6D3FFF700FD3449000897
:100710005449000810B540F2096003F007FC0320BB
:1007200003F04EFB002002F093F900224FF4807199
:10073000184802F004FA00220221164802F0FFF9DC
:1007400001221146134802F038F90021114802F045
:1007500029F9012211460F4802F001F902F01CFAB2
:100760000523102200210B4802F080F94FF460228B
:100770000121084802F050F9064802F044F901202E
:1007800000F06AFB034802F0D5F80121014802F0AD
:10079000C7F910BD002401401CB50446474903C9F0
:1007A000CDE9000120788DF8010000208DF80200CD
:1007B00020783238122863D2DFE800F02762090E71
:1007C00013621B2D313A4245494E52595A5E6078A8
:1007D000012102F069FE63E06078002102F064FE0E
:1007E0005EE0607810B100F0DFFB01E000F076FB26
:1007F00056E0607820B10121282002F055FE03E088
:100800000021282002F050FE4AE0607802F086FBCA
:100810008DF8020044E0607803F0EEFB40E002F067
:100820004FFB642190FBF1F0C0B28DF8020037E07D
:10083000607810B102F096FC01E002F087FC2FE036
:1008400002F0BAFC2CE0607802F0D4FD28E002F05F
:1008500051FD8DF8020023E0607802F0BBFD00BF7F
:100860001748008840F010001549088018E017E08C
:10087000607801F0E7FB13E0607803F035F80FE0F3
:10088000FF208DF8020000BF0E4B84220EA116A09F
:1008900001F0BCFE21781DA001F0B8FE00BF00BF32
:1008A00000BF0321684600F085F88DF8030004229C
:1008B0006946012001F084FE1CBD00005C48000870
:1008C000040000204C4800087372635C7561727408
:1008D0005F636F6E6563745F6370755F68616E649C
:1008E0006C65722E630000003C3C46696C653A25DD
:1008F0007320204C696E653A2564202046756E632E
:1009000074696F6E3A25733E3E2000006572726F07
:10091000723A2063707520756172742073656E641D
:1009200020756E6B6F776E20636D64212120636D7F
:1009300064203D202523780D0A00000010B501F049
:10094000B7FB01F0DFFA4FF4A06003F02FFA4FF489
:10095000C06003F0EBFA0121144802F0ADFB002067
:1009600002F01EFA012002F01BFA01F09DFC00F0DB
:1009700097FF00F061FF03F05FF8FFF7CBFE462022
:1009800002F0A4FE02F0E6FC01F036FB02F038FEB5
:1009900002F01EFF01F044FB012002F06CFD00207C
:1009A00002F069FD032001F099FB10BD0002300048
:1009B00000BFFEE710B502460B460021002004E010
:1009C000545C0444E0B24C1CE1B29942F8DB10BD27
:1009D00010B5034A0349044800F0ECF910BD0000CB
:1009E00099070008840000201100002010B5432161
:1009F0000148FFF7CCFB10BD8400002010B504486F
:100A000003F008FEC4B22146024801F09DFB10BD70
:100A1000004400408400002070B50446A4F130007A
:100A2000072805D2DFE800F00B142B42494F5B008A
:100A3000214630A001F0EAFD00F0FCF800BF374885
:100A4000016837A001F0E2FD37A001F0DFFD4EE0C4
:100A500000F0F0FA90B13D48007864280BDA3B488A
:100A600000780A3040B201F075FA3848017838A0B1
:100A700001F0CCFD02E041A001F0C8FD37E000F03C
:100A8000D9FA90B1314800780A280BDB2F49097850
:100A90000A3948B201F05EFA2C4801783CA001F016
:100AA000B5FD02E045A001F0B1FD20E047A001F056
:100AB000ADFD012002F08EFC19E04AA001F0A6FD78
:100AC00000F0BAFE13E002F0F5F908B14AA000E028
:100AD0004AA0054629464AA001F098FD07E002F029
:100AE000EFF9054629464CA001F090FD00BF00BF7C
:100AF00070BD00004552524F523A20436F6D6D61F8
:100B00006E6420556E6B6E6F7720636D64203D20A0
:100B1000307825782121210D0A00000000000020F6
:100B200025730D0A00000000417574686F723A4A1F
:100B3000432644615A6869203C76783A3238353425
:100B400030383133363E0D0A00000000200000200E
:100B5000696E637265617365203720696E63682012
:100B60006C63642050574D2C675F6C63645F7077D3
:100B70006D203D202564200D0A000000675F6C6336
:100B8000645F70776D203D203130300D0A00000029
:100B90006465637265617365203720696E636820E0
:100BA0006C63642050574D2C675F6C63645F707793
:100BB0006D203D202564200D0A000000675F6C63F6
:100BC000645F70776D203D20300D0A00726573659B
:100BD0007420636F726520626F61726421210D0A57
:100BE000000000007265736574204C434420262089
:100BF000393231310D0A00006F6E00006F666600F9
:100C0000576174636820446F67205374617475730F
:100C1000203D2025730D0A004D637520696E7465B3
:100C2000726E616C5F74656D70203D2025640D0AE5
:100C30000000000010B50FA001F0E8FC11A001F0C9
:100C4000E5FC00F0F7F928B116A001F0DFFC23A0C5
:100C500001F0DCFC2FA001F0D9FC34A001F0D6FC9F
:100C600038A001F0D3FC40A001F0D0FC46A001F078
:100C7000CDFC10BD0D0A446562756720636D643A52
:100C80000D0A0000302E207072696E742050726F51
:100C90006772616D206275696C642074696D650DA1
:100CA0000A000000312E203720696E6368206C63D3
:100CB000642050574D20696E637265616365283505
:100CC000696E6368206C636420686173206E6F20B6
:100CD000656666656374290D0A000000322E2037B0
:100CE00020696E6368206C63642050574D206465F2
:100CF0006372656163652835696E6368206C63643F
:100D000020686173206E6F20656666656374290DC7
:100D10000A000000332E20726573657420636F72C1
:100D20006520626F61726421210D0A00342E2072E9
:100D300065736574204C4344202620393231310DCF
:100D40000A000000352E207072696E7420486172AE
:100D50006420576174636820446F67205374617422
:100D600075730D0A00000000362E207072696E74D3
:100D7000204D637520696E7465726E616C5F746579
:100D80006D700D0A000000006F746865722E20708F
:100D900072696E742068656C700D0A0010B50448A5
:100DA00003F038FCC4B22046FFF736FE10BD000049
:100DB000003801402DE9F04704460E4617464FF033
:100DC000000A46E0304601F0E0F900F0FF08207A22
:100DD000404501DDBDE8F08794F80880207AC0F135
:100DE000040000F0FF0A002507E0601900EB0A018B
:100DF000304601F091F9681CC5B24545F5DB207815
:100E0000A52807D10421204601F0EBFB10B9601C96
:100E1000B8471EE0012505E0605DA52800D103E08C
:100E2000681CC5B2042DF7DB00BF042D0FD025725E
:100E30004FF0000908E0605D04F80900681CC5B2C5
:100E400009F1010000F0FF09042D02DAF3E70420A4
:100E50002072B7E7704700000349086000BF0249ED
:100E600009680029FBD1704708000020F0B503464F
:100E700000224FF0E0277D69104F3F68DFF840C047
:100E8000B7FBFCF7FEB203FB06F44FF0E027B969AD
:100E900010E04FF0E027B86988420BD0884202D2B8
:100EA0000F1A3A4402E02F1A0F443A440146A24274
:100EB00000D300E0EDE700BFF0BD00007C000020A3
:100EC00040420F000448006820B103480068401EFB
:100ED00001490860704700000800002010B50B4869
:100EE000028802210A4803F05EFA6420FFF7B4FF8B
:100EF000074803F0A0FA00F01FF800BF05A001F0BA
:100F000085FB08A001F082FB00BF10BD1E00002081
:100F1000002C01403C3C4D595F44454255473E3E04
:100F20002000000044697361626C655F4C63644C2F
:100F3000696768740D0A000010B500F0F7FF4FF400
:100F40008041024801F0FEFF10BD0000000C01408E
:100F500010B54FF4805001F0C3FE28B14FF480501B
:100F600001F0B8FE01F022FE10BD10B5102001F016
:100F7000B7FE20B1102001F0ADFE01F023FE10BD40
:100F800010B54FF4007001F0ABFE20B14FF40070CB
:100F900001F0A0FE06E0202001F0A2FE10B120200A
:100FA00001F098FE10BD000010B500F037F8642085
:100FB000FFF752FF0E49097809B9462101E00C49B3
:100FC000097848B200F0C6FF6420FFF745FF0948E2
:100FD00003F036FA6420FFF73FFF00F01FF800BF70
:100FE00005A001F013FB08A001F010FB00BF10BD2D
:100FF00020000020002C01403C3C4D595F444542FC
:1010000055473E3E20000000456E61626C655F4CB6
:1010100063644C696768740D0A00000010B500F045
:101020008FFF4FF48041024801F08EFF10BD000099
:10103000000C0140002070472DE9F05F02211020D4
:1010400001F016FA83465846FFF734FA8046FFF758
:1010500055FA06464FF06632124BFFF74AF904463E
:101060000D4622462B4610481049FFF73CF98046B2
:101070000F4A104BFFF7AFF9064600220E4BFFF761
:1010800091F804460D4600220C4B20462946FFF7F6
:1010900030F90646FFF713FA0FFA80FA5046BDE81A
:1010A000F09F000066664A3FE17A14AE47E1F63FE2
:1010B00022FDF675E09C713F00002440000059407D
:1010C00038B504460020009001226946204600F011
:1010D00007F810B19DF8000038BD0020FCE70000C3
:1010E000F8B504460D4616462B462246064800969D
:1010F0000178002000F0E6F908B9012000E00020A6
:1011000007463846F8BD00003900002033B581B0ED
:101110000446012002AB22460090064801780020D8
:1011200000F02EFA08B9012000E00020054628460C
:101130003EBD00003900002000BFFEE710B50446A8
:101140000021204600F0E4FA204601F059F8002181
:10115000204600F009FB0420FFF788FE012120460D
:1011600000F0D6FA0620FFF781FE0021204600F0AD
:10117000CFFA0320FFF77AFE10BD000070B50546D8
:1011800040F2036002F0D2FE012D02D14FF4406420
:1011900005E0022D02D14FF4407400E0C024234644
:1011A00002221021054801F01DFF0121284600F010
:1011B000AFFA0121284600F0D7FA70BD000C0140BB
:1011C00010B504460021204600F0A2FA204601F0A6
:1011D00017F80121204600F0C7FA0420FFF746FE69
:1011E0000121204600F094FA0620FFF73FFE00217F
:1011F000204600F08DFA0320FFF738FE10BD2DE9E0
:10120000F04107460D4600240021384600F080FAE0
:10121000384600F0D7FF0320FFF728FE00261EE027
:101220000021384600F074FA0520FFF71FFE012167
:10123000384600F06DFA6006040E0420FFF716FE33
:10124000384600F0A5FF08B1601CC4B20420FFF7C7
:101250000DFE0021384600F05BFA701CC6B2082E65
:10126000DEDB1DB93846FFF7ABFF02E03846FFF77B
:1012700065FF2046BDE8F08170B506460C460021AA
:10128000304600F045FA304600F0BAFF00251CE079
:101290000320FFF7EBFD04F08001304600F064FA14
:1012A0006006040E0420FFF7E1FD0121304600F046
:1012B0002FFA0620FFF7DAFD0021304600F028FA69
:1012C0000320FFF7D3FD681CC5B2082DE0DB70BD1D
:1012D00010B50446204600F093FF0121204600F09F
:1012E00043FA0121204600F013FA0620FFF7BEFD65
:1012F0000021204600F038FA0620FFF7B7FD002154
:10130000204600F005FA10BD10B504460021204625
:1013100000F0FEF9204600F073FF0021204600F0A7
:1013200023FA0620FFF7A2FD0121204600F0F0F984
:101330000320FFF79BFD0121204600F015FA06204F
:10134000FFF794FD10BD70B5054600240021284626
:1013500000F0DEF90320FFF789FD0121284600F0A7
:1013600003FA0320FFF782FD284600F02BFF01213E
:10137000284600F0CDF90320FFF778FD0BE0601C54
:10138000C4B2FA2C04DD2846FFF7BEFF012070BD71
:101390000120FFF76BFD284600F0FAFE0028EED191
:1013A0000021284600F0B4F90320FFF75FFD00207C
:1013B000EDE7000010B504460120A0400849097877
:1013C000084000B110BD2046FFF7D8FE0120A04024
:1013D0000349097808430249087000BFF2E700009A
:1013E0001A0000202DE9F0410746884615461E46A2
:1013F0003846FFF76DFF48F001013846FFF73CFF24
:101400003846FFF7A0FF002811D000BF144B2E2252
:1014100014A118A001F0FAF839461FA001F0F6F85F
:1014200000BF3846FFF770FF0220BDE8F0810024BE
:101430000FE0701EA04205D100213846FFF7DFFE05
:10144000285504E001213846FFF7D9FE2855601CD5
:10145000C4B2B442EDDB3846FFF756FF0020E4E7A4
:10146000644800087372635C6969635F6170702E21
:10147000630000003C3C46696C653A257320204CB3
:10148000696E653A2564202046756E6374696F6ED7
:101490003A25733E3E2000004552524F523A494988
:1014A000435F576169745F41636B28696E64657857
:1014B00029213D203020696E646578203D20256417
:1014C0000D0A00002DE9F84305460F4690461E46DA
:1014D000DDF8209000200346424639460090284619
:1014E00000F04EF80446FF2C07D14B4632463946F1
:1014F0002846FFF777FFBDE8F88300BF064B9F2221
:1015000006A10AA001F082F82A46214610A001F0A7
:101510007DF800BF2046EEE78C4800087372635CDC
:101520006969635F6170702E630000003C3C46692E
:101530006C653A257320204C696E653A256420203D
:1015400046756E6374696F6E3A25733E3E200000E7
:101550004552524F523A204969634170705F577249
:101560006974655F427974657320726574203D20EB
:10157000256420696E646578203D2025640D0A008D
:101580002DE9F04705460E4617469846DDF82090AF
:101590002846FFF79DFE06F0FE012846FFF76CFE89
:1015A0002846FFF7D0FE90B100BF2C4B5F222CA144
:1015B0002FA001F02BF82A463146364801F026F8D4
:1015C00000BF2846FFF7A0FE0220BDE8F08739469D
:1015D0002846FFF751FE2846FFF7B5FE002810D039
:1015E00000BF1E4B69221EA121A001F00FF8294661
:1015F00029A001F00BF800BF2846FFF785FE032065
:10160000E3E7B9F1000F01D1FF20DEE700241DE080
:1016100018F804102846FFF72FFE2846FFF793FE20
:10162000002811D000BF0D4B7C220DA110A000F0AE
:10163000EDFF2A46214627A000F0E8FF00BF28461C
:10164000FFF762FE0420C0E7601CC4B24C45DFDB3C
:101650002846FFF759FE0020B7E700007948000848
:101660007372635C6969635F6170702E6300000070
:101670003C3C46696C653A257320204C696E653A9E
:101680002564202046756E6374696F6E3A25733E3B
:101690003E200000E84800084552524F523A20735D
:1016A000656E6420776F72645F616464722049497B
:1016B000435F576169745F41636B28696E64657845
:1016C00029213D203020696E646578203D20256405
:1016D0000D0A00004552524F523A2073656E642045
:1016E00064617461204949435F576169745F416374
:1016F0006B28696E64657829213D203020693D257D
:101700006420696E646578203D2025640D0A000020
:1017100070B505460C46012D0BD124B1810211484C
:1017200001F012FC1DE04FF480610E4801F00AFC4C
:1017300017E0022D0BD124B1E9010A4801F004FCA5
:101740000FE04FF48071074801F0FCFB09E024B181
:101750004021044801F0F8FB03E04021014801F07A
:10176000F1FB70BD000C014070B505460C46012D23
:101770000BD124B1C102114801F0E6FB1DE04FF48A
:1017800000610E4801F0DEFB17E0022D0BD124B101
:1017900029020A4801F0D8FB0FE04FF40071074816
:1017A00001F0D0FB09E024B18021044801F0CCFB1A
:1017B00003E08021014801F0C5FB70BD000C014031
:1017C00010B5FFF739FC0149088010BD72000020F8
:1017D00010B58121FF20FFF799FC0020FFF770FC76
:1017E000044621460BA000F011FF0120FFF768FC22
:1017F000044621460DA000F009FF0220FFF760FC1F
:101800000446214609A000F001FF0AA000F0FEFEF8
:1018100010BD00000D0A4C54393231312043686943
:10182000702049443A25782C0000000025782C20AF
:10183000000000000D0A000010B501F0B7FF00F035
:101840008BF900F001F810BD10B50FA000F0DEFE1E
:10185000FFF7BEFF00F0DAF900F02AF900F00AF90C
:1018600000F006FA00F06AF900F030F80A20FFF7FD
:10187000F3FA00F0B3FA00F063FA00F011FA02F0A4
:101880007DF802F071F810BD0D0A204C5439323148
:10189000315F6D69706920746F2054544C0D0A00DB
:1018A00010B50020FFF786FD40F2066002F03EFB17
:1018B00002231A461021044801F094FB0221024839
:1018C00001F040FB10BD00000018014070B5D021B0
:1018D000FF20FFF71BFC60210C20FFF717FC6021A5
:1018E0001C20FFF713FC70212420FFF70FFC302190
:1018F0002D20FFF70BFC0A213120FFF707FCF02118
:101900002520FFF703FC30212A20FFF7FFFB4F21A2
:101910002120FFF7FBFB00212220FFF7F7FB01212D
:101920001E20FFF7F3FB80212320FFF7EFFB0221AE
:101930000A20FFF7EBFB02213820FFF7E7FB042129
:101940003920FFF7E3FB08213A20FFF7DFFB1021E6
:101950003B20FFF7DBFB04213F20FFF7D7FB0821EB
:101960004020FFF7D3FB10214120FFF7CFFB2021C0
:101970004220FFF7CBFBA0212B20FFF7C7FBD02194
:10198000FF20FFF7C3FB2620FFF79AFB054605F073
:101990007F0529462620FFF7B9FB0F212720FFF7F7
:1019A000B5FB8121FF20FFF7B1FBBF212020FFF70E
:1019B000ADFBFF212020FFF7A9FB0520FFF74CFA24
:1019C0006F210B20FFF7A2FBFF210B20FFF79EFBEF
:1019D0004FF44870FFF740FA002415E0C820FFF7E5
:1019E0003BFAD021FF20FFF791FB8720FFF768FB30
:1019F00000F0080018B10DA000F008FE06E010A0ED
:101A000000F004FE601CC4B20A2CE7DB00BFD0214A
:101A1000FF20FFF77BFB9420FFF752FB00F07F06CF
:101A200031460EA000F0F2FD70BD00000D0A4C54CE
:101A3000393231312070637220737461626C6500D9
:101A40000D0A4C54393231312070637220756E7337
:101A50007461626C65212121210000004C543932EF
:101A60003131207063725F737461626C655F4D3DEC
:101A700025780A0010B58621FF20FFF747FB852156
:101A80003020FFF743FBD821FF20FFF73FFB002169
:101A90001620FFF73BFBD021FF20FFF737FB122179
:101AA0004320FFF733FB05210220FFF72FFB10BD7A
:101AB00010B5D021FF20FFF729FB00210846FFF7D2
:101AC00025FB8221FF20FFF721FB44210220FFF7A5
:101AD0001DFB36210520FFF719FB26210D20FFF7FE
:101AE00015FB0C211720FFF711FB0C211D20FFF720
:101AF0000DFB81210A20FFF709FB00210B20FFF7D6
:101B000005FB9F210720FFF701FBFC210820FFF7C1
:101B1000FDFA01210920FFF7F9FA01211120FFF751
:101B2000F5FA8621FF20FFF7F1FA1B213320FFF79A
:101B3000EDFA1B213420FFF7E9FA10BD10B5822120
:101B4000FF20FFF7E3FA48212D20FFF7DFFA82217B
:101B50003520FFF7DBFA10BD10B50221064801F071
:101B6000F1F96420FFF778F90221034801F0ECF95C
:101B70006420FFF771F910BD0018014010B504464C
:101B80006420FFF769F9D021FF20FFF7BFFA608AD0
:101B900001120D20FFF7BAFAA17C0E20FFF7B6FA6A
:101BA000208A01120F20FFF7B1FA217C1020FFF7E5
:101BB000ADFA217B1520FFF7A9FA608901121720E1
:101BC000FFF7A4FAA17A1820FFF7A0FA20890112E2
:101BD0001120FFF79BFA217A1220FFF797FAE0888D
:101BE00001121320FFF792FAA1791420FFF78EFA61
:101BF000A1781620FFF78AFA208801121920FFF732
:101C000085FA21781A20FFF781FA10BD10B58221DC
:101C1000FF20FFF77BFA18210120FFF777FA8621D2
:101C2000FF20FFF773FA61210620FFF76FFAA82162
:101C30000720FFF76BFA8721FF20FFF767FA0821DB
:101C40001420FFF763FA00211520FFF75FFA0F2138
:101C50001820FFF75BFA08212220FFF757FA00212E
:101C60002320FFF753FA0F212620FFF74FFA10BD6C
:101C700010B50120044908700448FFF77FFF04A055
:101C800000F0C4FC10BD0000380000203C00002023
:101C900031303234783630305F3630487A0D0A00D1
:101CA00010B54024FFF7C6F900B150241DA000F084
:101CB000ADFC8521FF20FFF729FA21465920FFF7C7
:101CC00025FAAA215A20FFF721FAAA215B20FFF763
:101CD0001DFA00215C20FFF719FA50218820FFF738
:101CE00015FA7721A120FFF711FA8621FF20FFF7CF
:101CF0000DFA40210846FFF709FA34214120FFF789
:101D000005FA10214220FFF701FA23214320FFF7B3
:101D1000FDF941214420FFF7F9F902214520FFF7A1
:101D2000F5F910BD0D4C54393231312073657420F2
:101D3000746F204F55545055545F4C564453000017
:101D400010B58221FF20FFF7E1F900216220FFF7A3
:101D5000DDF908213B20FFF7D9F992213E20FFF75A
:101D6000D5F948213F20FFF7D1F931214020FFF775
:101D7000CDF980214320FFF7C9F900214420FFF766
:101D8000C5F900214520FFF7C1F900214920FFF7DF
:101D9000BDF901214A20FFF7B9F900214E20FFF7D4
:101DA000B5F900214F20FFF7B1F900215020FFF7CE
:101DB000ADF900215320FFF7A9F901215420FFF7C5
:101DC000A5F98121FF20FFF7A1F979212020FFF754
:101DD0009DF9FF212020FFF799F910BD10B5822150
:101DE000FF20FFF793F901213620FFF78FF9292112
:101DF0003720FFF78BF906213820FFF787F93021CC
:101E00003920FFF783F98E213A20FFF77FF98121EE
:101E1000FF20FFF77BF9F7212020FFF777F9FF215B
:101E20002020FFF773F98721FF20FFF76FF91421B6
:101E30003720FFF76BF900211320FFF767F98021A6
:101E40001320FFF763F96420FFF706F800241FE072
:101E50008721FF20FFF75AF91F20FFF731F900F023
:101E6000800080B12020FFF72BF900F0800018B12E
:101E70000BA000F0CBFB02E00FA000F0C7FB15A009
:101E800000F0C4FB06E00CA000F0C0FB601CC4B274
:101E90000A2CDDDB00BF16A000F0B8FB10BD00006F
:101EA0000D0A4C543932313120747820706C6C201A
:101EB0006C6F636B000000000D0A4C5439323131F5
:101EC00020747820706C6C20756E6C6F636B656429
:101ED000000000000D0A4C54393231312074782052
:101EE000706C6C2063616C20646F6E650000000094
:101EF0000D0A2073797374656D2073756363657360
:101F00007300000010B540F2066002F00FF84FF4C5
:101F1000004302221021044801F064F84FF400410C
:101F2000014801F00FF810BD0018014010B54FF442
:101F30000041024801F006F810BD00000018014001
:101F400010B54FF40041024800F0FEFF10BD000044
:101F50000018014070B50446642C01DD642402E0E1
:101F6000002C00DA00240D490C7000BF0CA000F01A
:101F70004DFB0A4801780EA000F048FB00BFC4F1F9
:101F80006400134909884843642190FBF1F52A460F
:101F90000221104802F007FA70BD00002000002066
:101FA0003C3C4D595F44454255473E3E20000000B1
:101FB0004C63645F70776D5F6F757420675F6C63EF
:101FC000645F70776D203D2025640D0A00000000DD
:101FD0001E000020002C014010B51021014800F027
:101FE000B3FF10BD000C014010B51021014800F0F6
:101FF000A9FF10BD000C014010B540F2036001F0D4
:1020000095FF102302221946034800F0EBFF102130
:10201000014800F097FF10BD000C014000BFFEE733
:1020200010B540F2056001F081FF4023022210212B
:10203000034800F0D7FF4021014800F083FF10BDA6
:102040000014014010B5044600BF09A000F0DEFAFC
:1020500021460BA000F0DAFA00BF24B1402112485B
:1020600000F072FF03E040210F4800F06BFF10BD4D
:102070003C3C4D595F44454255473E3E20000000E0
:102080004D696343746C5F436F6E74726F6C5F4F26
:1020900075744869676820737461747573203D2096
:1020A00025640D0A00000000001401407047000084
:1020B00010B540F2046001F039FF0F230222102115
:1020C000054800F08FFF0421034800F03BFF0B217F
:1020D000014800F039FF10BD0010014010B5044662
:1020E000002C08DD052C06DA601E012202FA00F140
:1020F000014800F029FF10BD00100140704710B5E5
:10210000044624B14FF0804002F09AF903E04FF00A
:10211000804002F090F910BD0246907810B94FF05F
:10212000FF3070471378D01CC05C08701378581CBF
:10213000C31700EB93639B11A0EB8313137090788C
:10214000401E90700020ECE70246907840280BD1AA
:102150001378581CC31700EB93639B11A0EB8313F8
:1021600013709078401E90705378D01CC1545378EF
:10217000581CC31700EB93639B11A0EB83135370A0
:102180009078401C90700020704701468878704716
:1021900010B50446012C04D1C102084800F078FFB4
:1021A00010BD022C04D12102044800F071FFF7E7B2
:1021B0008021024800F06CFFF2E70000000C0140B3
:1021C0007047000010B50446012C06D1C30202225C
:1021D00048210A4800F006FF0EE0022C06D1230237
:1021E00002224821054800F0FDFE05E0802302227E
:1021F0004821024800F0F6FE10BD0000000C01402E
:1022000010B50446012C06D1C302022210210A484F
:1022100000F0E8FE0EE0022C06D12302022210217B
:10222000054800F0DFFE05E080230222102102486D
:1022300000F0D8FE10BD0000000C014010B500F009
:102240005BF810BD10B51448006840F00100124959
:10225000086008464068114908400F494860084630
:1022600000680F4908400C4908600846006820F4DF
:1022700080200860084640680A49084006494860CE
:102280000846006806490840034908604FF41F00EB
:10229000886001F049FF10BD001002400C00FFE80B
:1022A000FFFFF6FEFFFF00F710B5124800684FF47D
:1022B0007A71B0FBF1F4601EB0F1807F01D3012090
:1022C0000FE0601E4FF0E02148610F214FF0FF301A
:1022D00000F0ACF900204FF0E02188610720086190
:1022E000002008B100BFFEE70021481E00F09EF963
:1022F00010BD00007C00002000B52A480068401C8A
:1023000028490860FEF7DEFD264800681421B0FB6E
:10231000F1F201FB1200022805D12348008840F0A9
:102320000200214908801F4800686421B0FBF1F2D7
:1023300001FB1200172805D11B48008840F004005B
:1023400019490880174800684FF47A71B0FBF1F220
:1023500001FB12000A2805D11348008840F4004010
:10236000114908800F4800684FF47A71B0FBF1F210
:1023700001FB1200E92805D10B48008840F0080055
:1023800009490880074800683221B0FBF1F201FBDF
:102390001200072805D10448008840F020000249B7
:1023A000088000BD0C000020040000207FB5054619
:1023B0000C464FF4E06001F0B9FD684602F0D6F833
:1023C0000295ADF8004069464FF0804002F03EF8BB
:1023D000002207211C2001F093FC0121880702F054
:1023E000A5F87FBD10B50121880702F0A7F8D8B184
:1023F00010480078401C0F490870084600781428DF
:102400000FDC0D4800780978884203D1002001F0E4
:10241000F3F909E007480078012805D101F0ECF94B
:1024200002E00020034908700121880702F082F8C9
:1024300010BD0000710000205800002070B5044657
:1024400000250221094800F0FFFA084800F064FB6B
:102450000546052322460021044800F007FB012120
:10246000024800F05DFB284670BD000000240140DA
:102470002DE9F04107460C460025002608E03846C5
:10248000FFF7DCFF05440520FEF7E6FC701CC6B232
:10249000A642F4DBB5FBF4F080B2BDE8F0810000A9
:1024A00010B50949087800EBD0714910A0EB410143
:1024B00011B1FFF799FD01E0FFF78EFD02480078AA
:1024C000401C0149087010BD1C00002010B50B49CC
:1024D0000B4802F03CF930B1FEF760FC07490848B0
:1024E00002F028F908E00749054802F030F918B170
:1024F0000449034802F01EF910BD00000503050061
:10250000003801400403040010B51749174802F0D1
:102510001EF988B1FEF772FA1349144802F00AF95D
:1025200013480078F0B94FF44171104802F0F5F803
:1025300001200F49087015E00E490C4802F007F918
:1025400080B1FEF745FA0B49084802F0F3F8084855
:10255000007838B14FF44171044802F0D1F80020FE
:102560000349087010BD0000050305000044004049
:102570001B000020040304007CB504460D460E49F0
:1025800003C9CDE90001012C00DD7CBD0120A04084
:102590000A490978084060B100BF5DF824000721AE
:1025A00002F08FF80028F8D05DF82400294602F0E8
:1025B00036F800BFE9E7000044480008100000209A
:1025C0002DE9F04107460D461646002405E0295D39
:1025D0003846FFF7D1FF601CC4B2B442F7DBBDE858
:1025E000F081F0B504460D464FF0FF370CB9384680
:1025F000F0BD681E265CC1B22046FEF7DBF9B04292
:1026000000D100273846F3E700BFFEE70FB4054BC3
:1026100010B503A9044A029800F02CF810BC5DF82C
:1026200014FB0000052D00088000002010B50028D4
:1026300004DB0A07130E054A135406E00A07140EBA
:10264000034A00F00F031B1FD45410BD00E400E048
:1026500018ED00E002E008C8121F08C1002AFAD1F4
:1026600070477047002001E001C1121F002AFBD112
:10267000704700002DE9FF4F8DB09B460F46044682
:10268000002606E025280BD05A460F999047641C77
:10269000761C20780028F5D111B03046BDE8F08FC7
:1026A0000025A8460122984900E0054314F8013F9F
:1026B000203B02FA03F00842F7D120782E2817D1E8
:1026C00014F8010F45F004052A280ED06FF02F02F0
:1026D0002078A0F1300109290AD808EB880102EB23
:1026E000410100EB0108641CF2E757F8048B641CFD
:1026F00020786C280DD004DC4C2812D06A2811D127
:1027000004E074280DD07A280CD10AE045F40015B5
:1027100007E0617845F48015814202D1641C05F51B
:102720008015641C2278692A45D008DC002AB3D0C1
:10273000582A69D0632A10D0642A08D13BE0702A55
:1027400067D0732A13D0752A5CD0782A5CD01046E3
:102750005A460F999047761CD3E017F8040B8DF872
:10276000000000208DF80100E946012003E057F841
:10277000049B4FF0FF3069074FF0000501D40AE0D9
:102780006D1C45450DDA8542FADB19F80510002964
:10279000F6D106E06D1C8542FCDB19F80510002916
:1027A000F8D12E4404E019F8010B5A460F999047CE
:1027B0006D1EF8D2A5E00A200021CDE90801C5F37D
:1027C000025002280DD001CFC117031E71F1000382
:1027D0000DDA4FF0000CD0EB0C006CEB01012D2357
:1027E00008E0FF1D27F00707F7E80201EDE72B05DA
:1027F00004D52B238DF8283001233BE0EB0739D09B
:102800002023F7E70A2000E010200021CDE908018D
:1028100007E01020002145F00405CDE908014FF044
:102820000808C5F3025002280FD001CF00214FF055
:10283000000A2B071FD5702A0DD0DDE908C38CF0E4
:10284000100C5CEA030C0CD015E0FF1D27F0070705
:10285000F7E80201EBE740228DF828204FF0010A4B
:102860000BE050EA010306D030238DF828308DF8B4
:10287000292002239A46582A04D024A20DF12009C7
:102880000B9209E026A2F9E7DDE90823FDF749FEEE
:102890000B9B9B5C09F8013D50EA0102F4D1ADEBC2
:1028A000090020300890680701D44FF0010808990A
:1028B000884502DDA8EB010000E0002080460025ED
:1028C00006E00AA85A46405D0F9990476D1C761C99
:1028D0005545F6DB04E030205A460F999047761CA8
:1028E000B8F10001A8F10108F5DC05E019F8010BC9
:1028F0005A460F999047761C0899481E089000295F
:10290000F4DC641CC5E600000928010030313233D4
:10291000343536373839616263646566000000001B
:102920003031323334353637383941424344454605
:1029300000000000816841F00801816000BF8168EB
:1029400001F008010029FAD1816841F00401816099
:1029500000BF816801F004010029FAD1704730B549
:10296000012902D002291AD10CE0C36A23F47003B2
:10297000C362C36A541E4FF4700505EA045423432E
:10298000C3620DE0836B23F440138363836B541E97
:102990004FF4401505EA04542343836300E000BF6D
:1029A00000BF30BD21B1826842F40062826003E062
:1029B000826822F400628260704730B5436823F475
:1029C000C0534360012904D0022913D0042916D131
:1029D00016E0436823F4604343604368541E4FF499
:1029E000604505EA443423434360436843F400638D
:1029F000436006E0436843F48053436001E000BF56
:102A000000BF00BF30BD816801F0010119B98168C4
:102A100041F0010181607047012902D0022910D1E3
:102A200007E0836823F46023836083681343836033
:102A300008E0836823F4E043836083681343836082
:102A400000E000BF00BF704702688A430260704721
:102A50000549096821F47021034A1160114609688B
:102A6000014311607047000004240140F0B51D4689
:102A700006290CDA436B01EB81071F26BE40B343E6
:102A800001EB810602FA06F63343436322E00C2988
:102A90000EDA036B8E1F06EB86071F26BE40B3437C
:102AA0008E1F06EB860602FA06F63343036311E037
:102AB00010290FDAC36AA1F10C0606EB86071F2660
:102AC000BE40B343A1F10C0606EB860602FA06F6F9
:102AD0003343C3620A2A0CDA046902EB4207072671
:102AE000BE40B44302EB420605FA06F634430461E5
:102AF00011E0122A0FDAC468A2F10A0606EB4607B3
:102B00000726BE40B443A2F10A0606EB460605FAC4
:102B100006F63443C460F0BD0146C86C80B270470D
:102B200001F001021AB1826842F48002826001F071
:102B300002021AB1826842F4001282607047AAB1A0
:102B400001F480731BB1436843F48073436001F464
:102B500080631BB1436843F48063436001F0020368
:102B6000CBB1836843F00203836014E001F4807307
:102B70001BB1436823F48073436001F480631BB18D
:102B8000436823F48063436001F002031BB1836850
:102B900023F00203836070470348006840F400009C
:102BA00001490860704700000824014010B5052065
:102BB000034908704FF4805000F07CF810BD00000D
:102BC0005400002010B505A0FFF720FD0A4800784A
:102BD00010B1012000F0FEFB10BD00006578696EA9
:102BE00074345F68616E646C65207265736574200F
:102BF000636F72650D0A00007400002010B52C4B45
:102C00001B6883432A4C2360231D1B688343241DB8
:102C10002360231D1B688343241D2360231D1B6821
:102C20008343241D236011B101290ED105E0204BFF
:102C30001B6803431E4C236008E01D4B1B1D1B68D3
:102C400003431B4C241D236000E000BF00BF22B1E2
:102C5000012A0FD0022A27D119E0154B08331B682F
:102C60000343134C08342360231D1B688343241D36
:102C700023601AE00E4B08331B6883430C4C083466
:102C80002360231D1B680343241D23600DE0084BB4
:102C900008331B680343064C08342360231D1B685C
:102CA0000343241D236000E000BF00BF10BD0000EF
:102CB00000040140024909688143014A11607047DC
:102CC00000040140024909680143014A116070474C
:102CD00000040140014908607047000014040140ED
:102CE00001460748006800EA0102054814380068F8
:102CF00000EA010312B10BB1012070470020FCE78C
:102D00001404014070B504460D46E1B20020FFF7FF
:102D100033FC204670BD000030B502460B46164C11
:102D2000002145F25550154D286000BF1348C0687A
:102D300000F00101601E041E01D00029F6D109B186
:102D4000002030BD0D4843600B4C00BF0B48C068ED
:102D500000F00201601E041E01D00029F6D109B165
:102D60000020EEE7C2F30B00044DA8604AF6AA204B
:102D700028600120E5E70000FFFF0F000030004061
:102D80004CF6CC400149086070470000003000401C
:102D900045F255500149086070470000003000407E
:102DA00070B50446394D012C00D1394D0120A040A9
:102DB00038490978084000B170BD374931F814002E
:102DC00001F0B4F8354931F8140001F0AFF8344996
:102DD00051F82430334951F824000222182100F020
:102DE00001F9314951F824302E4951F824000222CA
:102DF000042100F0F7F8284601F016FC4FF4E13109
:102E0000284601F0BFFB0021284601F0DCFC002130
:102E1000284601F0C8FC0021284601F0B4FC00213E
:102E2000284601F065FC0021284601F059FC0421E8
:102E3000284601F0B0FC0821284601F0BCFC2846D9
:102E400001F03AFC40F20531284601F066FC012C05
:102E500006D14FF44171284601F05FFCFDF7C6FD35
:102E6000124B1B5D03F00302104B1B5D9910104BBE
:102E700013F8240000F044FF0120A0400549097820
:102E800008430449087000BF96E70000003801407D
:102E90000044004010000020344800081848000892
:102EA0001C4800082C480008244800084048000836
:102EB000384800080148007870470000740000207E
:102EC00010B500BF06A0FFF7A1FB0948B0F900103C
:102ED00008A0FFF79BFB00BF0548B0F9000010BD3C
:102EE0003C3C4D595F44454255473E3E2000000062
:102EF000720000206765745F696E7465726E616C44
:102F00005F74656D702020675F696E745F74656DB6
:102F100070203D2025640D0A0000000070B50646B3
:102F2000322E01DDFF2070BD0548324630C82046F4
:102F30002946FDF703F901210840C0B2F3E700007C
:102F400060000020416170470161704710B50022A8
:102F50008B071C0F0F2303FA04F204290EDA204B0F
:102F60009B6893431E4CA36023469B688C07240FE9
:102F700000FA04F423431A4CA3602FE008290EDA68
:102F8000174BDB689343164CE3602346DB688C07E2
:102F9000240F00FA04F42343114CE3601EE00C29D3
:102FA0000EDA0F4B1B6993430D4C236123461B69BB
:102FB0008C07240F00FA04F42343094C23610DE02D
:102FC000074B5B699343064C636123465B698C073F
:102FD000240F00FA04F42343014C636110BD000088
:102FE00000000140F0B5044616460025002201F01D
:102FF0000F0501F0100707B1354300201EE001273F
:1030000087401F40C7B122684FEA800C0F2707FA9C
:103010000CF7BA43870005FA07F73A43282904D189
:10302000012787401F40676105E0482903D1012738
:1030300087401F4027612260471CB8B20828DED3B2
:10304000082022E0012787401F40E7B16268A0F115
:1030500008074FEA870C0F2707FA0CF7BA43A0F1CD
:103060000807BF0005FA07F73A43282904D10127CA
:1030700087401F40676105E0482903D10127874049
:103080001F4027616260471CB8B21028DAD3F0BD38
:1030900002469068084008B1012070470020FCE714
:1030A0000246D068084008B1012070470020FCE7C4
:1030B0000146C86880B27047F0B50A460023002474
:1030C0000021002500F00046B6F1004F02D11D4E50
:1030D000F16901E01B4E7168C0F3034583B200F44F
:1030E0004016B6F5401F08D121F07061154E766884
:1030F00026F07066134F7E6012E000F48016B6F57D
:10310000801F06D1032606FA05F4A14341F0706141
:1031100006E0460D360103FA06F6B14341F0706150
:1031200022B1460D360103FA06F6314300F000469F
:10313000B6F1004F02D1034EF16101E0014E716022
:10314000F0BD000000000140C1607047002003494D
:103150000870DC20024908807047000074000020DD
:103160007800002010B50120074908700748008842
:103170000749088000BF07A0FFF748FA09A0FFF73A
:1031800045FA00BF10BD000074000020760000204A
:10319000780000203C3C4D595F44454255473E3E37
:1031A00020000000686172645F7774645F656E611F
:1031B000626C650D0A00000010B5064800880649DB
:1031C000088000BF05A0FFF721FA08A0FFF71EFA4C
:1031D00000BF10BD76000020780000203C3C4D5917
:1031E0005F44454255473E3E2000000068617264DE
:1031F0005F7774645F666565640D0A0010B5202111
:103200000648FFF74DFF20B120210448FFF79AFE42
:1032100003E020210148FFF797FE10BD00080140A0
:1032200010B527480088401C2549088008460088BA
:103230000A2803DD00200880FFF7E0FF214800781E
:1032400040B320480078032807D140211E48FFF7EB
:1032500079FE02201B49087010BD1A480078022828
:1032600007D140211848FFF76FFE0120154908706B
:10327000F2E714480078012804D1002011490870B1
:1032800000F0E6F80F48007820B10E480078401EA4
:103290000C4908700D48007880B10D48008868B16D
:1032A0000B480088401E0A4908800846008828B953
:1032B00008A0FFF7ABF9012000F08CF800BFCBE7C6
:1032C0007A000020750000200008014074000020F2
:1032D00078000020686172645F7774645F6665657A
:1032E000645F7461736B2074696D656F75740D0A2A
:1032F0000000000010B500BF06A0FFF787F90948DD
:10330000018809A0FFF782F900BF06480088C0B213
:1033100010BD00003C3C4D595F44454255473E3E80
:103320002000000076000020686172645F7774649A
:103330005F6765745F74696D656F75742074696D1E
:10334000656F7574203D202564282A3130306D73F7
:10335000290D0A0010B540F2026000F0E7FD80215F
:103360001B48FFF7EFFD40211948FFF7EDFD202333
:10337000022210211648FFF735FE402302221021B9
:103380001348FFF72FFE8023022210211048FFF779
:1033900029FE1023022248210D48FFF723FE4FF497
:1033A000C06000F0C3FD04210020FFF7CFFD012223
:1033B00000211020FFF722FC1020FFF783FC1020D3
:1033C000FFF788FC022201210A2000F099FC10BDC1
:1033D0000008014010B5044604210448FFF7B2FD7F
:1033E000FFF7B4FE03200249087010BD0010014031
:1033F0007500002010B5044600BF05A0FFF706F9D0
:10340000214607A0FFF702F900BF1048048010BD55
:103410003C3C4D595F44454255473E3E200000002C
:10342000686172645F7774645F7365745F74696DFB
:10343000656F75742074696D656F7574203D202506
:1034400064282A3130306D73290D0A00760000207F
:103450000446FFF79DFC2CB9012140F6FF70FFF7F1
:103460005BFC04E0042140F6FF70FFF755FCFFF71A
:1034700087FC00BFFEE710B504462146282000F077
:1034800013F810BD10B504462CB14FF480710548F7
:10349000FFF758FD04E04FF480710248FFF754FD38
:1034A00010BD00000018014070B504460D46282CE0
:1034B00000DD70BD1248016812A0FFF7A7F8202CAC
:1034C00007DA0F4801680120A04081430C480160E1
:1034D0000BE0402C09DA00BF09484068A4F1200144
:1034E00001228A409043064948600548016812A0BD
:1034F000FFF78CF82946204600F03AF800BFD8E7DD
:10350000680000206B65795F6C696768745F6C6543
:1035100064735F636F6E74726F6C20675F6C656459
:10352000735F666C6173685F636F6E74726F6C203B
:103530003D202523780D0A00326B65795F6C696741
:1035400068745F6C6564735F636F6E74726F6C2018
:10355000675F6C6564735F666C6173685F636F6EF1
:1035600074726F6C203D202523780D0A0000000046
:1035700070B504460D46282C03DC204600F082F886
:1035800000E070BD0120FFF77DFFBDB14FF4804129
:103590001948FFF7D9FC282C05D14FF0FF31174A05
:1035A0001160516020E00120A040C117134AD2E908
:1035B000003218431143114A03C215E04FF4804111
:1035C0000D48FFF7BFFC282C04D100210B4A1160E5
:1035D000516009E00120A040C043C117074B0CCB4C
:1035E00010401940054A03C20120FDF735FC0020B8
:1035F000FFF748FF00BFC4E700140140600000204F
:1036000070B540F2056000F091FC4FF49043022247
:1036100010211848FFF7E6FC4FF490411548FFF7DA
:1036200091FC40F2066000F081FC7C2423460222DB
:1036300010211148FFF7D6FC21460F48FFF782FC06
:103640004FF44073022210210B48FFF7CBFC4FF4DC
:1036500040710948FFF778FC084800680849B0FB4A
:10366000F1F0401E85B2294640F2E730FEF79EFE9B
:1036700070BD000000140140001801407C000020D3
:1036800040420F0070B504460E48FFF711FD054695
:1036900025F07C0504F03E0045EA4005294609482E
:1036A000FFF752FD04F0010028B14FF40061064815
:1036B000FFF74AFC04E04FF400610348FFF742FCC7
:1036C00070BD0000001801400014014030B587B003
:1036D000044640F2036000F029FC4FF4004302224C
:1036E00018212C48FFF77EFC40F20B6000F01EFC16
:1036F000642C00DD64242848047003A800F036FF21
:1037000026480088401E0590254800682549B0FBE2
:10371000F1F0401E80B2ADF80C0003A9224800F081
:1037200095FE684600F07FFE0420ADF802006A4670
:1037300002211D4800F014FD702202211A4800F0F9
:1037400005FEC4F16400154909884843642190FBD3
:10375000F1F52A460221144800F025FE002202213C
:10376000114800F033FE01210F4800F0F3FE0E482F
:1037700000F0F0FC4FF48043022210210548FFF7CF
:1037800031FC4FF480410348FFF7DCFBFDF7A6FB5B
:1037900007B030BD000C0140200000201E000020BA
:1037A0007C00002040420F00002C014010B54FF477
:1037B00080710648FFF7C6FB6420FDF74DFB4FF410
:1037C00080710248FFF7C0FB10BD000000140140EB
:1037D00010B540F2056000F0A9FB4FF4807302229F
:1037E00010210448FFF7FEFB4FF480710148FFF7FA
:1037F000ABFB10BD0014014010B504462CB14FF4D2
:1038000000710548FFF7A0FB04E04FF40071024887
:10381000FFF798FB10BD00000018014010B53048BC
:10382000006818B92E48406800B910BD2D480078CE
:10383000401C2C49087008460078012821D100243A
:103840001CE0202C0ADA264800680121A14008402B
:1038500090B101212046FFF78BFE0DE0402C0BDAE2
:103860001F484068A4F1200101228A40104018B18D
:1038700001212046FFF77CFE601CC4B2282CE0DB4F
:103880002CE018480078062821D100241CE0202CC8
:103890000ADA134800680121A140084090B10021D4
:1038A0002046FFF765FE0DE0402C0BDA0C4840681F
:1038B000A4F1200101228A40104018B100212046C5
:1038C000FFF756FE601CC4B2282CE0DB06E005487A
:1038D00000780A2802DD00200249087000BFA4E732
:1038E000680000207000002010B50446214613A097
:1038F000FEF78CFE282C20DC214610A0FEF786FE69
:10390000202C07DA174801680120A0400143154820
:1039100001600BE0402C09DA00BF12484068A4F1B6
:10392000200101228A4010430E494860282C04D10E
:103930004FF0FF300B490860486010BD6C69676844
:10394000745F6C6564735F6164645F666C61736807
:103950002077686963686C6564203D2025640D0AE2
:10396000000000006800002010B58221FF20FDF754
:10397000CDFB38213B20FDF7C9FB10BD10B58121DF
:10398000FF20FDF7C3FBFB210D20FDF7BFFB0A2045
:10399000FDF762FAFF210D20FDF7B8FB10BD000016
:1039A00090B0402217496846FCF7D8FBFCF7C6FFE9
:1039B0001548016815A0FEF729FE16A0FEF726FEA1
:1039C0001EE0002415E00120A0401A4909880840A3
:1039D00068B10120A040174909888143154801803A
:1039E0005DF8240018B15DF82400804707E0601CF2
:1039F000C4B2102C03DA0F4800880028E3D100BFBE
:103A0000DFE70000D84700080000002025730D0AFA
:103A100000000000426F617264496E697420646F37
:103A20006E652120323032322D30372D30310D0A83
:103A3000000000000400002008B51EA000680090EF
:103A4000022000F015F96A460021022000F02DF94D
:103A500000231A461946022000F038F940F20360AC
:103A600000F064FA4FF4C06000F060FA4FF4805345
:103A7000022248211048FFF7B5FA0C210120FFF778
:103A800065FA012200211003FFF7B8F84FF48050C7
:103A9000FFF718F94FF48050FFF71CF902220121BB
:103AA000282000F02DF900F00BF890210348FCF7D6
:103AB0006EFB08BD00FF0000000C0140C8000020A4
:103AC00008B56B4601220021022000F0D7F860B94A
:103AD0009DF8000000F03F003F2804D09DF8000052
:103AE00000F03F0008BD3F20FCE702A0FEF78EFD7E
:103AF000FF20F7E74552524F523A204B45595F524B
:103B00004F575F5343414E206E6361393535355F02
:103B1000726561645F696E706F72740D0A000000F7
:103B20002DE9F0410027FFF7CBFF07463F2F55DA7D
:103B3000002550E03D48435D00221146022000F080
:103B4000C5F820B129463AA0FEF760FD41E0FFF735
:103B5000B7FF0746002639E0062000FB0560C4B227
:103B600047FA06F000F00100E8B93E4830F81400CA
:103B7000022829DA3B4830F81400401C81B2394849
:103B800020F8141030F8140002281DD10120354906
:103B900048390855611CC8B2012100F0F7F901202D
:103BA0003149087010E02F484838005D60B10020AE
:103BB0002C4948390855611CC8B2002100F0E6F9CB
:103BC0000021284820F81410701CC6B2062EC3DB52
:103BD00000BF681CC5B2062DACDB1EE02248007891
:103BE000D8B1002412E01F484838005D60B10020C1
:103BF0001C4948390855611CC8B2002100F0C6F9BB
:103C00000021184820F81410601CC4B2242CEADBF0
:103C10000020164908701449087000231A461946F6
:103C2000022000F053F80020BDE8F0819E48000813
:103C30004552524F523A204B45595F524F575F53AE
:103C400043414E206E6361393535355F7772697453
:103C5000655F6F7574706F727420693D25640D0A1D
:103C6000000000001001002055000020540000203A
:103C700010B504462046FDF79DFB10BDF8B506467D
:103C80000D4614461F4605F00E0545F040050CB1E3
:103C9000012000E0002004460120E2B23B46294614
:103CA00000903046FDF70EFCF8BDF8B506460C4610
:103CB000154604F00E0444F0400402202B46062270
:103CC000214600903046FDF75BFCF8BD7FB582B021
:103CD00006460C46154604F00E0444F040040DB1AF
:103CE000012000E00020054601200090A81CC2B27F
:103CF00005AB21463046FDF743FC06B070BD000021
:103D00002DE9F04103460D46164600240027A04643
:103D10002448006800F4E060B0F5A06F15D006DC20
:103D2000B0F5407F18D0B0F5806F19D110E0B0F534
:103D3000C06F06D0B0F5E06F12D100274FF0040835
:103D400015E001274FF0030811E00227B8460EE006
:103D500003274FF001080AE004274FF0000806E0AF
:103D60004FF4A06000F022F80227B84600BF00BF61
:103D7000C7F1040005FA00F4C8F104010F20C8409F
:103D80003040044324010848C45403F01F010120BB
:103D900088405911890001F1E021C1F80001BDE816
:103DA000F08100000CED00E000E400E00249014376
:103DB000024A1160704700000000FA050CED00E0B7
:103DC0000F4A51680F4A1140082814D2DFE800F06A
:103DD00004050607130A130B00BF00BF00BF41EA2A
:103DE000803109E000BF20F004004FF0805242EA29
:103DF0008032114300E000BF00BF014A51607047AC
:103E000000100240FF3FFFEF2DE9F04F8BB0074657
:103E1000002009903EA090E8004CC068CDE905BEA6
:103E2000CDF810A007900FF2EC0ADAE9000ACDE90C
:103E3000020A0FF2E00ADAE9000ACDE9000A38487E
:103E40004068C0F381000A900A9820B1012804D08C
:103E5000022829D103E0334928E0324926E03048DE
:103E6000406800F48038B8F5803F09D12D4C2C48CB
:103E7000406800F40039B9F5003F02D1641000E059
:103E8000294C27484068C0F383422548406800F029
:103E9000006008B142F010020F2A01D2921C00E02B
:103EA000521C04FB02F101E01E4900BF00BF1C4888
:103EB0004068C0F3031504A8465D21FA06F31848CC
:103EC0004068C0F3022502A8465D23FA06FC1448A8
:103ED0004068C0F3C2251DF8056023FA06F008907B
:103EE00037B1012F06D0022F06D0032F0AD106E0EA
:103EF000099108E0099306E0CDF824C003E0089892
:103F0000099000E000BF00BF09980BB0BDE8F08F3A
:103F10000000000000000000010203040607080979
:103F20000010024000127A0000093D00064A02EB30
:103F30009011096800F01F0301229A401143024BBF
:103F400003EB90121160704700100240064A02EB2A
:103F50009011096800F01F0301229A409143024B1F
:103F600003EB90121160704700100240064A02EB0A
:103F70009011096800F01F0301229A401143024B7F
:103F800003EB901211607047001002407CB50546AB
:103F90000C461148007800F0020018B90FA0FEF797
:103FA00035FB7CBDA5208DF800008DF801508DF803
:103FB00002409DF800009DF8011008449DF8021091
:103FC0000844C0B28DF80300042269460120FEF7C0
:103FD000F7FA00BFE5E70000100000206572726F7D
:103FE000723A20544F4350555F434F4D206E6F74CB
:103FF00020696E69740A000010B50446642C00DD67
:104000006424052094FBF0F00F490870642C06D15D
:104010000020FEF774F80120FFF7EEFB0AE034B948
:104020000020FEF76CF80020FFF7E6FB02E001201D
:10403000FEF765F800BF05A0FEF7E8FA214607A0E5
:10404000FEF7E4FA00BF10BD580000203C3C4D597B
:104050005F44454255473E3E200000007365745F53
:104060004C65645F50776D2020675F6C65645F709E
:10407000776D203D2025640D0A00000000200021FE
:10408000264A126842F00102244B1A6000BF401C0D
:10409000224A126802F0020111B9B0F5A06FF6D100
:1040A0001E4A126802F002020AB900BFFEE71B4A6C
:1040B00052681A4B5A601A4652685A601A46526839
:1040C00042F480625A601A465268154B1A40134BEC
:1040D0005A601A465268134B1A43104B5A601A46DC
:1040E000126842F080721A6000BF0C4A126802F037
:1040F0000072002AF9D0094A526822F00302074BE5
:104100005A601A46526842F002025A6000BF034ADF
:10411000526802F00802002AF9D0704700100240ED
:10412000FFFFC3F70000280810B5FFF7A7FF10BD79
:1041300010B5074801780078401E054A107029B173
:10414000FFF7EEFC4FF48050FEF7BCFD10BD000001
:1041500054000020016841F08001016070470000B8
:1041600010B531B101293FD002297DD003297CD17E
:10417000BFE0036A23F001030362836923F00303B2
:104180008361036A148823430362036A23F00203F2
:104190000362036A9488234303626A4B984202D005
:1041A000694B98421FD1036A23F004030362036A38
:1041B000548823430362036A23F008030362036AFB
:1041C000D48823430362436823F4807343604368C5
:1041D000148923434360436823F4007343604368B6
:1041E000548923434360ABE0036A23F01003036266
:1041F000836923F440738361036A148843EA0413D8
:104200000362036A23F020030362036A948843EA8B
:10421000041303624B4B984202D04B4B984226D179
:10422000036A23F040030362036A548843EA0413D9
:104230000362036A23F080030362036AD48843EABB
:1042400004130362436823F4806343604368148962
:1042500043EA84034360436823F400634360436894
:10426000548943EA840301E002E068E0436067E0C8
:10427000036A23F480730362C36923F00303C361F9
:10428000036A148843EA04230362036A23F4007375
:104290000362036A948843EA04230362294B984229
:1042A00002D0294B984223D1036A23F4806303622E
:1042B000036A548843EA04230362036A23F4006315
:1042C0000362036AD48843EA04230362436823F445
:1042D000805343604368148943EA0413436043688E
:1042E00023F4005343604368548943EA0413436052
:1042F00026E0036A23F480530362C36923F4407306
:10430000C361036A148843EA04330362036A23F433
:1043100000530362036A948843EA04330362094B3F
:10432000984202D0084B984208D1436823F4804356
:1043300043604368148943EA8413436000E000BF8C
:1043400000BF10BD002C01400034014031B10129F3
:104350000CD0022913D0032922D118E0836923F05D
:10436000700383618369134383611AE0836923F4D3
:10437000E0438361836943EA0223836111E0C369F7
:1043800023F07003C361C3691343C36109E0C369C8
:1043900023F4E043C361C36943EA0223C36100E03D
:1043A00000BF00BF704731B1012906D0022906D0F5
:1043B000032908D105E0426306E0826304E0C2639A
:1043C00002E0026400E000BF00BF704731B1012984
:1043D0000CD0022913D0032922D118E0836923F0DD
:1043E000080383618369134383611AE0836923F4BB
:1043F00000638361836943EA0223836111E0C36937
:1044000023F00803C361C3691343C36109E0C369AF
:1044100023F40063C361C36943EA0223C36100E07C
:1044200000BF00BF70470021018041808180C180B2
:10443000018141817047016821F0010101607047ED
:10444000016841F001010160704700000A88826242
:10445000294A904220D0B0F1804F1DD0274A904287
:104460001AD0274A904217D0264A904214D0264AA2
:10447000904211D0254A90420ED0254A90420BD04E
:10448000244A904208D0244A904205D0234A9042C0
:1044900002D0234A90420FD1026822F070020260DB
:1044A00002688B7803F060031A43026002680B799C
:1044B00003F010031A4302608A68C262194A9042EC
:1044C0000CD0194A904209D0026822F4407202606E
:1044D00002688B8903F440731A430260064A9042D3
:1044E00002D0094A904201D18A7B0263426942F0BC
:1044F0000102426170470000002C014000040040AE
:1045000000080040000C004000340140004C014015
:10451000005001400054014000180040001C0040C1
:10452000002000400010004000140040C2680A4310
:10453000C260704702698A43026170470246D068D0
:1045400000EA01031069084010B10BB10120704767
:104550000020FCE7012904D1426C42F4004242648D
:1045600003E0426C22F40042426470470021018063
:10457000418081804FF6FF718160002181818173CC
:10458000704700002DE9F04704460D460027B84665
:10459000B94600261D49601A8C421CD006DC1C4816
:1045A000204470B1B0F5806F1FD10FE0B0F5806F7F
:1045B00016D0B0F56C4F18D10320FFF725FC074645
:1045C00014E00220FFF720FC07460FE00220FFF76F
:1045D0001BFC07460AE00220FFF716FC074605E031
:1045E0000220FFF711FC074600E000BF00BF07EB09
:1045F0005500B0FBF5F64FF6F07006EA000806F03D
:104600000F0948EA0900A060BDE8F087004C0040AF
:1046100000BCFFBF01464868C0F308007047C1F303
:10462000080242607047000010B504462049601A35
:104630008C4228D006DC1F48204490B1B0F5806F32
:1046400033D117E0B0F5806F26D0B0F56C4F2CD188
:1046500040F20E30FFF78AFC40F20E30FFF776FC96
:1046600024E040F21140FFF781FC40F21140FFF7D7
:104670006DFC1BE040F21240FFF778FC40F2124064
:10468000FFF764FC12E040F21340FFF76FFC40F2CA
:104690001340FFF75BFC09E040F21440FFF766FCB3
:1046A00040F21440FFF752FC00E000BF00BF10BD15
:1046B000004C004000BCFFBFC16841F40051C16024
:1046C000704710B5024602EB9110006801F01F041C
:1046D0000123A340184008B1012010BD0020FCE7D1
:1046E0000A460021416921F400711143416170477C
:1046F0000A460021416921F48071114341617047EC
:1047000010B5C1F38912825801F01F040123A340A0
:104710009A43C1F38913C25010BD10B5C1F3891279
:10472000825801F01F040123A3401A43C1F38913E7
:10473000C25010BD10B500EB91521268C1F3044491
:104740000123A3409A4300EB91531A6010BD70B54A
:10475000024600230024C1F38910105801F01F06FF
:104760000125B54000EA050302EB91500068C1F352
:1047700004460125B54000EA050414B10BB101203F
:1047800070BD0020FCE7C26822F4C062C260C2684B
:104790000A43C26070470A460021C16821F0040143
:1047A0001143C1607047026922F4405202610269FC
:1047B0000A43026170470A460021C16821F00801DE
:1047C0001143C1607047C26822F48052C260C2685F
:1047D0000A43C26070470000000000003141000839
:1047E00021320008C1170008391800081D380008D8
:1047F00000000000000000000000000000000000B9
:1048000000000000000000000000000000000000A8
:1048100000000000A12400080E061107000200009D
:10482000040000000004000008000000000801402F
:1048300000080140020602062500000026000000D4
:10484000050500000038014000440040416E7377C8
:1048500065724370755F646174610000A5000000BB
:10486000000000004969634170705F526561645FD8
:10487000427974655F437572004969634170705F86
:1048800057726974655F4279746573004969634161
:1048900070705F526561645F427974657300FEFDFC
:1048A000FBF7EFDF01070D13191F02080E141A2082
:1048B00003090F151B21040A10161C22050B1117E2
:1048C0001D23060C12181E244275696C6474696DF0
:1048D00065203A4F63742031382032303232203133
:1048E000343A32353A3131004552524F523A207300
:1048F000656E64206465765F616464722049494333
:104900005F576169745F41636B28696E64657829DC
:10491000213D2030206465765F61646472203D2013
:104920003078257820696E646578203D2025640DF7
:104930000A00000054490008000000208400000024
:1049400054260008D849000884000020D420000024
:1049500064260008C84800080000000000000000AD
:104960000000000000000000000000000004000043
:104970000000A00F64000000000000000000000024
:10498000000000000000000000000000005A0000CD
:1049900080002000800000042005100004001000AA
:1049A00058027C02A0DC000000000000640000004F
:1049B00000000000000000000000000000000000F7
:1049C00000000000000000000000DC00000000000B
:0849D00000F36F060000000077
:0400000508000105E9
:00000001FF
