:020000040800F2
:10000000B82000201901000819240008491100082F
:10001000892300081D0A00084D2800080000000080
:10002000000000000000000000000000152500088E
:10003000790E0008000000006924000891250008DE
:1000400033010008330100083301000833010008C0
:1000500033010008330100083301000833010008B0
:1000600033010008330100088F0F00083301000836
:100070003301000833010008330100083301000890
:100080003301000833010008330100083301000880
:100090003301000833010008330100083301000870
:1000A0003301000833010008330100083301000860
:1000B0003301000833010008330100083301000850
:1000C0003301000833010008330100083301000840
:1000D00033010008112700084D27000833010008EC
:1000E000750F00083301000833010008000000000C
:1000F0000000000000000000000000000000000000
:1001000033010008DFF80CD000F01EFB0048004768
:1001100055380008B82000200648804706480047A8
:10012000FEE7FEE7FEE7FEE7FEE7FEE7FEE7FEE7A7
:10013000FEE7FEE7992500080501000840EA0103F3
:100140009B0703D009E008C9121F08C0042AFAD28D
:1001500003E011F8013B00F8013B521EF9D2704751
:10016000D2B201E000F8012B491EFBD270470022F9
:10017000F6E710B513460A4604461946FFF7F0FFA6
:10018000204610BD80EA010210B502F00043400095
:1001900022D04A001FD0010E01EB1261C0F35600BD
:1001A000C2F3560240F4000042F40002A0FB022019
:1001B00000047F39140400D0401C50EA124001D4DE
:1001C0004000491EC2B20C0604EBD010401C40088F
:1001D000802A02D003E0002010BD20F00100002999
:1001E00000DA0020184310BD2DE9FE4F804681EA59
:1001F0000300C00F0C46009021F0004123F00045A1
:10020000B8EB0200A94105D24046214690461C4663
:100210000B46024623F00040104347D0270DC7F39A
:100220000A00C3F30A510290401A019040286BDA89
:10023000C3F3130040F4801B0098924620B10023C2
:10024000D2EB030A63EB0B0B01985946C0F1400255
:10025000504600F0C4F906460D4650465946019AEC
:1002600000F0CCF910EB08006141002487EA11523C
:1002700084EAE7731A4340D0009A62B3019A012AD4
:100280004FEA075215DC001B61EB02014FF0004200
:1002900002EA0752CDE90042001C41F580113246C6
:1002A0002B4600F003FA03B0BDE8F08F404621462C
:1002B000F9E7001B61EB0201001C41F580130018F7
:1002C0005B412018A2F5001747EB030140EAD57007
:1002D000B6196D4111E06D084FEA360645EAC07562
:1002E0004FEA0752001B61EB0201001C41F580112F
:1002F00049084FEA30000019514132462B4603B0FD
:10030000BDE8F04F00F0C3B900980122400000237F
:10031000D0EB020263EBE073009821464FEAE074F1
:10032000B8EB000061EB0401E9E783F000435BE711
:1003300081F0004158E72DE9FE4F81EA030404F003
:10034000004421F0004100944FF0000B23F00043E3
:1003500050EA01045ED052EA03045BD0C3F30A54AE
:10036000C1F30A552C44A4F2F3340194A0FB0254C7
:10037000C1F3130141F48011C3F3130343F4801359
:1003800001FB024400FB034E840A970A44EA8154AD
:1003900047EA8357A4FB076802958D0A05FB07858A
:1003A0004FEA932C04FB0C542705029D4FEA065894
:1003B00047EA1637B5EB08056EEB070C870E920E71
:1003C00047EA811742EA8312A7FB0201B6EB0B0151
:1003D00064EB00042B0D43EA0C335E1844EB1C5015
:1003E000DA465146E7FB0201C5F313044FEA0B332B
:1003F00043EA14534FEA0432019C43EA0603A4F192
:100400000C040294009CCDE900B400F04FF903B055
:10041000BDE8F08F00200146F9E72DE9F04D81EAB3
:10042000030404F0004B21F0004514464FF0000A8D
:1004300023F0004150EA050220D054EA01021DD009
:10044000C5F30A570246C5F31303C1F31300C1F302
:100450000A5640F4801543F48013A7EB0608101BDE
:10046000D64608F2FD3873EB050002D308F1010807
:1004700001E092185B41B8F1000F03DA0020014659
:10048000BDE8F08D00204FF48011064684460EE052
:10049000171B73EB050705D3121B63EB050306431C
:1004A0004CEA010C49084FEA300092185B4150EACF
:1004B0000107EDD152EA030012D082EA040083EA78
:1004C0000501084305D0101BAB4106D201220023D1
:1004D00006E000224FF0004302E06FF001025310EB
:1004E0001AEB06004CEB085110EB0A0041EB0B0134
:1004F000BDE8F04D00F0CBB80EB540F233410291AB
:100500000021CDE900110A460B4600F0CFF803B0F8
:1005100000BD00F0004220F00040C10DC0F3160005
:1005200040F400007F2901DA00207047962903DC9F
:10053000C1F19601C84001E096398840002AF4D004
:100540004042704701F0004330B421F0004150EACE
:10055000010206D00A0DA2F56072C1F31301002A50
:1005600002DC30BC00207047440F44EAC104C100E3
:10057000E01830BC00EBC25000F052B82DE9F05F3B
:100580000546002092469B46884606468146402402
:100590001BE0284641464746224600F0E7F853460E
:1005A0005A46C01A914110D311461846224600F00F
:1005B00016F82D1A67EB01084F462246012000214C
:1005C00000F00DF817EB00094E41201EA4F10104C4
:1005D000DFDC484631462A464346BDE8F09F202AE4
:1005E00004DB203A00FA02F1002070479140C2F18A
:1005F000200320FA03F3194390407047202A06DBBA
:10060000CB17203A41FA02F043EAE07306E041FAE0
:1006100002F3D040C2F120029140084319467047CE
:100620000029A8BF7047401C490008BF20F0010006
:10063000704710B4B0FA80FC00FA0CF050EA0104E4
:1006400004BF10BC704749B1CCF1200421FA04F476
:1006500011FA0CF118BF012121430843A3EB0C014F
:10066000CB1D4FEA00614FEA102042BF002010BCB2
:10067000704700EBC35010440029A4BF10BC704762
:10068000401C490008BF20F0010010BC704710B5A5
:10069000141E73F1000408DA401C41F100019218A5
:1006A0005B411A4301D120F0010010BD2DE9F04D4E
:1006B00092469B4611B1B1FA81F202E0B0FA80F2A3
:1006C00020329046FFF78BFF04460F4640EA0A00AF
:1006D00041EA0B0153465A46084313D0114653EAE8
:1006E000010019D0C8F14002504600F03FF805461D
:1006F0000E46504659464246FFF771FF084305D063
:10070000012004E020463946BDE8F08D0020054375
:1007100046EAE0762C4337430A986305E40AA0EBE7
:1007200008000022FD0A44EA47540A3002D500209E
:100730000146E9E7010510196941DDE9084500199D
:100740006941BDE8F04DA2E7064C074D06E0E068C0
:1007500040F0010394E8070098471034AC42F6D308
:10076000FFF7D4FCDC470008FC470008202A04DB24
:10077000203A21FA02F00021704721FA02F3D0401A
:10078000C2F12002914008431946704710B540F26B
:10079000096003F0F3FA052003F03AFA012211028E
:1007A000174802F0E0FA4FF4E0420221144802F048
:1007B00068FA0021124802F031FA002002F0B6FA7D
:1007C000012202210E4802F006FA0623102200211F
:1007D0000B4802F06EFA01220221094802F032FAB7
:1007E00002F0EEFA064802F024FA012000F046FB7F
:1007F000034802F0DBF90221014802F0A5FA10BD1E
:100800000024014001460248006880B270470000A1
:100810003C2401401CB50446424903C9CDE900010E
:1008200020788DF8010000208DF802002078323801
:1008300011285AD2DFE800F02759090E13591B2D51
:10084000313A4245494E515455006078012102F039
:10085000B9FE5AE06078002102F0B4FE55E06078FD
:1008600010B100F09FFB01E000F04AFB4DE0607822
:1008700020B10121202002F0A5FE03E0002120206C
:1008800002F0A0FE41E0607802F014FC8DF8020056
:100890003BE0607803F0D8FA37E002F0DDFB64213A
:1008A00090FBF1F0C0B28DF802002EE0607810B13C
:1008B00002F034FD01E002F00FFD26E002F058FDE9
:1008C00023E0607802F036FE1FE002F0BFFD8DF8F5
:1008D00002001AE002F01EFE17E001F017F814E023
:1008E00013E0607801F064FD0FE0FF208DF8020056
:1008F00000BF0D4B7D220DA114A001F0C3FF217894
:100900001BA001F0BFFF00BF00BF00BF032168466E
:1009100000F086F88DF8030004226946012001F0FA
:1009200071FF1CBD04470008F44600087372635C45
:10093000756172745F636F6E6563745F6370755F1A
:1009400068616E646C65722E630000003C3C466911
:100950006C653A257320204C696E653A2564202029
:1009600046756E6374696F6E3A25733E3E200000D3
:100970006572726F723A20637075207561727420AF
:1009800073656E6420756E6B6F776E20636D642186
:100990002120636D64203D202523780D0A0000008E
:1009A00010B501F03BFD01F063FC4FF4A06003F0D3
:1009B00025F94FF4C06003F0E1F90121164802F077
:1009C00041FC002002F0B8FA012002F0B5FA01F073
:1009D00015FE01F045FF00F0D1FF00F097FF02F097
:1009E00085FFFFF7D3FE462002F082FE02F05EFD97
:1009F00001F0B8FC02F026FE02F0FCFE01F0C6FC9D
:100A0000012002F0C5FD01F023FF002002F0C0FD2F
:100A1000032001F019FD10BD0002300000BFFEE709
:100A200010B502460B460021002004E0545C04444B
:100A3000E0B24C1CE1B29942F8DB10BD10B5034A9C
:100A40000349044800F0C8F910BD0000150800086B
:100A5000740000201100002010B543210148FFF769
:100A600086FB10BD7400002010B5044803F026FD7D
:100A7000C4B22146024801F010FD10BD0044004000
:100A80007400002070B50446A4F13000072805D298
:100A9000DFE800F00B14283C42485400214629A00E
:100AA00001F0F0FE00F0E0F800BF3048016830A02F
:100AB00001F0E8FE30A001F0E5FE40E037480078A4
:100AC00064280BDA354800780A3040B201F0F8FBB0
:100AD0003248017832A001F0D5FE02E03BA001F0DF
:100AE000D1FE2CE02D4800780A280BDB2B49097831
:100AF0000A3948B201F0E4FB2848017838A001F037
:100B0000C1FE02E041A001F0BDFE18E043A001F0EB
:100B1000B9FE02F0FFFC12E046A001F0B3FE00F0C7
:100B2000F5FE0CE002F092FA08B147A000E047A001
:100B30000546294646A001F0A5FE00E000BF00BF23
:100B400070BD00004552524F523A20436F6D6D61A7
:100B50006E6420556E6B6E6F7720636D64203D2050
:100B6000307825782121210D0A00000000000020A6
:100B700025730D0A00000000417574686F723A4ACF
:100B8000432644615A6869203C76783A32383534D5
:100B900030383133363E0D0A0000000020000020BE
:100BA000696E637265617365203720696E636820C2
:100BB0006C63642050574D2C675F6C63645F707783
:100BC0006D203D202564200D0A000000675F6C63E6
:100BD000645F70776D203D203130300D0A000000D9
:100BE0006465637265617365203720696E63682090
:100BF0006C63642050574D2C675F6C63645F707743
:100C00006D203D202564200D0A000000675F6C63A5
:100C1000645F70776D203D20300D0A00726573654A
:100C20007420636F726520626F61726421210D0A06
:100C3000000000007265736574204C434420262038
:100C4000393231310D0A00006F6E00006F666600A8
:100C5000576174636820446F6720537461747573BF
:100C6000203D2025730D0A0010B50EA001F00AFEEC
:100C700010A001F007FE17A001F004FE23A001F070
:100C800001FE30A001F0FEFD34A001F0FBFD39A013
:100C900001F0F8FD40A001F0F5FD44A001F0F2FDE7
:100CA00010BD00000D0A446562756720636D643AEB
:100CB0000D0A0000302E207072696E742050726F21
:100CC0006772616D206275696C642074696D650D71
:100CD0000A000000312E203720696E6368206C63A3
:100CE000642050574D20696E6372656163652835D5
:100CF000696E6368206C636420686173206E6F2086
:100D0000656666656374290D0A000000322E20377F
:100D100020696E6368206C63642050574D206465C1
:100D20006372656163652835696E6368206C63640E
:100D300020686173206E6F20656666656374290D97
:100D40000A000000332E20726573657420636F7291
:100D50006520626F61726421210D0A00342E2072B9
:100D600065736574204C4344202620393231310D9F
:100D70000A000000352E207072696E74204861727E
:100D80006420576174636820446F672053746174F2
:100D900075730D0A00000000362E206E6F746869AE
:100DA0006E6720746F20646F0D0A00006F746865B1
:100DB000722E207072696E742068656C700D0A0066
:100DC00010B5044803F07AFBC4B22046FFF75AFE80
:100DD00010BD0000003801402DE9F04704460E46E2
:100DE00017464FF0000A46E0304601F077FB00F06E
:100DF000FF08207A404501DDBDE8F08794F80880BF
:100E0000207AC0F1040000F0FF0A002507E0601915
:100E100000EB0A01304601F028FB681CC5B24545CD
:100E2000F5DB2078A52807D10421204601F0FBFC42
:100E300010B9601CB8471EE0012505E0605DA528DB
:100E400000D103E0681CC5B2042DF7DB00BF042D00
:100E50000FD025724FF0000908E0605D04F809002A
:100E6000681CC5B209F1010000F0FF09042D02DA87
:100E7000F3E704202072B7E77047000003490860D9
:100E800000BF024909680029FBD170470800002013
:100E9000F0B5034600224FF0E0277D69104F3F6810
:100EA000DFF840C0B7FBFCF7FEB203FB06F44FF0DF
:100EB000E027B96910E04FF0E027B86988420BD00D
:100EC000884202D20F1A3A4402E02F1A0F443A44E1
:100ED0000146A24200D300E0EDE700BFF0BD0000F4
:100EE0006C00002040420F000448006820B1034815
:100EF0000068401E0149086070470000080000209B
:100F000010B50B48028802210A4803F0B4F96420A6
:100F1000FFF7B4FF074803F0F6F900F01FF800BF31
:100F200005A001F0AFFC08A001F0ACFC00BF10BDB3
:100F30001E000020002C01403C3C4D595F444542BE
:100F400055473E3E2000000044697361626C655F56
:100F50004C63644C696768740D0A000010B501F0B9
:100F60009BF94FF48041024802F0B2F810BD000036
:100F7000000C014010B54FF4805001F0C1FF28B1C2
:100F80004FF4805001F0B6FF01F024FF10BD10B502
:100F9000102001F0B5FF20B1102001F0ABFF01F0EF
:100FA00023FF10BD10B500F037F86420FFF766FF8F
:100FB0000E49097809B9462101E00C49097848B27F
:100FC00001F07EF96420FFF759FF094803F0A0F90A
:100FD0006420FFF753FF00F01FF800BF05A001F0E9
:100FE00051FC08A001F04EFC00BF10BD2000002005
:100FF000002C01403C3C4D595F44454255473E3E24
:1010000020000000456E61626C655F4C63644C6952
:101010006768740D0A00000010B501F047F94FF43D
:101020008041024802F056F810BD0000000C01405B
:101030002DE9F04F89B01020FFF7E4FB08900898E5
:10104000FFF75AFA80464FF06632194BFFF773F9F3
:1010500006460022174BFFF7E0F9174A174BCDE978
:101060000001FFF765F90022154BCDE90201FFF7FA
:1010700062F94FF03332134BCDE90401FFF7CDF99C
:1010800004460022104BFFF7AFF88246FFF75AFAEA
:1010900006900E490698FFF775F804460690FFF78C
:1010A00038FA00B20790079809B0BDE8F08F000049
:1010B00066660A400000B040E17A14AE47E1F63FB0
:1010C00000408F4033331140000024400000C842EC
:1010D00038B504460020009001226946204600F001
:1010E00007F810B19DF8000038BD0020FCE70000B3
:1010F000F8B504460D4616462B462246064800968D
:101100000178002000F0E4F908B9012000E0002097
:1011100007463846F8BD00003A00002033B581B0DC
:101120000446012002AB22460090064801780020C8
:1011300000F02CFA08B9012000E0002005462846FE
:101140003EBD00003A00002000BFFEE710B5044697
:101150000021204600F0E2FA204601F0FBF90021D0
:10116000204600F007FB0420FFF792FE01212046F5
:1011700000F0D4FA0620FFF78BFE0021204600F095
:10118000CDFA0320FFF784FE10BD000070B50546C0
:1011900040F2036002F0F2FD012D02D14FF44064F1
:1011A00005E0022D02D14FF4407400E0C024234634
:1011B00002221021054801F0DBFF0121284600F042
:1011C000ADFA0121284600F0D5FA70BD000C0140AF
:1011D00010B504460021204600F0A0FA204601F098
:1011E000B9F90121204600F0C5FA0420FFF750FEAE
:1011F0000121204600F092FA0620FFF749FE002167
:10120000204600F08BFA0320FFF742FE10BD2DE9C7
:10121000F04107460D4600240021384600F07EFAD2
:10122000384601F079F90320FFF732FE00261EE070
:101230000021384600F072FA0520FFF729FE01214F
:10124000384600F06BFA6006040E0420FFF720FE1B
:10125000384601F047F908B1601CC4B20420FFF71A
:1012600017FE0021384600F059FA701CC6B2082E4D
:10127000DEDB1DB93846FFF7ABFF02E03846FFF76B
:1012800065FF2046BDE8F08170B506460C4600219A
:10129000304600F043FA304601F05CF900251CE0CE
:1012A0000320FFF7F5FD04F08001304600F062FAFC
:1012B0006006040E0420FFF7EBFD0121304600F02C
:1012C0002DFA0620FFF7E4FD0021304600F026FA53
:1012D0000320FFF7DDFD681CC5B2082DE0DB70BD03
:1012E00010B50446204601F035F90121204600F0F2
:1012F00041FA0121204600F011FA0620FFF7C8FD4F
:101300000021204600F036FA0620FFF7C1FD00213B
:10131000204600F003FA10BD10B504460021204617
:1013200000F0FCF9204601F015F90021204600F0FC
:1013300021FA0620FFF7ACFD0121204600F0EEF96E
:101340000320FFF7A5FD0121204600F013FA062037
:10135000FFF79EFD10BD70B505460024002128460C
:1013600000F0DCF90320FFF793FD0121284600F08F
:1013700001FA0320FFF78CFD284601F0CDF801218A
:10138000284600F0CBF90320FFF782FD0BE0601C3C
:10139000C4B2FA2C04DD2846FFF7BEFF012070BD61
:1013A0000120FFF775FD284601F09CF80028EED1DA
:1013B0000021284600F0B2F90320FFF769FD002064
:1013C000EDE7000010B504460120A0400849097867
:1013D000084000B110BD2046FFF7D8FE0120A04014
:1013E0000349097808430249087000BFF2E700008A
:1013F0001A0000202DE9F0410746884615461E4692
:101400003846FFF76DFF48F001013846FFF73CFF13
:101410003846FFF7A0FF00280ED000BF134B2E2246
:1014200013A117A001F02EFA39461EA001F02AFAE6
:1014300000BF0220BDE8F08100240FE0701EA04232
:1014400005D100213846FFF7E2FE285504E00121CE
:101450003846FFF7DCFE2855601CC4B2B442EDDB11
:101460003846FFF759FF0020E4E700000C4700086A
:101470007372635C6969635F6170702E6300000062
:101480003C3C46696C653A257320204C696E653A90
:101490002564202046756E6374696F6E3A25733E2D
:1014A0003E2000004552524F523A4949435F57612E
:1014B00069745F41636B28696E64657829213D20FA
:1014C0003020696E646578203D2025640D0A000097
:1014D0002DE9F84305460F4690461E46DDF820905C
:1014E00000200346424639460090284600F04EF858
:1014F0000446FF2C07D14B46324639462846FFF7B3
:1015000079FFBDE8F88300BF064B9E2206A10AA022
:1015100001F0B8F92A46214610A001F0B3F900BF46
:101520002046EEE7344700087372635C6969635FC5
:101530006170702E630000003C3C46696C653A2582
:101540007320204C696E653A2564202046756E63D1
:1015500074696F6E3A25733E3E2000004552524F2B
:10156000523A204969634170705F57726974655FD0
:10157000427974657320726574203D20256420696A
:101580006E646578203D2025640D0A002DE9F04742
:1015900005460E4617469846DDF820902846FFF788
:1015A0009FFE06F0FE012846FFF76EFE2846FFF775
:1015B000D2FE90B100BF2C4B5D222CA12FA001F0D8
:1015C00061F92A463146364801F05CF900BF2846E9
:1015D000FFF7A2FE0220BDE8F08739462846FFF754
:1015E00053FE2846FFF7B7FE002810D000BF1E4B61
:1015F00067221EA121A001F045F9294629A001F08A
:1016000041F900BF2846FFF787FE0320E3E7B9F161
:10161000000F01D1FF20DEE700241DE018F80410C0
:101620002846FFF731FE2846FFF795FE002811D027
:1016300000BF0D4B7A220DA110A001F023F92A461C
:10164000214627A001F01EF900BF2846FFF764FEDF
:101650000420C0E7601CC4B24C45DFDB2846FFF71E
:101660005BFE0020B7E70000214700087372635C4F
:101670006969635F6170702E630000003C3C4669DD
:101680006C653A257320204C696E653A25642020EC
:1016900046756E6374696F6E3A25733E3E20000096
:1016A000904700084552524F523A2073656E6420AD
:1016B000776F72645F61646472204949435F576168
:1016C00069745F41636B28696E64657829213D20E8
:1016D0003020696E646578203D2025640D0A000085
:1016E0004552524F523A2073656E642064617461B2
:1016F000204949435F576169745F41636B28696E94
:1017000064657829213D203020693D256420696E7B
:10171000646578203D2025640D0A000070B50546FB
:101720000C46012D0BD124B18102114801F0D2FCED
:101730001DE04FF480610E4801F0CAFC17E0022D55
:101740000BD124B1E9010A4801F0C4FC0FE04FF4C9
:101750008071074801F0BCFC09E024B14021044835
:1017600001F0B8FC03E04021014801F0B1FC70BD7C
:10177000000C014070B505460C46012D0BD124B17B
:10178000C102114801F0A6FC1DE04FF400610E48B3
:1017900001F09EFC17E0022D0BD124B129020A486A
:1017A00001F098FC0FE04FF40071074801F090FC45
:1017B00009E024B18021044801F08CFC03E0802181
:1017C000014801F085FC70BD000C014010B5FFF729
:1017D0002FFC034908800221024801F0B5FA10BD30
:1017E000620000200024014010B58121FF20FFF796
:1017F00095FC0020FFF76CFC044621460BA001F08D
:1018000041F80120FFF764FC044621460DA001F0D9
:1018100039F80220FFF75CFC0446214609A001F0DC
:1018200031F80AA001F02EF810BD00000D0A4C544A
:101830003932313120436869702049443A25782C87
:101840000000000025782C20000000000D0A000098
:1018500010B58621FF20FFF761FC01210020FFF772
:101860005DFC4FF49670FFF709FB00240820FFF79A
:101870002FFC00F00F0424020920FFF729FC044488
:1018800024020A20FFF724FC0444214611A000F0A2
:10189000F9FF8621FF20FFF741FC0A210020FFF716
:1018A0003DFC4FF49670FFF7E9FA00240820FFF79B
:1018B0000FFC00F00F0424020920FFF709FC044488
:1018C00024020A20FFF704FC0444214608A000F08B
:1018D000D9FF10BD0D0A6D69706920696E7075744D
:1018E000206279746520636C6F636B3A2025750004
:1018F0000D0A646573736320706978656C20636C8E
:101900006F636B3A2025750A0000000010B501F0E6
:101910005FFF00F08FF900F001F810BD10B511A0C5
:1019200000F0B0FFFFF760FF00F0DEF900F02EF9E5
:1019300000F00EF900F00AFA00F06EF900F034F849
:101940000A20FFF79BFA00F011FB00F0C1FA00F04B
:1019500073FA01F06DFF01F061FFFFF779FF00F00E
:1019600099FB10BD0D0A204C54393231315F6D693D
:10197000706920746F2054544C0D0A0010B500207B
:10198000FFF720FD40F2066002F0F8F902231A4644
:101990001021044801F0ECFB0221024801F098FB01
:1019A00010BD00000018014070B5D021FF20FFF7E6
:1019B000B5FB60210C20FFF7B1FB60211C20FFF775
:1019C000ADFB70212420FFF7A9FB30212D20FFF76C
:1019D000A5FB0A213120FFF7A1FBF0212520FFF70D
:1019E0009DFB30212A20FFF799FB4F212120FFF793
:1019F00095FB00212220FFF791FB01211E20FFF71C
:101A00008DFB80212320FFF789FB02210A20FFF7AD
:101A100085FB02213820FFF781FB04213920FFF7E5
:101A20007DFB08213A20FFF779FB10213B20FFF7CF
:101A300075FB04213F20FFF771FB08214020FFF7D1
:101A40006DFB10214120FFF769FB20214220FFF7A9
:101A500065FBA0212B20FFF761FBD021FF20FFF7C2
:101A60005DFB2620FFF734FB054605F07F05294680
:101A70002620FFF753FB0F212720FFF74FFB812183
:101A8000FF20FFF74BFBBF212020FFF747FBFF2183
:101A90002020FFF743FB0520FFF7F0F96F210B2013
:101AA000FFF73CFBFF210B20FFF738FB4FF448709A
:101AB000FFF7E4F9002415E0C820FFF7DFF9D02193
:101AC000FF20FFF72BFB8720FFF702FB00F0080049
:101AD00018B10DA000F0D6FE06E010A000F0D2FE76
:101AE000601CC4B20A2CE7DB00BFD021FF20FFF747
:101AF00015FB9420FFF7ECFA00F07F0631460EA0AC
:101B000000F0C0FE70BD00000D0A4C543932313176
:101B10002070637220737461626C65000D0A4C540E
:101B2000393231312070637220756E737461626C6A
:101B300065212121210000004C54393231312070BF
:101B400063725F737461626C655F4D3D25780A0056
:101B500010B58621FF20FFF7E1FA85213020FFF73D
:101B6000DDFAD821FF20FFF7D9FA00211620FFF770
:101B7000D5FAD021FF20FFF7D1FA12214320FFF739
:101B8000CDFA05210220FFF7C9FA10BD10B5D0210A
:101B9000FF20FFF7C3FA00210846FFF7BFFA8221B2
:101BA000FF20FFF7BBFA44210220FFF7B7FA3621E6
:101BB0000520FFF7B3FA26210D20FFF7AFFA0C211D
:101BC0001720FFF7ABFA0C211D20FFF7A7FA8121A0
:101BD0000A20FFF7A3FA00210B20FFF79FFA9F21AD
:101BE0000720FFF79BFAFC210820FFF797FA012155
:101BF0000920FFF793FA01211120FFF78FFA8621C0
:101C0000FF20FFF78BFA1B213320FFF787FA1B21F8
:101C10003420FFF783FA10BD10B58221FF20FFF7B3
:101C20007DFA48212D20FFF779FA82213520FFF730
:101C300075FA10BD10B50221064801F049FA64207A
:101C4000FFF71CF90221034801F044FA6420FFF772
:101C500015F910BD0018014010B504466420FFF7C7
:101C60000DF9D021FF20FFF759FA608A01120D20EB
:101C7000FFF754FAA17C0E20FFF750FA208A0112D8
:101C80000F20FFF74BFA217C1020FFF747FA217B4A
:101C90001520FFF743FA608901121720FFF73EFA7B
:101CA000A17A1820FFF73AFA208901121120FFF7D4
:101CB00035FA217A1220FFF731FAE0880112132059
:101CC000FFF72CFAA1791420FFF728FAA178162043
:101CD000FFF724FA208801121920FFF71FFA217854
:101CE0001A20FFF71BFA10BD10B58221FF20FFF765
:101CF00015FA18210120FFF711FA8621FF20FFF7BE
:101D00000DFA61210620FFF709FAA8210720FFF745
:101D100005FA8721FF20FFF701FA08211420FFF7B9
:101D2000FDF900211520FFF7F9F90F211820FFF721
:101D3000F5F908212220FFF7F1F900212320FFF710
:101D4000EDF90F212620FFF7E9F910BD2DE9F0414B
:101D500000274FF4FA70FFF791F8D021FF20FFF72A
:101D6000DDF98320FFF7B4F980468220FFF7B0F950
:101D700008EB002084B2032094FBF0F084B28420AE
:101D8000FFF7A6F900F00F068620FFF7A1F98046BD
:101D90008520FFF79DF908EB002085B29C20FFF716
:101DA00097F9074621460EA000F06CFD294610A0C9
:101DB00000F068FD314612A000F064FD394614A021
:101DC00000F060FD6420FFF759F801201449087005
:101DD0001448FFF741FF14A000F054FDBDE8F08166
:101DE0000D0A68616374203D2025750A0D0000000E
:101DF0000D0A76616374203D2025750A0D000000F0
:101E00000D0A666D74203D2025780A0D0000000043
:101E10000D0A70615F6C706E203D2025780D0A0000
:101E2000380000203C000020313032347836303029
:101E30005F3630487A0D0A0010B51EA000F022FD72
:101E40008521FF20FFF76AF940215920FFF766F945
:101E5000AA215A20FFF762F9AA215B20FFF75EF959
:101E600000215C20FFF75AF950218820FFF756F92E
:101E70007721A120FFF752F98621FF20FFF74EF9C5
:101E800040210846FFF74AF934214120FFF746F97F
:101E900010214220FFF742F923214320FFF73EF9AA
:101EA00041214420FFF73AF902214520FFF736F996
:101EB00010BD00000D4C543932313120736574204F
:101EC000746F204F55545055545F4C564453000086
:101ED00010B58221FF20FFF721F900216220FFF7D2
:101EE0001DF908213B20FFF719F992213E20FFF749
:101EF00015F948213F20FFF711F931214020FFF764
:101F00000DF980214320FFF709F900214420FFF754
:101F100005F900214520FFF701F900214920FFF7CD
:101F2000FDF801214A20FFF7F9F800214E20FFF7C4
:101F3000F5F800214F20FFF7F1F800215020FFF7BE
:101F4000EDF800215320FFF7E9F801215420FFF7B5
:101F5000E5F88121FF20FFF7E1F879212020FFF744
:101F6000DDF8FF212020FFF7D9F810BD10B5822140
:101F7000FF20FFF7D3F801213620FFF7CFF8292102
:101F80003720FFF7CBF806213820FFF7C7F83021BC
:101F90003920FFF7C3F88E213A20FFF7BFF88121DF
:101FA000FF20FFF7BBF8F7212020FFF7B7F8FF214C
:101FB0002020FFF7B3F88721FF20FFF7AFF81421A7
:101FC0003720FFF7ABF800211320FFF7A7F8802197
:101FD0001320FFF7A3F86420FEF750FF00241FE052
:101FE0008721FF20FFF79AF81F20FFF771F800F014
:101FF000800080B12020FFF76BF800F0800018B15E
:102000000BA000F03FFC02E00FA000F03BFC15A08D
:1020100000F038FC06E00CA000F034FC601CC4B2F8
:102020000A2CDDDB00BF16A000F02CFC10BD000068
:102030000D0A4C543932313120747820706C6C2088
:102040006C6F636B000000000D0A4C543932313163
:1020500020747820706C6C20756E6C6F636B656497
:10206000000000000D0A4C543932313120747820C0
:10207000706C6C2063616C20646F6E650000000002
:102080000D0A2073797374656D20737563636573CE
:10209000730000001CB58621FF20FFF73FF8702079
:1020A000FFF716F804467120FFF712F84849088038
:1020B0007220FFF70DF8474908807320FFF708F8F2
:1020C0004449097800EB0120424908807420FEF75A
:1020D000FFFF414908807520FEF7FAFF3F4908805D
:1020E0007620FEF7F5FF3E4908807720FEF7F0FFE7
:1020F0003B49097800EB0120394908807820FEF738
:10210000E7FF384908807920FEF7E2FF3549097872
:1021100000EB0120334908807A20FEF7D9FF3249CD
:1021200008807B20FEF7D4FF2F49097800EB0120BF
:102130002D4908807C20FEF7CBFF2C4908807D20AC
:10214000FEF7C6FF2949097800EB012027490880DE
:102150007E20FEF7BDFF264908807F20FEF7B8FFEE
:102160002349097800EB0120214908808020FEF7EF
:10217000AFFF204908808120FEF7AAFF1D4909789A
:1021800000EB01201B49088021461BA000F07AFBD0
:102190001648008817490988CDE9001010480388BF
:1021A0000C4802880F48018819A000F06BFB0E480C
:1021B00000880F490988CDE90010074803880448C2
:1021C0000288064801881EA000F05CFB1CBD0000D0
:1021D0002A000020280000202E00002036000020C9
:1021E0002C000020340000203200002030000020AD
:1021F00026000020240000200D0A73796E635F70B2
:102200006F6C6172697479203D20257800000000B0
:102210000D0A6866702C2068732C206862702C2070
:10222000686163742C2068746F74616C203D202594
:10223000752025752025752025752025750D0A002A
:102240000D0A7666702C2076732C207662702C2016
:10225000766163742C2076746F74616C203D202548
:10226000752025752025752025752025750D0A00FA
:1022700010B540F2066001F081FD4FF400430222E8
:102280001021044800F074FF4FF40041014800F0B1
:102290001FFF10BD0018014010B54FF40041024867
:1022A00000F016FF10BD00000018014010B54FF4FB
:1022B0000041024800F00EFF10BD00000018014070
:1022C00070B50446642C01DD642402E0002C00DAC1
:1022D00000240D490C7000BF0CA000F0D3FA0A488E
:1022E00001780EA000F0CEFA00BFC4F164001349DB
:1022F00009884843642190FBF1F52A4602211048E1
:1023000001F0B9FF70BD0000200000203C3C4D5999
:102310005F44454255473E3E200000004C63645FE9
:1023200070776D5F6F757420675F6C63645F707743
:102330006D203D2025640D0A000000001E000020D5
:10234000002C014010B51021014800F0C3FE10BD63
:10235000000C014010B51021014800F0B9FE10BD7D
:10236000000C014010B540F2036001F007FD10239E
:1023700002221946034800F0FBFE1021014800F03C
:10238000A7FE10BD000C014000BFFEE710B540F2F3
:10239000056001F0F3FC402302221021034800F005
:1023A000E7FE4021014800F093FE10BD00140140FB
:1023B00010B5044600BF09A000F064FA21460BA046
:1023C00000F060FA00BF24B14021124800F082FE04
:1023D00003E040210F4800F07BFE10BD3C3C4D590E
:1023E0005F44454255473E3E200000004D6963432F
:1023F000746C5F436F6E74726F6C5F4F7574486975
:10240000676820737461747573203D2025640D0A1C
:1024100000000000001401407047000010B540F2B9
:10242000046001F0ABFC0F2302221021054800F0EC
:102430009FFE0421034800F04BFE0B21014800F0F1
:1024400049FE10BD0010014010B50446002C08DD07
:10245000052C06DA601E012202FA00F1014800F0A4
:1024600039FE10BD0010014070470246907810B947
:102470004FF0FF3070471378D01CC05C08701378A1
:10248000581CC31700EB93639B11A0EB83131370CD
:102490009078401E90700020ECE70246907840282B
:1024A0000BD11378581CC31700EB93639B11A0EB5F
:1024B000831313709078401E90705378D01CC154D1
:1024C0005378581CC31700EB93639B11A0EB831345
:1024D00053709078401C90700020704701468878B7
:1024E0007047000010B50446012C04D1C102084811
:1024F00000F094FE10BD022C04D12102044800F02B
:102500008DFEF7E78021024800F088FEF2E7000028
:10251000000C01407047000010B50446012C06D1A4
:10252000C302022248210A4800F022FE0EE0022CDB
:1025300006D1230202224821054800F019FE05E0D9
:10254000802302224821024800F012FE10BD000044
:10255000000C014010B50446012C06D1C302022232
:1025600010210A4800F004FE0EE0022C06D12302DE
:1025700002221021054800F0FBFD05E08023022225
:102580001021024800F0F4FD10BD0000000C0140D5
:1025900010B500F05BF810BD10B51448006840F0AD
:1025A00001001249086008464068114908400F4977
:1025B0004860084600680F4908400C490860084612
:1025C000006820F480200860084640680A490840F6
:1025D0000649486008460068064908400349086003
:1025E0004FF41F00886001F0B1FC10BD00100240E4
:1025F0000C00FFE8FFFFF6FEFFFF00F710B51248E2
:1026000000684FF47A71B0FBF1F4601EB0F1807F86
:1026100001D301200FE0601E4FF0E02148610F213F
:102620004FF0FF3000F03EF900204FF0E0218861CC
:1026300007200861002008B100BFFEE70021481E06
:1026400000F030F910BD00006C00002000B52348F8
:102650000068401C21490860FEF746FC1F480068DE
:102660001421B0FBF1F201FB1200022805D11C4835
:10267000008840F002001A49088018480068642168
:10268000B0FBF1F201FB1200172805D114480088B5
:1026900040F0040012490880104800684FF47A7135
:1026A000B0FBF1F201FB12000A2805D10C480088AA
:1026B00040F400400A490880084800684FF47A71E5
:1026C000B0FBF1F201FB1200E92805D104480088B3
:1026D00040F008000249088000BD00000C00002006
:1026E0000400002010B50949087800EBD0714910AA
:1026F000A0EB410111B1FFF72DFE01E0FFF722FE33
:1027000002480078401C0149087010BD1C000020E0
:1027100010B50B490B4801F06EFF30B1FEF750FBCE
:102720000749084801F05AFF08E00749054801F049
:1027300062FF18B10449034801F050FF10BD0000CA
:1027400005030500003801400403040010B51749D3
:10275000174801F050FF88B1FEF786F91349144875
:1027600001F03CFF13480078F0B94FF44171104874
:1027700001F027FF01200F49087015E00E490C48B1
:1027800001F039FF80B1FEF759F90B49084801F013
:1027900025FF0848007838B14FF44171044801F032
:1027A00003FF00200349087010BD00000503050069
:1027B000004400401B000020040304007CB50446D4
:1027C0000D460E4903C9CDE90001012C00DD7CBD99
:1027D0000120A0400A490978084060B100BF5DF8B7
:1027E0002400072101F0C1FE0028F8D05DF8240084
:1027F000294601F068FE00BFE9E70000EC4600084A
:10280000100000202DE9F04107460D461646002431
:1028100005E0295D3846FFF7D1FF601CC4B2B44221
:10282000F7DBBDE8F081F0B504460D464FF0FF3709
:102830000CB93846F0BD681E265CC1B22046FEF7D2
:10284000EFF8B04200D100273846F3E700BFFEE7BB
:1028500010B58021014800F03DFC10BD001401407E
:1028600010B540F2056001F089FA802302221021A0
:10287000034800F07DFC8021014800F029FC10BDD8
:10288000001401400FB4054B10B503A9044A029887
:1028900000F02CF810BC5DF814FB0000252F000898
:1028A0007000002010B5002804DB0A07130E054A4B
:1028B000135406E00A07140E034A00F00F031B1F0F
:1028C000D45410BD00E400E018ED00E002E008C8B8
:1028D000121F08C1002AFAD170477047002001E09A
:1028E00001C1121F002AFBD1704700002DE9FF4FE4
:1028F0008DB09B460F460446002606E025280BD0E7
:102900005A460F999047641C761C20780028F5D110
:1029100011B03046BDE8F08F0025A8460122984945
:1029200000E0054314F8013F203B02FA03F008429F
:10293000F7D120782E2817D114F8010F45F004059F
:102940002A280ED06FF02F022078A0F1300109293B
:102950000AD808EB880102EB410100EB0108641C76
:10296000F2E757F8048B641C20786C280DD004DC47
:102970004C2812D06A2811D104E074280DD07A288E
:102980000CD10AE045F4001507E0617845F48015A4
:10299000814202D1641C05F58015641C2278692AE5
:1029A00045D008DC002AB3D0582A69D0632A10D059
:1029B000642A08D13BE0702A67D0732A13D0752AA5
:1029C0005CD0782A5CD010465A460F999047761C06
:1029D000D3E017F8040B8DF8000000208DF80100FB
:1029E000E946012003E057F8049B4FF0FF306907E8
:1029F0004FF0000501D40AE06D1C45450DDA854213
:102A0000FADB19F805100029F6D106E06D1C8542A5
:102A1000FCDB19F805100029F8D12E4404E019F860
:102A2000010B5A460F9990476D1EF8D2A5E00A2077
:102A30000021CDE90801C5F3025002280DD001CFD5
:102A4000C117031E71F100030DDA4FF0000CD0EB3B
:102A50000C006CEB01012D2308E0FF1D27F0070798
:102A6000F7E80201EDE72B0504D52B238DF828307C
:102A700001233BE0EB0739D02023F7E70A2000E0F1
:102A800010200021CDE9080107E01020002145F0C9
:102A90000405CDE908014FF00808C5F302500228EB
:102AA0000FD001CF00214FF0000A2B071FD5702A4D
:102AB0000DD0DDE908C38CF0100C5CEA030C0CD0DF
:102AC00015E0FF1D27F00707F7E80201EBE74022BA
:102AD0008DF828204FF0010A0BE050EA010306D0E0
:102AE00030238DF828308DF8292002239A46582A61
:102AF00004D024A20DF120090B9209E026A2F9E7E7
:102B0000DDE90823FDF73AFD0B9B9B5C09F8013DCD
:102B100050EA0102F4D1ADEB0900203008906807BB
:102B200001D44FF001080899884502DDA8EB0100A7
:102B300000E000208046002506E00AA85A46405DD5
:102B40000F9990476D1C761C5545F6DB04E030204C
:102B50005A460F999047761CB8F10001A8F1010878
:102B6000F5DC05E019F8010B5A460F999047761CE1
:102B70000899481E08900029F4DC641CC5E6000092
:102B80000928010030313233343536373839616243
:102B90006364656600000000303132333435363707
:102BA000383941424344454600000000816841F005
:102BB0000801816000BF816801F008010029FAD195
:102BC000816841F00401816000BF816801F0040167
:102BD0000029FAD1704730B5012902D002291AD153
:102BE0000CE0C36A23F47003C362C36A541E4FF43B
:102BF000700505EA04542343C3620DE0836B23F49C
:102C000040138363836B541E4FF4401505EA04544C
:102C10002343836300E000BF00BF30BD21B1826861
:102C200042F40062826003E0826822F40062826003
:102C30007047816801F0010119B9816841F0010113
:102C40008160704772B101F001031BB1836843F4E6
:102C50008013836001F0020393B1836843F400435F
:102C600083600DE001F001031BB1836823F480133E
:102C7000836001F002031BB1836823F40043836087
:102C80007047012902D0022910D107E0836823F49C
:102C90006023836083681343836008E0836823F4C0
:102CA000E043836083681343836000E000BF00BF9C
:102CB0007047F0B50C46876BC7F30156856B371B21
:102CC00007EB8707C7F10F0C1F2707FA0CF7BD4367
:102CD000371B07EB8707C7F10F0702FA07F73D43DA
:102CE00085630A2A0DDA016902EB420C072707FA0D
:102CF0000CF7B94302EB420703FA07F739430161C6
:102D000012E0122A10DAC168A2F10A0707EB470C99
:102D1000072707FA0CF7B943A2F10A0707EB4707A1
:102D200003FA07F73943C160F0BD0000054909689F
:102D300021F47021034A11601146096801431160B2
:102D4000704700000424014001F001021AB18268BA
:102D500042F48002826001F002021AB1826842F4F9
:102D6000001282607047AAB101F480731BB14368FE
:102D700043F48073436001F480631BB1436843F400
:102D80008063436001F00203CBB1836843F0020328
:102D9000836014E001F480731BB1436823F48073F3
:102DA000436001F480631BB1436823F48063436094
:102DB00001F002031BB1836823F0020383607047B4
:102DC0000348006840F400000149086070470000B3
:102DD0000824014010B5012002490870000300F0EA
:102DE00079F810BD5500002010B504A0FFF74AFD8A
:102DF0000948007808B100F08DFB10BD6578696E58
:102E000074345F68616E646C6520726573657420EC
:102E1000636F72650D0A00006400002010B52C4B32
:102E20001B6883432A4C2360231D1B688343241D96
:102E30002360231D1B688343241D2360231D1B68FF
:102E40008343241D236011B101290ED105E0204BDD
:102E50001B6803431E4C236008E01D4B1B1D1B68B1
:102E600003431B4C241D236000E000BF00BF22B1C0
:102E7000012A0FD0022A27D119E0154B08331B680D
:102E80000343134C08342360231D1B688343241D14
:102E900023601AE00E4B08331B6883430C4C083444
:102EA0002360231D1B680343241D23600DE0084B92
:102EB00008331B680343064C08342360231D1B683A
:102EC0000343241D236000E000BF00BF10BD0000CD
:102ED00000040140024909688143014A11607047BA
:102EE00000040140024909680143014A116070472A
:102EF00000040140014908607047000014040140CB
:102F000001460748006800EA0102054814380068D5
:102F100000EA010312B10BB1012070470020FCE769
:102F20001404014070B504460D46E1B20020FFF7DD
:102F300045FC204670BD000070B50446394D012C9B
:102F400000D1394D0120A04038490978084000B12E
:102F500070BD374931F8140000F010FF354931F8E1
:102F6000140000F00BFF344951F82430334951F874
:102F700024000222182100F0FBF8314951F82430D6
:102F80002E4951F824000222042100F0F1F82846CD
:102F900001F09EFA4FF4E131284601F047FA002192
:102FA000284601F064FB0021284601F050FB002177
:102FB000284601F03CFB0021284601F0EDFA0021F3
:102FC000284601F0E1FA0421284601F038FB0821E7
:102FD000284601F044FB284601F0C2FA40F20531D0
:102FE000284601F0EEFA012C06D14FF44171284633
:102FF00001F0E7FAFDF730FD124B1B5D03F0030211
:10300000104B1B5D9910104B13F8240000F0A0FD2D
:103010000120A0400549097808430449087000BF11
:1030200096E70000003801400044004010000020F6
:10303000DC460008C0460008C4460008D446000824
:10304000CC460008E8460008E04600080148007841
:10305000704700006400002010B500BF06A0FFF715
:1030600011FC0948B0F9001008A0FFF70BFC00BFE5
:103070000548B0F9000010BD3C3C4D595F44454245
:1030800055473E3E20000000620000206765745FE7
:10309000696E7465726E616C5F74656D7020206717
:1030A0005F696E745F74656D70203D2025640D0A44
:1030B0000000000001461F2901DDFF207047034882
:1030C0000068C84000F00100F8E700005C00002044
:1030D000416170470161704710B500228B071C0FDA
:1030E0000F2303FA04F204290EDA204B9B68934362
:1030F0001E4CA36023469B688C07240F00FA04F43F
:1031000023431A4CA3602FE008290EDA174BDB6823
:103110009343164CE3602346DB688C07240F00FAC8
:1031200004F42343114CE3601EE00C290EDA0F4B2C
:103130001B6993430D4C236123461B698C07240FA5
:1031400000FA04F42343094C23610DE0074B5B694B
:103150009343064C636123465B698C07240F00FA96
:1031600004F42343014C636110BD000000000140E2
:10317000F0B5044616460025002201F00F0501F0C7
:10318000100707B1354300201EE0012787401F408C
:10319000C7B122684FEA800C0F2707FA0CF7BA4331
:1031A000870005FA07F73A43282904D10127874009
:1031B0001F40676105E0482903D1012787401F4070
:1031C00027612260471CB8B20828DED3082022E01D
:1031D000012787401F40E7B16268A0F108074FEA66
:1031E000870C0F2707FA0CF7BA43A0F10807BF00B6
:1031F00005FA07F73A43282904D1012787401F40E1
:10320000676105E0482903D1012787401F402761F6
:103210006260471CB8B21028DAD3F0BD024690684D
:10322000084008B1012070470020FCE70246D06842
:10323000084008B1012070470020FCE70146C8683B
:1032400080B27047F0B50A46002300240021002513
:1032500000F00046B6F1004F02D11D4EF16901E0C9
:103260001B4E7168C0F3034583B200F44016B6F5F7
:10327000401F08D121F07061154E766826F0706607
:10328000134F7E6012E000F48016B6F5801F06D161
:10329000032606FA05F4A14341F0706106E0460DED
:1032A000360103FA06F6B14341F0706122B1460DD2
:1032B000360103FA06F6314300F00046B6F1004F3E
:1032C00002D1034EF16101E0014E7160F0BD0000DA
:1032D00000000140C160704710B50020054908702A
:1032E00000BF05A0FFF7CEFA07A0FFF7CBFA00BF9B
:1032F00010BD0000640000203C3C4D595F44454235
:1033000055473E3E20000000686172645F77746438
:103310005F64697361626C650D0A000010B501207D
:1033200007490870074800880749088000BF07A0C0
:10333000FFF7A8FA09A0FFF7A5FA00BF10BD00002B
:103340006400002066000020680000203C3C4D59CD
:103350005F44454255473E3E20000000686172646C
:103360005F7774645F656E61626C650D0A000000D2
:1033700010B5064800880649088000BF05A0FFF781
:1033800081FA08A0FFF77EFA00BF10BD660000209A
:10339000680000203C3C4D595F44454255473E3E45
:1033A00020000000686172645F7774645F66656521
:1033B000640D0A0010B520210648FFF737FF20B141
:1033C00020210448FFF784FE03E020210148FFF795
:1033D00081FE10BD0008014010B511480088401C56
:1033E0000F490880084600880A2803DD002008806D
:1033F000FFF7E0FF0B48007888B10B48008870B1F8
:1034000009480088401E084908800846008830B9ED
:1034100006A0FFF737FA00F07DF8FFF75DFF10BD5B
:103420006A00002064000020680000206861726467
:103430005F7774645F666565645F7461736B207445
:10344000696D656F75740D0A0000000010B500BF4E
:1034500006A0FFF717FA0948018809A0FFF712FA3A
:1034600000BF06480088C0B210BD00003C3C4D596A
:103470005F44454255473E3E200000006600002064
:10348000686172645F7774645F6765745F74696DA7
:10349000656F75742074696D656F7574203D2025A6
:1034A00064282A3130306D73290D0A0010B540F2BE
:1034B000026000F063FC80211548FFF709FE4021FF
:1034C0001348FFF707FEE023022210211048FFF700
:1034D0004FFE1023022248210D48FFF749FE4FF40A
:1034E000C06000F04BFC04210020FFF7F5FD012235
:1034F00000211020FFF792FC1020FFF7F3FC1020B2
:10350000FFF7F8FC022201210A2000F021FB10BD88
:103510000008014010B540210548FFF7D9FDC8203B
:10352000FDF7ACFC40210248FFF7D4FD10BD0000C0
:103530000008014010B5044600BF05A0FFF7A2F93E
:10354000214607A0FFF79EF900BF1048048010BD78
:103550003C3C4D595F44454255473E3E20000000EB
:10356000686172645F7774645F7365745F74696DBA
:10357000656F75742074696D656F7574203D2025C5
:1035800064282A3130306D73290D0A00660000204E
:1035900010B504462146202000F014F810BD0000AC
:1035A00010B504462CB14FF480710548FFF790FD2B
:1035B00004E04FF480710248FFF78CFD10BD00005D
:1035C0000018014070B504460D46212C03DA204650
:1035D00000F06AF800E070BD0120FFF7E1FF9DB147
:1035E0004FF480411548FFF775FD202C04D14FF0B2
:1035F000FF301349086019E00120A0401049096814
:1036000008430F49086011E04FF480410B48FFF771
:103610005FFD202C03D100200949086006E001204D
:10362000A040074909688143054801600120FDF772
:1036300025FC0020FFF7B4FF00BFCCE700140140D9
:103640005C00002010B540F2056000F097FB4FF4DD
:103650009043022210211248FFF78AFD4FF4904157
:103660000F48FFF735FD40F2066000F087FB7C2431
:103670002346022210210B48FFF77AFD2146094814
:10368000FFF726FD4FF44073022210210548FFF793
:103690006FFD4FF440710348FFF71CFD10BD0000A3
:1036A000001401400018014070B504460E48FFF7B1
:1036B000C5FD054625F07C0504F03E0045EA4005C1
:1036C00029460948FFF706FE04F0010028B14FF42F
:1036D00000610648FFF7FEFC04E04FF40061034878
:1036E000FFF7F6FC70BD0000001801400014014017
:1036F00030B587B0044640F2036000F03FFB4FF462
:103700000043022218212C48FFF732FD40F20B60E3
:1037100000F034FB642C00DD64242848047003A806
:1037200000F078FE26480088401E05902548006875
:103730002549B0FBF1F0401E80B2ADF80C0003A9A2
:10374000224800F0EBFD684600F0D5FD0420ADF8FE
:1037500002006A4602211D4800F06AFC7022022124
:103760001A4800F05BFDC4F164001549098848431C
:10377000642190FBF1F52A460221144800F07BFDFC
:1037800000220221114800F089FD01210F4800F0BC
:1037900035FE0E4800F046FC4FF480430222102113
:1037A0000548FFF7E5FC4FF480410348FFF790FC24
:1037B000FDF7A6FB07B030BD000C01402000002043
:1037C0001E0000206C00002040420F00002C014031
:1037D00010B54FF480710648FFF77AFC6420FDF7BE
:1037E0004DFB4FF480710248FFF774FC10BD0000E0
:1037F0000014014010B540F2056000F0BFFA4FF42C
:103800008073022210210448FFF7B2FC4FF480714C
:103810000148FFF75FFC10BD0014014010B5822184
:10382000FF20FDF77BFC38213B20FDF777FC10BD26
:1038300010B58121FF20FDF771FCFB210D20FDF764
:103840006DFC0A20FDF71AFBFF210D20FDF766FC39
:1038500010BD000090B0402217496846FCF76EFC8E
:10386000FDF79EF81548016815A0FFF70BF816A0A4
:10387000FFF708F81EE0002415E00120A0401A49D7
:103880000988084068B10120A04017490988814390
:10389000154801805DF8240018B15DF824008047C8
:1038A00007E0601CC4B2102C03DA0F48008800281F
:1038B000E3D100BFDFE700008046000800000020E1
:1038C00025730D0A00000000426F617264496E6941
:1038D0007420646F6E652120323032322D30372DE6
:1038E00030310D0A000000000400002008B51CA0C3
:1038F00000680090022000F0E3F86A4600210220F0
:1039000000F0FBF800231A461946022000F006F9E1
:1039100040F2036000F032FA4FF4C06000F02EFA7B
:103920004FF48053022248210E48FFF721FC0C215E
:103930000120FFF7D1FB012200211003FFF76EFAEF
:103940004FF48050FFF7CEFA4FF48050FFF7D2FAD1
:1039500002220121282000F0FBF800F005F808BD44
:1039600000FF0000000C014008B56B460122002159
:10397000022000F0ABF860B99DF8000000F03F00B5
:103980003F2804D09DF8000000F03F0008BD3F2014
:10399000FCE702A0FEF776FFFF20F7E74552524F03
:1039A000523A204B45595F524F575F5343414E2087
:1039B0006E6361393535355F726561645F696E705C
:1039C0006F72740D0A00000070B5FF250026FFF726
:1039D000CBFF06463F2E43DA00243EE02948035D34
:1039E00000221146022000F099F820B1214626A0BD
:1039F000FEF748FF2FE0FFF7B7FF06463F2E00DB3C
:103A000029E03B2E10D006DC1F2E19D02F2E13D00C
:103A1000372E19D10CE03D2E03D03E2E14D1254671
:103A200014E0A01DC5B211E004F10C00C5B20DE018
:103A300004F11200C5B209E004F11800C5B205E0B6
:103A400004F11E00C5B201E0252504E000BF242DCD
:103A500000DD04E000BF601CC4B2062CBEDB00BF6A
:103A600000231A461946022000F058F8242D05DDDF
:103A7000252D01D1252070BD0020FCE70F48405DB9
:103A8000F9E70000464700084552524F523A204B92
:103A900045595F524F575F5343414E206E63613922
:103AA0003535355F77726974655F6F7574706F72E5
:103AB0007420693D25640D0A000000004C47000891
:103AC00010B504462046FDF77DFC10BDF8B506464E
:103AD0000D4614461F4605F00E0545F040050CB195
:103AE000012000E0002004460120E2B23B462946C6
:103AF00000903046FDF7ECFCF8BDF8B506460C46E4
:103B0000154604F00E0444F0400402202B46062221
:103B1000214600903046FDF739FDF8BD7FB582B0F3
:103B200006460C46154604F00E0444F040040DB160
:103B3000012000E00020054601200090A81CC2B230
:103B400005AB21463046FDF721FD06B070BD0000F3
:103B50002DE9F04103460D46164600240027A046F5
:103B60002448006800F4E060B0F5A06F15D006DCD2
:103B7000B0F5407F18D0B0F5806F19D110E0B0F5E6
:103B8000C06F06D0B0F5E06F12D100274FF00408E7
:103B900015E001274FF0030811E00227B8460EE0B8
:103BA00003274FF001080AE004274FF0000806E061
:103BB0004FF4A06000F022F80227B84600BF00BF13
:103BC000C7F1040005FA00F4C8F104010F20C84051
:103BD0003040044324010848C45403F01F0101206D
:103BE00088405911890001F1E021C1F80001BDE8C8
:103BF000F08100000CED00E000E400E00249014328
:103C0000024A1160704700000000FA050CED00E068
:103C10000F4A51680F4A1140082814D2DFE800F01B
:103C200004050607130A130B00BF00BF00BF41EADB
:103C3000803109E000BF20F004004FF0805242EADA
:103C40008032114300E000BF00BF014A516070475D
:103C500000100240FF3FFFEF2DE9F04F8BB0074609
:103C6000002009903EA090E8004CC068CDE905BE58
:103C7000CDF810A007900FF2EC0ADAE9000ACDE9BE
:103C8000020A0FF2E00ADAE9000ACDE9000A384830
:103C90004068C0F381000A900A9820B1012804D03E
:103CA000022829D103E0334928E0324926E0304890
:103CB000406800F48038B8F5803F09D12D4C2C487D
:103CC000406800F40039B9F5003F02D1641000E00B
:103CD000294C27484068C0F383422548406800F0DB
:103CE000006008B142F010020F2A01D2921C00E0DD
:103CF000521C04FB02F101E01E4900BF00BF1C483A
:103D00004068C0F3031504A8465D21FA06F318487D
:103D10004068C0F3022502A8465D23FA06FC144859
:103D20004068C0F3C2251DF8056023FA06F008902C
:103D300037B1012F06D0022F06D0032F0AD106E09B
:103D4000099108E0099306E0CDF824C003E0089843
:103D5000099000E000BF00BF09980BB0BDE8F08FEC
:103D6000000000000000000001020304060708092B
:103D70000010024000127A0000093D00064A02EBE2
:103D80009011096800F01F0301229A401143024B71
:103D900003EB90121160704700100240064A02EBDC
:103DA0009011096800F01F0301229A409143024BD1
:103DB00003EB90121160704700100240064A02EBBC
:103DC0009011096800F01F0301229A401143024B31
:103DD00003EB901211607047001002407CB505465D
:103DE0000C461148007800F0020018B90FA0FEF749
:103DF00049FD7CBDA5208DF800008DF801508DF89F
:103E000002409DF800009DF8011008449DF8021042
:103E10000844C0B28DF80300042269460120FEF771
:103E2000F1FC00BFE5E70000100000206572726F32
:103E3000723A20544F4350555F434F4D206E6F747C
:103E400020696E69740A000010B50446642C00DD18
:103E500064240648047000BF05A0FEF713FD034864
:103E6000017807A0FEF70EFD00BF10BD580000202E
:103E70003C3C4D595F44454255473E3E20000000C2
:103E80007365745F4C65645F50776D2020675F6C6D
:103E900065645F70776D203D2025640D0A00000089
:103EA00000200021264A126842F00102244B1A60C9
:103EB00000BF401C224A126802F0020111B9B0F59D
:103EC000A06FF6D11E4A126802F002020AB900BFC2
:103ED000FEE71B4A52681A4B5A601A4652685A60EB
:103EE0001A46526842F480625A601A465268154B6C
:103EF0001A40134B5A601A465268134B1A43104B20
:103F00005A601A46126842F080721A6000BF0C4A6A
:103F1000126802F00072002AF9D0094A526822F0B1
:103F20000302074B5A601A46526842F002025A6076
:103F300000BF034A526802F00802002AF9D0704715
:103F400000100240FFFFC3F70000280810B5FFF77C
:103F5000A7FF10BD10B52248007800283ED0FFF71B
:103F600033FD0446ECB1252C1BDA1E4800780028EE
:103F700034D11D480078401C1B4908700846007861
:103F800001282BDD1748047001210078FFF726FF78
:103F900000BF16A0FEF776FC214618A0FEF772FCC3
:103FA0001CE0DCB900200E4908700E48007888B18A
:103FB00000210C480078FFF711FF00200949087024
:103FC0000949087000BF09A0FEF75CFC12A0FEF7CB
:103FD00059FC00BF4FF48050FEF784FF10BD000075
:103FE0005500002054000020560000203C3C4D5954
:103FF0005F44454255473E3E200000007461736BAC
:10400000315F62746E5F7363616E20726574203D10
:104010002025640D0A00000072656C656173650DF2
:104020000A000000016841F0800101607047000053
:1040300010B531B101293FD002297DD003297CD1AF
:10404000BFE0036A23F001030362836923F00303E3
:104050008361036A148823430362036A23F0020323
:104060000362036A9488234303626A4B984202D036
:10407000694B98421FD1036A23F004030362036A69
:10408000548823430362036A23F008030362036A2C
:10409000D48823430362436823F4807343604368F6
:1040A000148923434360436823F4007343604368E7
:1040B000548923434360ABE0036A23F01003036297
:1040C000836923F440738361036A148843EA041309
:1040D0000362036A23F020030362036A948843EABD
:1040E000041303624B4B984202D04B4B984226D1AB
:1040F000036A23F040030362036A548843EA04130B
:104100000362036A23F080030362036AD48843EAEC
:1041100004130362436823F4806343604368148993
:1041200043EA84034360436823F4006343604368C5
:10413000548943EA840301E002E068E0436067E0F9
:10414000036A23F480730362C36923F00303C3612A
:10415000036A148843EA04230362036A23F40073A6
:104160000362036A948843EA04230362294B98425A
:1041700002D0294B984223D1036A23F4806303625F
:10418000036A548843EA04230362036A23F4006346
:104190000362036AD48843EA04230362436823F476
:1041A000805343604368148943EA041343604368BF
:1041B00023F4005343604368548943EA0413436083
:1041C00026E0036A23F480530362C36923F4407337
:1041D000C361036A148843EA04330362036A23F465
:1041E00000530362036A948843EA04330362094B71
:1041F000984202D0084B984208D1436823F4804388
:1042000043604368148943EA8413436000E000BFBD
:1042100000BF10BD002C01400034014031B1012924
:104220000CD0022913D0032922D118E0836923F08E
:10423000700383618369134383611AE0836923F404
:10424000E0438361836943EA0223836111E0C36928
:1042500023F07003C361C3691343C36109E0C369F9
:1042600023F4E043C361C36943EA0223C36100E06E
:1042700000BF00BF704731B1012906D0022906D026
:10428000032908D105E0426306E0826304E0C263CB
:1042900002E0026400E000BF00BF704731B10129B5
:1042A0000CD0022913D0032922D118E0836923F00E
:1042B000080383618369134383611AE0836923F4EC
:1042C00000638361836943EA0223836111E0C36968
:1042D00023F00803C361C3691343C36109E0C369E1
:1042E00023F40063C361C36943EA0223C36100E0AE
:1042F00000BF00BF70470021018041808180C180E4
:10430000018141817047016821F00101016070471E
:10431000016841F001010160704700000A88826273
:10432000294A904220D0B0F1804F1DD0274A9042B8
:104330001AD0274A904217D0264A904214D0264AD3
:10434000904211D0254A90420ED0254A90420BD07F
:10435000244A904208D0244A904205D0234A9042F1
:1043600002D0234A90420FD1026822F0700202600C
:1043700002688B7803F060031A43026002680B79CD
:1043800003F010031A4302608A68C262194A90421D
:104390000CD0194A904209D0026822F4407202609F
:1043A00002688B8903F440731A430260064A904204
:1043B00002D0094A904201D18A7B0263426942F0ED
:1043C0000102426170470000002C014000040040DF
:1043D00000080040000C004000340140004C014047
:1043E000005001400054014000180040001C0040F3
:1043F000002000400010004000140040012904D1BA
:10440000426C42F40042426403E0426C22F40042F7
:104410004264704700210180418081804FF6FF7126
:104420008160002181818173704700002DE9F04790
:1044300004460D460027B846B94600261D49601AB5
:104440008C421CD006DC1C48204470B1B0F5806F53
:104450001FD10FE0B0F5806F16D0B0F56C4F18D1BA
:104460000320FFF7F9FB074614E00220FFF7F4FBF7
:1044700007460FE00220FFF7EFFB07460AE00220A5
:10448000FFF7EAFB074605E00220FFF7E5FB0746DA
:1044900000E000BF00BF07EB5500B0FBF5F64FF69C
:1044A000F07006EA000806F00F0948EA0900A0606B
:1044B000BDE8F087004C004000BCFFBF01464868E3
:1044C000C0F308007047C1F3080242607047000063
:1044D00010B504462049601A8C4228D006DC1F48DB
:1044E000204490B1B0F5806F33D117E0B0F5806F04
:1044F00026D0B0F56C4F2CD140F20E30FFF75EFCA9
:1045000040F20E30FFF74AFC24E040F21140FFF782
:1045100055FC40F21140FFF741FC1BE040F2124015
:10452000FFF74CFC40F21240FFF738FC12E040F27B
:104530001340FFF743FC40F21340FFF72FFC09E064
:1045400040F21440FFF73AFC40F21440FFF726FC1B
:1045500000E000BF00BF10BD004C004000BCFFBF2A
:10456000C16841F40051C160704710B5024602EBCA
:104570009110006801F01F040123A340184008B106
:10458000012010BD0020FCE70A460021416921F40A
:1045900000711143416170470A460021416921F4CD
:1045A000807111434161704710B5C1F3891282587F
:1045B00001F01F040123A3409A43C1F38913C250A1
:1045C00010BD10B5C1F38912825801F01F040123F8
:1045D000A3401A43C1F38913C25010BD10B500EBBC
:1045E00091521268C1F304440123A3409A4300EBA3
:1045F00091531A6010BD70B5024600230024C1F328
:104600008910105801F01F060125B54000EA050386
:1046100002EB91500068C1F304460125B54000EA61
:10462000050414B10BB1012070BD0020FCE7C26885
:1046300022F4C062C260C2680A43C26070470A4680
:104640000021C16821F004011143C1607047026973
:1046500022F44052026102690A43026170470A462D
:104660000021C16821F008011143C1607047C26890
:1046700022F48052C260C2680A43C26070470000E0
:1046800000000000553F0008D9330008CD1700088E
:10469000000000000000000000000000000000001A
:1046A000000000000000000000000000000000000A
:1046B000000000000000000000000000E5260008E7
:1046C0000E061107000200000400000000040000B4
:1046D0000800000000080140000801400206020630
:1046E00025000000260000000505000000380140FC
:1046F00000440040416E737765724370755F64617A
:1047000074610000A50000000000000049696341D9
:1047100070705F526561645F427974655F43757262
:10472000004969634170705F57726974655F4279CF
:10473000746573004969634170705F526561645FBD
:10474000427974657300FEFDFBF7EFDF01070D137F
:10475000191F02080E141A2003090F151B21040A41
:1047600010161C22050B11171D23060C12181E24EF
:104770004275696C6474696D65203A4175672031D2
:104780003620323032322031303A30393A31380046
:104790004552524F523A2073656E64206465765FCD
:1047A00061646472204949435F576169745F416382
:1047B0006B28696E64657829213D20302064657618
:1047C0005F61646472203D203078257820696E64D2
:1047D0006578203D2025640D0A000000FC47000894
:1047E0000000002074000000CC2800087048000879
:1047F0007400002044200000DC28000870470008F6
:1048000000000000000000000000000000000000A8
:1048100000000000000400000000A00F6400000081
:104820000000000000000000000000000000000088
:104830000000000000005A008000200080000004FA
:10484000200510000400100058027C02A0DC0000CB
:1048500000000000640000000000000000000000F4
:104860000000DC000000000000F36F060000000004
:0400000508000105E9
:00000001FF
